{
  "_format": "hh-sol-artifact-1",
  "contractName": "UnifiedLending",
  "sourceName": "contracts/UnifiedLending.sol",
  "abi": [
    {
      "anonymous": false,
      "inputs": [
        {
          "indexed": true,
          "internalType": "address",
          "name": "borrower",
          "type": "address"
        },
        {
          "indexed": false,
          "internalType": "string",
          "name": "name",
          "type": "string"
        }
      ],
      "name": "BorrowerRegistered",
      "type": "event"
    },
    {
      "anonymous": false,
      "inputs": [
        {
          "indexed": true,
          "internalType": "address",
          "name": "lender",
          "type": "address"
        },
        {
          "indexed": false,
          "internalType": "string",
          "name": "name",
          "type": "string"
        }
      ],
      "name": "LenderRegistered",
      "type": "event"
    },
    {
      "anonymous": false,
      "inputs": [
        {
          "indexed": true,
          "internalType": "uint256",
          "name": "loanId",
          "type": "uint256"
        },
        {
          "indexed": true,
          "internalType": "address",
          "name": "lender",
          "type": "address"
        }
      ],
      "name": "LoanApproved",
      "type": "event"
    },
    {
      "anonymous": false,
      "inputs": [
        {
          "indexed": true,
          "internalType": "uint256",
          "name": "loanId",
          "type": "uint256"
        },
        {
          "indexed": true,
          "internalType": "address",
          "name": "lender",
          "type": "address"
        }
      ],
      "name": "LoanRejected",
      "type": "event"
    },
    {
      "anonymous": false,
      "inputs": [
        {
          "indexed": true,
          "internalType": "uint256",
          "name": "loanId",
          "type": "uint256"
        },
        {
          "indexed": true,
          "internalType": "address",
          "name": "borrower",
          "type": "address"
        },
        {
          "indexed": true,
          "internalType": "address",
          "name": "lender",
          "type": "address"
        },
        {
          "indexed": false,
          "internalType": "uint256",
          "name": "amount",
          "type": "uint256"
        }
      ],
      "name": "LoanRequested",
      "type": "event"
    },
    {
      "anonymous": false,
      "inputs": [
        {
          "indexed": true,
          "internalType": "uint256",
          "name": "loanId",
          "type": "uint256"
        },
        {
          "indexed": true,
          "internalType": "address",
          "name": "from",
          "type": "address"
        },
        {
          "indexed": true,
          "internalType": "address",
          "name": "to",
          "type": "address"
        },
        {
          "indexed": false,
          "internalType": "uint256",
          "name": "amount",
          "type": "uint256"
        }
      ],
      "name": "PaymentMade",
      "type": "event"
    },
    {
      "inputs": [
        {
          "internalType": "uint256",
          "name": "_loanId",
          "type": "uint256"
        }
      ],
      "name": "approveLoan",
      "outputs": [],
      "stateMutability": "nonpayable",
      "type": "function"
    },
    {
      "inputs": [
        {
          "internalType": "uint256",
          "name": "",
          "type": "uint256"
        }
      ],
      "name": "borrowerList",
      "outputs": [
        {
          "internalType": "address",
          "name": "",
          "type": "address"
        }
      ],
      "stateMutability": "view",
      "type": "function"
    },
    {
      "inputs": [
        {
          "internalType": "address",
          "name": "",
          "type": "address"
        }
      ],
      "name": "borrowers",
      "outputs": [
        {
          "internalType": "address",
          "name": "borrowerAddress",
          "type": "address"
        },
        {
          "internalType": "string",
          "name": "name",
          "type": "string"
        },
        {
          "internalType": "string",
          "name": "phone",
          "type": "string"
        },
        {
          "internalType": "string",
          "name": "email",
          "type": "string"
        },
        {
          "internalType": "uint256",
          "name": "creditScore",
          "type": "uint256"
        },
        {
          "internalType": "uint256",
          "name": "monthlyIncome",
          "type": "uint256"
        },
        {
          "internalType": "bool",
          "name": "isRegistered",
          "type": "bool"
        },
        {
          "internalType": "string",
          "name": "govidCID",
          "type": "string"
        },
        {
          "internalType": "string",
          "name": "signatureCID",
          "type": "string"
        },
        {
          "internalType": "bool",
          "name": "verified",
          "type": "bool"
        }
      ],
      "stateMutability": "view",
      "type": "function"
    },
    {
      "inputs": [],
      "name": "getAllBorrowers",
      "outputs": [
        {
          "internalType": "address[]",
          "name": "",
          "type": "address[]"
        }
      ],
      "stateMutability": "view",
      "type": "function"
    },
    {
      "inputs": [],
      "name": "getAllLenders",
      "outputs": [
        {
          "internalType": "address[]",
          "name": "",
          "type": "address[]"
        }
      ],
      "stateMutability": "view",
      "type": "function"
    },
    {
      "inputs": [
        {
          "internalType": "address",
          "name": "_borrower",
          "type": "address"
        }
      ],
      "name": "getBorrowerProfile",
      "outputs": [
        {
          "internalType": "string",
          "name": "name",
          "type": "string"
        },
        {
          "internalType": "string",
          "name": "phone",
          "type": "string"
        },
        {
          "internalType": "string",
          "name": "email",
          "type": "string"
        },
        {
          "internalType": "uint256",
          "name": "creditScore",
          "type": "uint256"
        },
        {
          "internalType": "uint256",
          "name": "monthlyIncome",
          "type": "uint256"
        },
        {
          "internalType": "string",
          "name": "govidCID",
          "type": "string"
        },
        {
          "internalType": "string",
          "name": "signatureCID",
          "type": "string"
        },
        {
          "internalType": "bool",
          "name": "verified",
          "type": "bool"
        }
      ],
      "stateMutability": "view",
      "type": "function"
    },
    {
      "inputs": [
        {
          "internalType": "address",
          "name": "_lender",
          "type": "address"
        }
      ],
      "name": "getLenderProfile",
      "outputs": [
        {
          "internalType": "string",
          "name": "name",
          "type": "string"
        },
        {
          "internalType": "string",
          "name": "phone",
          "type": "string"
        },
        {
          "internalType": "string",
          "name": "email",
          "type": "string"
        },
        {
          "internalType": "uint256",
          "name": "interestRate",
          "type": "uint256"
        },
        {
          "internalType": "uint256",
          "name": "monthlyIncome",
          "type": "uint256"
        },
        {
          "internalType": "string",
          "name": "govidCID",
          "type": "string"
        },
        {
          "internalType": "string",
          "name": "signatureCID",
          "type": "string"
        },
        {
          "internalType": "bool",
          "name": "verified",
          "type": "bool"
        }
      ],
      "stateMutability": "view",
      "type": "function"
    },
    {
      "inputs": [
        {
          "internalType": "uint256",
          "name": "_loanId",
          "type": "uint256"
        }
      ],
      "name": "getTransactions",
      "outputs": [
        {
          "components": [
            {
              "internalType": "uint256",
              "name": "loanId",
              "type": "uint256"
            },
            {
              "internalType": "address",
              "name": "from",
              "type": "address"
            },
            {
              "internalType": "address",
              "name": "to",
              "type": "address"
            },
            {
              "internalType": "uint256",
              "name": "amount",
              "type": "uint256"
            },
            {
              "internalType": "uint256",
              "name": "timestamp",
              "type": "uint256"
            }
          ],
          "internalType": "struct UnifiedLending.Transaction[]",
          "name": "",
          "type": "tuple[]"
        }
      ],
      "stateMutability": "view",
      "type": "function"
    },
    {
      "inputs": [
        {
          "internalType": "uint256",
          "name": "",
          "type": "uint256"
        }
      ],
      "name": "lenderList",
      "outputs": [
        {
          "internalType": "address",
          "name": "",
          "type": "address"
        }
      ],
      "stateMutability": "view",
      "type": "function"
    },
    {
      "inputs": [
        {
          "internalType": "address",
          "name": "",
          "type": "address"
        }
      ],
      "name": "lenders",
      "outputs": [
        {
          "internalType": "address",
          "name": "lenderAddress",
          "type": "address"
        },
        {
          "internalType": "string",
          "name": "name",
          "type": "string"
        },
        {
          "internalType": "string",
          "name": "phone",
          "type": "string"
        },
        {
          "internalType": "string",
          "name": "email",
          "type": "string"
        },
        {
          "internalType": "uint256",
          "name": "interestRate",
          "type": "uint256"
        },
        {
          "internalType": "uint256",
          "name": "monthlyIncome",
          "type": "uint256"
        },
        {
          "internalType": "bool",
          "name": "isRegistered",
          "type": "bool"
        },
        {
          "internalType": "string",
          "name": "govidCID",
          "type": "string"
        },
        {
          "internalType": "string",
          "name": "signatureCID",
          "type": "string"
        },
        {
          "internalType": "bool",
          "name": "verified",
          "type": "bool"
        }
      ],
      "stateMutability": "view",
      "type": "function"
    },
    {
      "inputs": [
        {
          "internalType": "uint256",
          "name": "",
          "type": "uint256"
        },
        {
          "internalType": "uint256",
          "name": "",
          "type": "uint256"
        }
      ],
      "name": "loanTransactions",
      "outputs": [
        {
          "internalType": "uint256",
          "name": "loanId",
          "type": "uint256"
        },
        {
          "internalType": "address",
          "name": "from",
          "type": "address"
        },
        {
          "internalType": "address",
          "name": "to",
          "type": "address"
        },
        {
          "internalType": "uint256",
          "name": "amount",
          "type": "uint256"
        },
        {
          "internalType": "uint256",
          "name": "timestamp",
          "type": "uint256"
        }
      ],
      "stateMutability": "view",
      "type": "function"
    },
    {
      "inputs": [
        {
          "internalType": "uint256",
          "name": "",
          "type": "uint256"
        }
      ],
      "name": "loans",
      "outputs": [
        {
          "internalType": "uint256",
          "name": "loanId",
          "type": "uint256"
        },
        {
          "internalType": "address",
          "name": "borrower",
          "type": "address"
        },
        {
          "internalType": "address",
          "name": "lender",
          "type": "address"
        },
        {
          "internalType": "uint256",
          "name": "amount",
          "type": "uint256"
        },
        {
          "internalType": "uint256",
          "name": "amountPaid",
          "type": "uint256"
        },
        {
          "internalType": "uint256",
          "name": "repaymentPeriod",
          "type": "uint256"
        },
        {
          "internalType": "enum UnifiedLending.LoanStatus",
          "name": "status",
          "type": "uint8"
        },
        {
          "internalType": "uint256",
          "name": "interestRate",
          "type": "uint256"
        }
      ],
      "stateMutability": "view",
      "type": "function"
    },
    {
      "inputs": [],
      "name": "nextLoanId",
      "outputs": [
        {
          "internalType": "uint256",
          "name": "",
          "type": "uint256"
        }
      ],
      "stateMutability": "view",
      "type": "function"
    },
    {
      "inputs": [
        {
          "internalType": "uint256",
          "name": "_loanId",
          "type": "uint256"
        },
        {
          "internalType": "uint256",
          "name": "_amount",
          "type": "uint256"
        }
      ],
      "name": "recordPayment",
      "outputs": [],
      "stateMutability": "nonpayable",
      "type": "function"
    },
    {
      "inputs": [
        {
          "internalType": "string",
          "name": "_name",
          "type": "string"
        },
        {
          "internalType": "string",
          "name": "_phone",
          "type": "string"
        },
        {
          "internalType": "string",
          "name": "_email",
          "type": "string"
        }
      ],
      "name": "registerBorrower",
      "outputs": [],
      "stateMutability": "nonpayable",
      "type": "function"
    },
    {
      "inputs": [
        {
          "internalType": "string",
          "name": "_name",
          "type": "string"
        },
        {
          "internalType": "string",
          "name": "_phone",
          "type": "string"
        },
        {
          "internalType": "string",
          "name": "_email",
          "type": "string"
        },
        {
          "internalType": "uint256",
          "name": "_interestRate",
          "type": "uint256"
        },
        {
          "internalType": "uint256",
          "name": "_monthlyIncome",
          "type": "uint256"
        }
      ],
      "name": "registerLender",
      "outputs": [],
      "stateMutability": "nonpayable",
      "type": "function"
    },
    {
      "inputs": [
        {
          "internalType": "uint256",
          "name": "_loanId",
          "type": "uint256"
        }
      ],
      "name": "rejectLoan",
      "outputs": [],
      "stateMutability": "nonpayable",
      "type": "function"
    },
    {
      "inputs": [
        {
          "internalType": "uint256",
          "name": "_amount",
          "type": "uint256"
        },
        {
          "internalType": "uint256",
          "name": "_repaymentPeriod",
          "type": "uint256"
        },
        {
          "internalType": "address",
          "name": "_lender",
          "type": "address"
        }
      ],
      "name": "requestLoan",
      "outputs": [],
      "stateMutability": "nonpayable",
      "type": "function"
    },
    {
      "inputs": [
        {
          "components": [
            {
              "internalType": "string",
              "name": "name",
              "type": "string"
            },
            {
              "internalType": "string",
              "name": "phone",
              "type": "string"
            },
            {
              "internalType": "string",
              "name": "email",
              "type": "string"
            },
            {
              "internalType": "uint256",
              "name": "creditScore",
              "type": "uint256"
            },
            {
              "internalType": "uint256",
              "name": "monthlyIncome",
              "type": "uint256"
            },
            {
              "internalType": "string",
              "name": "govidCID",
              "type": "string"
            },
            {
              "internalType": "string",
              "name": "signatureCID",
              "type": "string"
            },
            {
              "internalType": "bool",
              "name": "verified",
              "type": "bool"
            }
          ],
          "internalType": "struct UnifiedLending.BorrowerProfileData",
          "name": "profileData",
          "type": "tuple"
        }
      ],
      "name": "updateBorrowerProfile",
      "outputs": [],
      "stateMutability": "nonpayable",
      "type": "function"
    },
    {
      "inputs": [
        {
          "components": [
            {
              "internalType": "string",
              "name": "name",
              "type": "string"
            },
            {
              "internalType": "string",
              "name": "phone",
              "type": "string"
            },
            {
              "internalType": "string",
              "name": "email",
              "type": "string"
            },
            {
              "internalType": "uint256",
              "name": "interestRate",
              "type": "uint256"
            },
            {
              "internalType": "uint256",
              "name": "monthlyIncome",
              "type": "uint256"
            },
            {
              "internalType": "string",
              "name": "govidCID",
              "type": "string"
            },
            {
              "internalType": "string",
              "name": "signatureCID",
              "type": "string"
            },
            {
              "internalType": "bool",
              "name": "verified",
              "type": "bool"
            }
          ],
          "internalType": "struct UnifiedLending.LenderProfileData",
          "name": "profileData",
          "type": "tuple"
        }
      ],
      "name": "updateLenderProfile",
      "outputs": [],
      "stateMutability": "nonpayable",
      "type": "function"
    }
  ],
  "bytecode": "0x6080604052600160065534801561001557600080fd5b50614476806100256000396000f3fe608060405234801561001057600080fd5b506004361061012c5760003560e01c806387c51459116100ad578063aadc1ac111610071578063aadc1ac114610353578063b3a665241461036f578063bf5d50c41461039f578063dfd1b479146103d8578063e1ec3c681461040f5761012c565b806387c51459146102c357806389e5a599146102e15780638b0a9b65146102fd5780638e68520a14610319578063a1666b54146103355761012c565b806332abcdbe116100f457806332abcdbe146101f25780635742177c146102105780635d29cb98146102405780636085c7df1461025c578063873334041461028c5761012c565b80630b879bc2146101315780631570d88e1461014d57806318ae50fd1461016957806322385ed41461019d57806328fd10d7146101b9575b600080fd5b61014b60048036038101906101469190612ef7565b610446565b005b61016760048036038101906101629190612f5c565b610827565b005b610183600480360381019061017e9190612ef7565b6109ef565b604051610194959493929190612ff5565b60405180910390f35b6101b760048036038101906101b29190613074565b610a82565b005b6101d360048036038101906101ce91906130c7565b610dea565b6040516101e99a9998979695949392919061319f565b60405180910390f35b6101fa611120565b604051610207919061331c565b60405180910390f35b61022a6004803603810190610225919061333e565b6111ae565b6040516102379190613491565b60405180910390f35b61025a6004803603810190610255919061333e565b6112ea565b005b6102766004803603810190610271919061333e565b61152c565b60405161028391906134b3565b60405180910390f35b6102a660048036038101906102a191906130c7565b61156b565b6040516102ba9897969594939291906134ce565b60405180910390f35b6102cb611a14565b6040516102d8919061356f565b60405180910390f35b6102fb60048036038101906102f691906136bf565b611a1a565b005b6103176004803603810190610312919061378e565b611dbe565b005b610333600480360381019061032e9190613855565b612161565b005b61033d612327565b60405161034a919061331c565b60405180910390f35b61036d6004803603810190610368919061333e565b6123b5565b005b6103896004803603810190610384919061333e565b6125f8565b60405161039691906134b3565b60405180910390f35b6103b960048036038101906103b491906130c7565b612637565b6040516103cf9a9998979695949392919061319f565b60405180910390f35b6103f260048036038101906103ed91906130c7565b61296d565b6040516104069897969594939291906134ce565b60405180910390f35b6104296004803603810190610424919061333e565b612e18565b60405161043d989796959493929190613915565b60405180910390f35b6001600381111561045a5761045961389e565b5b6002600084815260200190815260200160002060060160009054906101000a900460ff1660038111156104905761048f61389e565b5b146104d0576040517f08c379a00000000000000000000000000000000000000000000000000000000081526004016104c7906139df565b60405180910390fd5b6002600083815260200190815260200160002060010160009054906101000a900473ffffffffffffffffffffffffffffffffffffffff1673ffffffffffffffffffffffffffffffffffffffff163373ffffffffffffffffffffffffffffffffffffffff1614610574576040517f08c379a000000000000000000000000000000000000000000000000000000000815260040161056b90613a4b565b60405180910390fd5b8060026000848152602001908152602001600020600401600082825461059a9190613a9a565b92505081905550600360008381526020019081526020016000206040518060a001604052808481526020013373ffffffffffffffffffffffffffffffffffffffff1681526020016002600086815260200190815260200160002060020160009054906101000a900473ffffffffffffffffffffffffffffffffffffffff1673ffffffffffffffffffffffffffffffffffffffff1681526020018381526020014281525090806001815401808255809150506001900390600052602060002090600502016000909190919091506000820151816000015560208201518160010160006101000a81548173ffffffffffffffffffffffffffffffffffffffff021916908373ffffffffffffffffffffffffffffffffffffffff16021790555060408201518160020160006101000a81548173ffffffffffffffffffffffffffffffffffffffff021916908373ffffffffffffffffffffffffffffffffffffffff1602179055506060820151816003015560808201518160040155505060026000838152602001908152602001600020600301546002600084815260200190815260200160002060040154106107875760036002600084815260200190815260200160002060060160006101000a81548160ff021916908360038111156107815761078061389e565b5b02179055505b6002600083815260200190815260200160002060020160009054906101000a900473ffffffffffffffffffffffffffffffffffffffff1673ffffffffffffffffffffffffffffffffffffffff163373ffffffffffffffffffffffffffffffffffffffff16837fd51bb0381ff8d9476c9493a30eafdb1966dca4b0c0db1a2d4e244a3a8b16ffb88460405161081b919061356f565b60405180910390a45050565b600160003373ffffffffffffffffffffffffffffffffffffffff1673ffffffffffffffffffffffffffffffffffffffff16815260200190815260200160002060060160009054906101000a900460ff166108b6576040517f08c379a00000000000000000000000000000000000000000000000000000000081526004016108ad90613b1a565b60405180910390fd5b6000600160003373ffffffffffffffffffffffffffffffffffffffff1673ffffffffffffffffffffffffffffffffffffffff16815260200190815260200160002090508180600001906109099190613b49565b82600101918261091a929190613dc3565b5081806020019061092b9190613b49565b82600201918261093c929190613dc3565b5081806040019061094d9190613b49565b82600301918261095e929190613dc3565b508160600135816004018190555081608001358160050181905550818060a001906109899190613b49565b82600701918261099a929190613dc3565b50818060c001906109ab9190613b49565b8260080191826109bc929190613dc3565b508160e00160208101906109d09190613ebf565b8160090160006101000a81548160ff0219169083151502179055505050565b60036020528160005260406000208181548110610a0b57600080fd5b9060005260206000209060050201600091509150508060000154908060010160009054906101000a900473ffffffffffffffffffffffffffffffffffffffff16908060020160009054906101000a900473ffffffffffffffffffffffffffffffffffffffff16908060030154908060040154905085565b6000803373ffffffffffffffffffffffffffffffffffffffff1673ffffffffffffffffffffffffffffffffffffffff16815260200190815260200160002060060160009054906101000a900460ff16610b10576040517f08c379a0000000000000000000000000000000000000000000000000000000008152600401610b0790613f38565b60405180910390fd5b600160008273ffffffffffffffffffffffffffffffffffffffff1673ffffffffffffffffffffffffffffffffffffffff16815260200190815260200160002060060160009054906101000a900460ff16610b9f576040517f08c379a0000000000000000000000000000000000000000000000000000000008152600401610b9690613fa4565b60405180910390fd5b60405180610100016040528060065481526020013373ffffffffffffffffffffffffffffffffffffffff1681526020018273ffffffffffffffffffffffffffffffffffffffff1681526020018481526020016000815260200183815260200160006003811115610c1257610c1161389e565b5b8152602001600160008473ffffffffffffffffffffffffffffffffffffffff1673ffffffffffffffffffffffffffffffffffffffff168152602001908152602001600020600401548152506002600060065481526020019081526020016000206000820151816000015560208201518160010160006101000a81548173ffffffffffffffffffffffffffffffffffffffff021916908373ffffffffffffffffffffffffffffffffffffffff16021790555060408201518160020160006101000a81548173ffffffffffffffffffffffffffffffffffffffff021916908373ffffffffffffffffffffffffffffffffffffffff160217905550606082015181600301556080820151816004015560a0820151816005015560c08201518160060160006101000a81548160ff02191690836003811115610d5357610d5261389e565b5b021790555060e082015181600701559050508073ffffffffffffffffffffffffffffffffffffffff163373ffffffffffffffffffffffffffffffffffffffff166006547fdc60aa6fe6ea1316bf5acc811851e823e68d2aa48e0b9e4ecc3650b38b9303f686604051610dc5919061356f565b60405180910390a460066000815480929190610de090613fc4565b9190505550505050565b60016020528060005260406000206000915090508060000160009054906101000a900473ffffffffffffffffffffffffffffffffffffffff1690806001018054610e3390613be6565b80601f0160208091040260200160405190810160405280929190818152602001828054610e5f90613be6565b8015610eac5780601f10610e8157610100808354040283529160200191610eac565b820191906000526020600020905b815481529060010190602001808311610e8f57829003601f168201915b505050505090806002018054610ec190613be6565b80601f0160208091040260200160405190810160405280929190818152602001828054610eed90613be6565b8015610f3a5780601f10610f0f57610100808354040283529160200191610f3a565b820191906000526020600020905b815481529060010190602001808311610f1d57829003601f168201915b505050505090806003018054610f4f90613be6565b80601f0160208091040260200160405190810160405280929190818152602001828054610f7b90613be6565b8015610fc85780601f10610f9d57610100808354040283529160200191610fc8565b820191906000526020600020905b815481529060010190602001808311610fab57829003601f168201915b5050505050908060040154908060050154908060060160009054906101000a900460ff1690806007018054610ffc90613be6565b80601f016020809104026020016040519081016040528092919081815260200182805461102890613be6565b80156110755780601f1061104a57610100808354040283529160200191611075565b820191906000526020600020905b81548152906001019060200180831161105857829003601f168201915b50505050509080600801805461108a90613be6565b80601f01602080910402602001604051908101604052809291908181526020018280546110b690613be6565b80156111035780601f106110d857610100808354040283529160200191611103565b820191906000526020600020905b8154815290600101906020018083116110e657829003601f168201915b5050505050908060090160009054906101000a900460ff1690508a565b606060048054806020026020016040519081016040528092919081815260200182805480156111a457602002820191906000526020600020905b8160009054906101000a900473ffffffffffffffffffffffffffffffffffffffff1673ffffffffffffffffffffffffffffffffffffffff168152602001906001019080831161115a575b5050505050905090565b606060036000838152602001908152602001600020805480602002602001604051908101604052809291908181526020016000905b828210156112df57838290600052602060002090600502016040518060a0016040529081600082015481526020016001820160009054906101000a900473ffffffffffffffffffffffffffffffffffffffff1673ffffffffffffffffffffffffffffffffffffffff1673ffffffffffffffffffffffffffffffffffffffff1681526020016002820160009054906101000a900473ffffffffffffffffffffffffffffffffffffffff1673ffffffffffffffffffffffffffffffffffffffff1673ffffffffffffffffffffffffffffffffffffffff16815260200160038201548152602001600482015481525050815260200190600101906111e3565b505050509050919050565b600160003373ffffffffffffffffffffffffffffffffffffffff1673ffffffffffffffffffffffffffffffffffffffff16815260200190815260200160002060060160009054906101000a900460ff16611379576040517f08c379a000000000000000000000000000000000000000000000000000000000815260040161137090613b1a565b60405180910390fd5b3373ffffffffffffffffffffffffffffffffffffffff166002600083815260200190815260200160002060020160009054906101000a900473ffffffffffffffffffffffffffffffffffffffff1673ffffffffffffffffffffffffffffffffffffffff161461141d576040517f08c379a00000000000000000000000000000000000000000000000000000000081526004016114149061407e565b60405180910390fd5b600060038111156114315761143061389e565b5b6002600083815260200190815260200160002060060160009054906101000a900460ff1660038111156114675761146661389e565b5b146114a7576040517f08c379a000000000000000000000000000000000000000000000000000000000815260040161149e906140ea565b60405180910390fd5b600280600083815260200190815260200160002060060160006101000a81548160ff021916908360038111156114e0576114df61389e565b5b02179055503373ffffffffffffffffffffffffffffffffffffffff16817fe7ba502e07e0f90def7143baaace80ef86ce4d26899461424511082ed678499f60405160405180910390a350565b6005818154811061153c57600080fd5b906000526020600020016000915054906101000a900473ffffffffffffffffffffffffffffffffffffffff1681565b606080606060008060608060008060008a73ffffffffffffffffffffffffffffffffffffffff1673ffffffffffffffffffffffffffffffffffffffff16815260200190815260200160002060060160009054906101000a900460ff16611606576040517f08c379a00000000000000000000000000000000000000000000000000000000081526004016115fd90614156565b60405180910390fd5b60008060008b73ffffffffffffffffffffffffffffffffffffffff1673ffffffffffffffffffffffffffffffffffffffff168152602001908152602001600020604051806101400160405290816000820160009054906101000a900473ffffffffffffffffffffffffffffffffffffffff1673ffffffffffffffffffffffffffffffffffffffff1673ffffffffffffffffffffffffffffffffffffffff1681526020016001820180546116b890613be6565b80601f01602080910402602001604051908101604052809291908181526020018280546116e490613be6565b80156117315780601f1061170657610100808354040283529160200191611731565b820191906000526020600020905b81548152906001019060200180831161171457829003601f168201915b5050505050815260200160028201805461174a90613be6565b80601f016020809104026020016040519081016040528092919081815260200182805461177690613be6565b80156117c35780601f10611798576101008083540402835291602001916117c3565b820191906000526020600020905b8154815290600101906020018083116117a657829003601f168201915b505050505081526020016003820180546117dc90613be6565b80601f016020809104026020016040519081016040528092919081815260200182805461180890613be6565b80156118555780601f1061182a57610100808354040283529160200191611855565b820191906000526020600020905b81548152906001019060200180831161183857829003601f168201915b5050505050815260200160048201548152602001600582015481526020016006820160009054906101000a900460ff1615151515815260200160078201805461189d90613be6565b80601f01602080910402602001604051908101604052809291908181526020018280546118c990613be6565b80156119165780601f106118eb57610100808354040283529160200191611916565b820191906000526020600020905b8154815290600101906020018083116118f957829003601f168201915b5050505050815260200160088201805461192f90613be6565b80601f016020809104026020016040519081016040528092919081815260200182805461195b90613be6565b80156119a85780601f1061197d576101008083540402835291602001916119a8565b820191906000526020600020905b81548152906001019060200180831161198b57829003601f168201915b505050505081526020016009820160009054906101000a900460ff161515151581525050905080602001518160400151826060015183608001518460a001518560e001518661010001518761012001519850985098509850985098509850985050919395975091939597565b60065481565b600160003373ffffffffffffffffffffffffffffffffffffffff1673ffffffffffffffffffffffffffffffffffffffff16815260200190815260200160002060060160009054906101000a900460ff1615611aaa576040517f08c379a0000000000000000000000000000000000000000000000000000000008152600401611aa1906141c2565b60405180910390fd5b6000803373ffffffffffffffffffffffffffffffffffffffff1673ffffffffffffffffffffffffffffffffffffffff16815260200190815260200160002060060160009054906101000a900460ff1615611b39576040517f08c379a0000000000000000000000000000000000000000000000000000000008152600401611b309061422e565b60405180910390fd5b6040518061014001604052803373ffffffffffffffffffffffffffffffffffffffff16815260200186815260200185815260200184815260200183815260200182815260200160011515815260200160405180602001604052806000815250815260200160405180602001604052806000815250815260200160001515815250600160003373ffffffffffffffffffffffffffffffffffffffff1673ffffffffffffffffffffffffffffffffffffffff16815260200190815260200160002060008201518160000160006101000a81548173ffffffffffffffffffffffffffffffffffffffff021916908373ffffffffffffffffffffffffffffffffffffffff1602179055506020820151816001019081611c54919061424e565b506040820151816002019081611c6a919061424e565b506060820151816003019081611c80919061424e565b506080820151816004015560a0820151816005015560c08201518160060160006101000a81548160ff02191690831515021790555060e0820151816007019081611cca919061424e565b50610100820151816008019081611ce1919061424e565b506101208201518160090160006101000a81548160ff0219169083151502179055509050506005339080600181540180825580915050600190039060005260206000200160009091909190916101000a81548173ffffffffffffffffffffffffffffffffffffffff021916908373ffffffffffffffffffffffffffffffffffffffff1602179055503373ffffffffffffffffffffffffffffffffffffffff167fc3f44b19b0cf208e98a093111600b89bc42261326cf162a821382b148b093f8c86604051611daf9190614320565b60405180910390a25050505050565b6000803373ffffffffffffffffffffffffffffffffffffffff1673ffffffffffffffffffffffffffffffffffffffff16815260200190815260200160002060060160009054906101000a900460ff1615611e4d576040517f08c379a0000000000000000000000000000000000000000000000000000000008152600401611e449061422e565b60405180910390fd5b600160003373ffffffffffffffffffffffffffffffffffffffff1673ffffffffffffffffffffffffffffffffffffffff16815260200190815260200160002060060160009054906101000a900460ff1615611edd576040517f08c379a0000000000000000000000000000000000000000000000000000000008152600401611ed4906141c2565b60405180910390fd5b6040518061014001604052803373ffffffffffffffffffffffffffffffffffffffff1681526020018481526020018381526020018281526020016000815260200160008152602001600115158152602001604051806020016040528060008152508152602001604051806020016040528060008152508152602001600015158152506000803373ffffffffffffffffffffffffffffffffffffffff1673ffffffffffffffffffffffffffffffffffffffff16815260200190815260200160002060008201518160000160006101000a81548173ffffffffffffffffffffffffffffffffffffffff021916908373ffffffffffffffffffffffffffffffffffffffff1602179055506020820151816001019081611ff9919061424e565b50604082015181600201908161200f919061424e565b506060820151816003019081612025919061424e565b506080820151816004015560a0820151816005015560c08201518160060160006101000a81548160ff02191690831515021790555060e082015181600701908161206f919061424e565b50610100820151816008019081612086919061424e565b506101208201518160090160006101000a81548160ff0219169083151502179055509050506004339080600181540180825580915050600190039060005260206000200160009091909190916101000a81548173ffffffffffffffffffffffffffffffffffffffff021916908373ffffffffffffffffffffffffffffffffffffffff1602179055503373ffffffffffffffffffffffffffffffffffffffff167fad7643ffda2662b73e08209d1aad3fd64491a9e3818d06f4e7d24d0df9759778846040516121549190614320565b60405180910390a2505050565b6000803373ffffffffffffffffffffffffffffffffffffffff1673ffffffffffffffffffffffffffffffffffffffff16815260200190815260200160002060060160009054906101000a900460ff166121ef576040517f08c379a00000000000000000000000000000000000000000000000000000000081526004016121e690613f38565b60405180910390fd5b60008060003373ffffffffffffffffffffffffffffffffffffffff1673ffffffffffffffffffffffffffffffffffffffff16815260200190815260200160002090508180600001906122419190613b49565b826001019182612252929190613dc3565b508180602001906122639190613b49565b826002019182612274929190613dc3565b508180604001906122859190613b49565b826003019182612296929190613dc3565b508160600135816004018190555081608001358160050181905550818060a001906122c19190613b49565b8260070191826122d2929190613dc3565b50818060c001906122e39190613b49565b8260080191826122f4929190613dc3565b508160e00160208101906123089190613ebf565b8160090160006101000a81548160ff0219169083151502179055505050565b606060058054806020026020016040519081016040528092919081815260200182805480156123ab57602002820191906000526020600020905b8160009054906101000a900473ffffffffffffffffffffffffffffffffffffffff1673ffffffffffffffffffffffffffffffffffffffff1681526020019060010190808311612361575b5050505050905090565b600160003373ffffffffffffffffffffffffffffffffffffffff1673ffffffffffffffffffffffffffffffffffffffff16815260200190815260200160002060060160009054906101000a900460ff16612444576040517f08c379a000000000000000000000000000000000000000000000000000000000815260040161243b90613b1a565b60405180910390fd5b3373ffffffffffffffffffffffffffffffffffffffff166002600083815260200190815260200160002060020160009054906101000a900473ffffffffffffffffffffffffffffffffffffffff1673ffffffffffffffffffffffffffffffffffffffff16146124e8576040517f08c379a00000000000000000000000000000000000000000000000000000000081526004016124df906143b4565b60405180910390fd5b600060038111156124fc576124fb61389e565b5b6002600083815260200190815260200160002060060160009054906101000a900460ff1660038111156125325761253161389e565b5b14612572576040517f08c379a0000000000000000000000000000000000000000000000000000000008152600401612569906140ea565b60405180910390fd5b60016002600083815260200190815260200160002060060160006101000a81548160ff021916908360038111156125ac576125ab61389e565b5b02179055503373ffffffffffffffffffffffffffffffffffffffff16817f8b6240997bc3af56f5a9aec0408b8286fb78fb0573f2ba96445be3918511cb9360405160405180910390a350565b6004818154811061260857600080fd5b906000526020600020016000915054906101000a900473ffffffffffffffffffffffffffffffffffffffff1681565b60006020528060005260406000206000915090508060000160009054906101000a900473ffffffffffffffffffffffffffffffffffffffff169080600101805461268090613be6565b80601f01602080910402602001604051908101604052809291908181526020018280546126ac90613be6565b80156126f95780601f106126ce576101008083540402835291602001916126f9565b820191906000526020600020905b8154815290600101906020018083116126dc57829003601f168201915b50505050509080600201805461270e90613be6565b80601f016020809104026020016040519081016040528092919081815260200182805461273a90613be6565b80156127875780601f1061275c57610100808354040283529160200191612787565b820191906000526020600020905b81548152906001019060200180831161276a57829003601f168201915b50505050509080600301805461279c90613be6565b80601f01602080910402602001604051908101604052809291908181526020018280546127c890613be6565b80156128155780601f106127ea57610100808354040283529160200191612815565b820191906000526020600020905b8154815290600101906020018083116127f857829003601f168201915b5050505050908060040154908060050154908060060160009054906101000a900460ff169080600701805461284990613be6565b80601f016020809104026020016040519081016040528092919081815260200182805461287590613be6565b80156128c25780601f10612897576101008083540402835291602001916128c2565b820191906000526020600020905b8154815290600101906020018083116128a557829003601f168201915b5050505050908060080180546128d790613be6565b80601f016020809104026020016040519081016040528092919081815260200182805461290390613be6565b80156129505780601f1061292557610100808354040283529160200191612950565b820191906000526020600020905b81548152906001019060200180831161293357829003601f168201915b5050505050908060090160009054906101000a900460ff1690508a565b60608060606000806060806000600160008a73ffffffffffffffffffffffffffffffffffffffff1673ffffffffffffffffffffffffffffffffffffffff16815260200190815260200160002060060160009054906101000a900460ff16612a09576040517f08c379a0000000000000000000000000000000000000000000000000000000008152600401612a0090614420565b60405180910390fd5b6000600160008b73ffffffffffffffffffffffffffffffffffffffff1673ffffffffffffffffffffffffffffffffffffffff168152602001908152602001600020604051806101400160405290816000820160009054906101000a900473ffffffffffffffffffffffffffffffffffffffff1673ffffffffffffffffffffffffffffffffffffffff1673ffffffffffffffffffffffffffffffffffffffff168152602001600182018054612abc90613be6565b80601f0160208091040260200160405190810160405280929190818152602001828054612ae890613be6565b8015612b355780601f10612b0a57610100808354040283529160200191612b35565b820191906000526020600020905b815481529060010190602001808311612b1857829003601f168201915b50505050508152602001600282018054612b4e90613be6565b80601f0160208091040260200160405190810160405280929190818152602001828054612b7a90613be6565b8015612bc75780601f10612b9c57610100808354040283529160200191612bc7565b820191906000526020600020905b815481529060010190602001808311612baa57829003601f168201915b50505050508152602001600382018054612be090613be6565b80601f0160208091040260200160405190810160405280929190818152602001828054612c0c90613be6565b8015612c595780601f10612c2e57610100808354040283529160200191612c59565b820191906000526020600020905b815481529060010190602001808311612c3c57829003601f168201915b5050505050815260200160048201548152602001600582015481526020016006820160009054906101000a900460ff16151515158152602001600782018054612ca190613be6565b80601f0160208091040260200160405190810160405280929190818152602001828054612ccd90613be6565b8015612d1a5780601f10612cef57610100808354040283529160200191612d1a565b820191906000526020600020905b815481529060010190602001808311612cfd57829003601f168201915b50505050508152602001600882018054612d3390613be6565b80601f0160208091040260200160405190810160405280929190818152602001828054612d5f90613be6565b8015612dac5780601f10612d8157610100808354040283529160200191612dac565b820191906000526020600020905b815481529060010190602001808311612d8f57829003601f168201915b505050505081526020016009820160009054906101000a900460ff161515151581525050905080602001518160400151826060015183608001518460a001518560e001518661010001518761012001519850985098509850985098509850985050919395975091939597565b60026020528060005260406000206000915090508060000154908060010160009054906101000a900473ffffffffffffffffffffffffffffffffffffffff16908060020160009054906101000a900473ffffffffffffffffffffffffffffffffffffffff16908060030154908060040154908060050154908060060160009054906101000a900460ff16908060070154905088565b6000604051905090565b600080fd5b600080fd5b6000819050919050565b612ed481612ec1565b8114612edf57600080fd5b50565b600081359050612ef181612ecb565b92915050565b60008060408385031215612f0e57612f0d612eb7565b5b6000612f1c85828601612ee2565b9250506020612f2d85828601612ee2565b9150509250929050565b600080fd5b60006101008284031215612f5357612f52612f37565b5b81905092915050565b600060208284031215612f7257612f71612eb7565b5b600082013567ffffffffffffffff811115612f9057612f8f612ebc565b5b612f9c84828501612f3c565b91505092915050565b612fae81612ec1565b82525050565b600073ffffffffffffffffffffffffffffffffffffffff82169050919050565b6000612fdf82612fb4565b9050919050565b612fef81612fd4565b82525050565b600060a08201905061300a6000830188612fa5565b6130176020830187612fe6565b6130246040830186612fe6565b6130316060830185612fa5565b61303e6080830184612fa5565b9695505050505050565b61305181612fd4565b811461305c57600080fd5b50565b60008135905061306e81613048565b92915050565b60008060006060848603121561308d5761308c612eb7565b5b600061309b86828701612ee2565b93505060206130ac86828701612ee2565b92505060406130bd8682870161305f565b9150509250925092565b6000602082840312156130dd576130dc612eb7565b5b60006130eb8482850161305f565b91505092915050565b600081519050919050565b600082825260208201905092915050565b60005b8381101561312e578082015181840152602081019050613113565b60008484015250505050565b6000601f19601f8301169050919050565b6000613156826130f4565b61316081856130ff565b9350613170818560208601613110565b6131798161313a565b840191505092915050565b60008115159050919050565b61319981613184565b82525050565b6000610140820190506131b5600083018d612fe6565b81810360208301526131c7818c61314b565b905081810360408301526131db818b61314b565b905081810360608301526131ef818a61314b565b90506131fe6080830189612fa5565b61320b60a0830188612fa5565b61321860c0830187613190565b81810360e083015261322a818661314b565b905081810361010083015261323f818561314b565b905061324f610120830184613190565b9b9a5050505050505050505050565b600081519050919050565b600082825260208201905092915050565b6000819050602082019050919050565b61329381612fd4565b82525050565b60006132a5838361328a565b60208301905092915050565b6000602082019050919050565b60006132c98261325e565b6132d38185613269565b93506132de8361327a565b8060005b8381101561330f5781516132f68882613299565b9750613301836132b1565b9250506001810190506132e2565b5085935050505092915050565b6000602082019050818103600083015261333681846132be565b905092915050565b60006020828403121561335457613353612eb7565b5b600061336284828501612ee2565b91505092915050565b600081519050919050565b600082825260208201905092915050565b6000819050602082019050919050565b6133a081612ec1565b82525050565b60a0820160008201516133bc6000850182613397565b5060208201516133cf602085018261328a565b5060408201516133e2604085018261328a565b5060608201516133f56060850182613397565b5060808201516134086080850182613397565b50505050565b600061341a83836133a6565b60a08301905092915050565b6000602082019050919050565b600061343e8261336b565b6134488185613376565b935061345383613387565b8060005b8381101561348457815161346b888261340e565b975061347683613426565b925050600181019050613457565b5085935050505092915050565b600060208201905081810360008301526134ab8184613433565b905092915050565b60006020820190506134c86000830184612fe6565b92915050565b60006101008201905081810360008301526134e9818b61314b565b905081810360208301526134fd818a61314b565b90508181036040830152613511818961314b565b90506135206060830188612fa5565b61352d6080830187612fa5565b81810360a083015261353f818661314b565b905081810360c0830152613553818561314b565b905061356260e0830184613190565b9998505050505050505050565b60006020820190506135846000830184612fa5565b92915050565b600080fd5b600080fd5b7f4e487b7100000000000000000000000000000000000000000000000000000000600052604160045260246000fd5b6135cc8261313a565b810181811067ffffffffffffffff821117156135eb576135ea613594565b5b80604052505050565b60006135fe612ead565b905061360a82826135c3565b919050565b600067ffffffffffffffff82111561362a57613629613594565b5b6136338261313a565b9050602081019050919050565b82818337600083830152505050565b600061366261365d8461360f565b6135f4565b90508281526020810184848401111561367e5761367d61358f565b5b613689848285613640565b509392505050565b600082601f8301126136a6576136a561358a565b5b81356136b684826020860161364f565b91505092915050565b600080600080600060a086880312156136db576136da612eb7565b5b600086013567ffffffffffffffff8111156136f9576136f8612ebc565b5b61370588828901613691565b955050602086013567ffffffffffffffff81111561372657613725612ebc565b5b61373288828901613691565b945050604086013567ffffffffffffffff81111561375357613752612ebc565b5b61375f88828901613691565b935050606061377088828901612ee2565b925050608061378188828901612ee2565b9150509295509295909350565b6000806000606084860312156137a7576137a6612eb7565b5b600084013567ffffffffffffffff8111156137c5576137c4612ebc565b5b6137d186828701613691565b935050602084013567ffffffffffffffff8111156137f2576137f1612ebc565b5b6137fe86828701613691565b925050604084013567ffffffffffffffff81111561381f5761381e612ebc565b5b61382b86828701613691565b9150509250925092565b6000610100828403121561384c5761384b612f37565b5b81905092915050565b60006020828403121561386b5761386a612eb7565b5b600082013567ffffffffffffffff81111561388957613888612ebc565b5b61389584828501613835565b91505092915050565b7f4e487b7100000000000000000000000000000000000000000000000000000000600052602160045260246000fd5b600481106138de576138dd61389e565b5b50565b60008190506138ef826138cd565b919050565b60006138ff826138e1565b9050919050565b61390f816138f4565b82525050565b60006101008201905061392b600083018b612fa5565b613938602083018a612fe6565b6139456040830189612fe6565b6139526060830188612fa5565b61395f6080830187612fa5565b61396c60a0830186612fa5565b61397960c0830185613906565b61398660e0830184612fa5565b9998505050505050505050565b7f4c6f616e206e6f7420617070726f766564000000000000000000000000000000600082015250565b60006139c96011836130ff565b91506139d482613993565b602082019050919050565b600060208201905081810360008301526139f8816139bc565b9050919050565b7f4f6e6c7920626f72726f7765722063616e206d616b65207061796d656e747300600082015250565b6000613a35601f836130ff565b9150613a40826139ff565b602082019050919050565b60006020820190508181036000830152613a6481613a28565b9050919050565b7f4e487b7100000000000000000000000000000000000000000000000000000000600052601160045260246000fd5b6000613aa582612ec1565b9150613ab083612ec1565b9250828201905080821115613ac857613ac7613a6b565b5b92915050565b7f4e6f7420726567697374657265642061732061206c656e646572000000000000600082015250565b6000613b04601a836130ff565b9150613b0f82613ace565b602082019050919050565b60006020820190508181036000830152613b3381613af7565b9050919050565b600080fd5b600080fd5b600080fd5b60008083356001602003843603038112613b6657613b65613b3a565b5b80840192508235915067ffffffffffffffff821115613b8857613b87613b3f565b5b602083019250600182023603831315613ba457613ba3613b44565b5b509250929050565b600082905092915050565b7f4e487b7100000000000000000000000000000000000000000000000000000000600052602260045260246000fd5b60006002820490506001821680613bfe57607f821691505b602082108103613c1157613c10613bb7565b5b50919050565b60008190508160005260206000209050919050565b60006020601f8301049050919050565b600082821b905092915050565b600060088302613c797fffffffffffffffffffffffffffffffffffffffffffffffffffffffffffffffff82613c3c565b613c838683613c3c565b95508019841693508086168417925050509392505050565b6000819050919050565b6000613cc0613cbb613cb684612ec1565b613c9b565b612ec1565b9050919050565b6000819050919050565b613cda83613ca5565b613cee613ce682613cc7565b848454613c49565b825550505050565b600090565b613d03613cf6565b613d0e818484613cd1565b505050565b5b81811015613d3257613d27600082613cfb565b600181019050613d14565b5050565b601f821115613d7757613d4881613c17565b613d5184613c2c565b81016020851015613d60578190505b613d74613d6c85613c2c565b830182613d13565b50505b505050565b600082821c905092915050565b6000613d9a60001984600802613d7c565b1980831691505092915050565b6000613db38383613d89565b9150826002028217905092915050565b613dcd8383613bac565b67ffffffffffffffff811115613de657613de5613594565b5b613df08254613be6565b613dfb828285613d36565b6000601f831160018114613e2a5760008415613e18578287013590505b613e228582613da7565b865550613e8a565b601f198416613e3886613c17565b60005b82811015613e6057848901358255600182019150602085019450602081019050613e3b565b86831015613e7d5784890135613e79601f891682613d89565b8355505b6001600288020188555050505b50505050505050565b613e9c81613184565b8114613ea757600080fd5b50565b600081359050613eb981613e93565b92915050565b600060208284031215613ed557613ed4612eb7565b5b6000613ee384828501613eaa565b91505092915050565b7f4e6f742072656769737465726564206173206120626f72726f77657200000000600082015250565b6000613f22601c836130ff565b9150613f2d82613eec565b602082019050919050565b60006020820190508181036000830152613f5181613f15565b9050919050565b7f4c656e646572206e6f7420666f756e6400000000000000000000000000000000600082015250565b6000613f8e6010836130ff565b9150613f9982613f58565b602082019050919050565b60006020820190508181036000830152613fbd81613f81565b9050919050565b6000613fcf82612ec1565b91507fffffffffffffffffffffffffffffffffffffffffffffffffffffffffffffffff820361400157614000613a6b565b5b600182019050919050565b7f4e6f7420617574686f72697a656420746f2072656a6563742074686973206c6f60008201527f616e000000000000000000000000000000000000000000000000000000000000602082015250565b60006140686022836130ff565b91506140738261400c565b604082019050919050565b600060208201905081810360008301526140978161405b565b9050919050565b7f4c6f616e20616c72656164792070726f63657373656400000000000000000000600082015250565b60006140d46016836130ff565b91506140df8261409e565b602082019050919050565b60006020820190508181036000830152614103816140c7565b9050919050565b7f426f72726f776572206e6f742072656769737465726564000000000000000000600082015250565b60006141406017836130ff565b915061414b8261410a565b602082019050919050565b6000602082019050818103600083015261416f81614133565b9050919050565b7f416c726561647920726567697374657265642061732061206c656e6465720000600082015250565b60006141ac601e836130ff565b91506141b782614176565b602082019050919050565b600060208201905081810360008301526141db8161419f565b9050919050565b7f416c72656164792072656769737465726564206173206120626f72726f776572600082015250565b60006142186020836130ff565b9150614223826141e2565b602082019050919050565b600060208201905081810360008301526142478161420b565b9050919050565b614257826130f4565b67ffffffffffffffff8111156142705761426f613594565b5b61427a8254613be6565b614285828285613d36565b600060209050601f8311600181146142b857600084156142a6578287015190505b6142b08582613da7565b865550614318565b601f1984166142c686613c17565b60005b828110156142ee578489015182556001820191506020850194506020810190506142c9565b8683101561430b5784890151614307601f891682613d89565b8355505b6001600288020188555050505b505050505050565b6000602082019050818103600083015261433a818461314b565b905092915050565b7f4e6f7420617574686f72697a656420746f20617070726f76652074686973206c60008201527f6f616e0000000000000000000000000000000000000000000000000000000000602082015250565b600061439e6023836130ff565b91506143a982614342565b604082019050919050565b600060208201905081810360008301526143cd81614391565b9050919050565b7f4c656e646572206e6f7420726567697374657265640000000000000000000000600082015250565b600061440a6015836130ff565b9150614415826143d4565b602082019050919050565b60006020820190508181036000830152614439816143fd565b905091905056fea2646970667358221220e2dcca853396249c1687b2d6870556ec4414d972680a0486fdd6c566d006463464736f6c63430008130033",
  "linkReferences": {},
  "deployedLinkReferences": {}
}