{
  "_format": "hh-sol-artifact-1",
  "contractName": "UnifiedLending",
  "sourceName": "contracts/UnifiedLending.sol",
  "abi": [
    {
      "anonymous": false,
      "inputs": [
        {
          "indexed": true,
          "internalType": "address",
          "name": "borrower",
          "type": "address"
        },
        {
          "indexed": false,
          "internalType": "string",
          "name": "name",
          "type": "string"
        }
      ],
      "name": "BorrowerRegistered",
      "type": "event"
    },
    {
      "anonymous": false,
      "inputs": [
        {
          "indexed": true,
          "internalType": "address",
          "name": "lender",
          "type": "address"
        },
        {
          "indexed": false,
          "internalType": "string",
          "name": "name",
          "type": "string"
        }
      ],
      "name": "LenderRegistered",
      "type": "event"
    },
    {
      "anonymous": false,
      "inputs": [
        {
          "indexed": true,
          "internalType": "uint256",
          "name": "loanId",
          "type": "uint256"
        },
        {
          "indexed": true,
          "internalType": "address",
          "name": "lender",
          "type": "address"
        }
      ],
      "name": "LoanApproved",
      "type": "event"
    },
    {
      "anonymous": false,
      "inputs": [
        {
          "indexed": true,
          "internalType": "uint256",
          "name": "loanId",
          "type": "uint256"
        },
        {
          "indexed": true,
          "internalType": "address",
          "name": "borrower",
          "type": "address"
        },
        {
          "indexed": true,
          "internalType": "address",
          "name": "lender",
          "type": "address"
        },
        {
          "indexed": false,
          "internalType": "uint256",
          "name": "amount",
          "type": "uint256"
        }
      ],
      "name": "LoanRequested",
      "type": "event"
    },
    {
      "anonymous": false,
      "inputs": [
        {
          "indexed": true,
          "internalType": "uint256",
          "name": "loanId",
          "type": "uint256"
        },
        {
          "indexed": true,
          "internalType": "address",
          "name": "from",
          "type": "address"
        },
        {
          "indexed": true,
          "internalType": "address",
          "name": "to",
          "type": "address"
        },
        {
          "indexed": false,
          "internalType": "uint256",
          "name": "amount",
          "type": "uint256"
        }
      ],
      "name": "PaymentMade",
      "type": "event"
    },
    {
      "inputs": [
        {
          "internalType": "uint256",
          "name": "_loanId",
          "type": "uint256"
        }
      ],
      "name": "approveLoan",
      "outputs": [],
      "stateMutability": "nonpayable",
      "type": "function"
    },
    {
      "inputs": [
        {
          "internalType": "address",
          "name": "",
          "type": "address"
        }
      ],
      "name": "borrowers",
      "outputs": [
        {
          "internalType": "address",
          "name": "borrowerAddress",
          "type": "address"
        },
        {
          "internalType": "string",
          "name": "name",
          "type": "string"
        },
        {
          "internalType": "string",
          "name": "phone",
          "type": "string"
        },
        {
          "internalType": "string",
          "name": "email",
          "type": "string"
        },
        {
          "internalType": "string",
          "name": "addressDetails",
          "type": "string"
        },
        {
          "internalType": "uint256",
          "name": "creditScore",
          "type": "uint256"
        },
        {
          "internalType": "uint256",
          "name": "monthlyIncome",
          "type": "uint256"
        },
        {
          "internalType": "bool",
          "name": "isRegistered",
          "type": "bool"
        }
      ],
      "stateMutability": "view",
      "type": "function"
    },
    {
      "inputs": [
        {
          "internalType": "uint256",
          "name": "_loanId",
          "type": "uint256"
        }
      ],
      "name": "getTransactions",
      "outputs": [
        {
          "components": [
            {
              "internalType": "uint256",
              "name": "loanId",
              "type": "uint256"
            },
            {
              "internalType": "address",
              "name": "from",
              "type": "address"
            },
            {
              "internalType": "address",
              "name": "to",
              "type": "address"
            },
            {
              "internalType": "uint256",
              "name": "amount",
              "type": "uint256"
            },
            {
              "internalType": "uint256",
              "name": "timestamp",
              "type": "uint256"
            }
          ],
          "internalType": "struct UnifiedLending.Transaction[]",
          "name": "",
          "type": "tuple[]"
        }
      ],
      "stateMutability": "view",
      "type": "function"
    },
    {
      "inputs": [
        {
          "internalType": "address",
          "name": "",
          "type": "address"
        }
      ],
      "name": "lenders",
      "outputs": [
        {
          "internalType": "address",
          "name": "lenderAddress",
          "type": "address"
        },
        {
          "internalType": "string",
          "name": "name",
          "type": "string"
        },
        {
          "internalType": "string",
          "name": "phone",
          "type": "string"
        },
        {
          "internalType": "string",
          "name": "email",
          "type": "string"
        },
        {
          "internalType": "uint256",
          "name": "interestRate",
          "type": "uint256"
        },
        {
          "internalType": "uint256",
          "name": "monthlyIncome",
          "type": "uint256"
        },
        {
          "internalType": "bool",
          "name": "isRegistered",
          "type": "bool"
        }
      ],
      "stateMutability": "view",
      "type": "function"
    },
    {
      "inputs": [
        {
          "internalType": "uint256",
          "name": "",
          "type": "uint256"
        },
        {
          "internalType": "uint256",
          "name": "",
          "type": "uint256"
        }
      ],
      "name": "loanTransactions",
      "outputs": [
        {
          "internalType": "uint256",
          "name": "loanId",
          "type": "uint256"
        },
        {
          "internalType": "address",
          "name": "from",
          "type": "address"
        },
        {
          "internalType": "address",
          "name": "to",
          "type": "address"
        },
        {
          "internalType": "uint256",
          "name": "amount",
          "type": "uint256"
        },
        {
          "internalType": "uint256",
          "name": "timestamp",
          "type": "uint256"
        }
      ],
      "stateMutability": "view",
      "type": "function"
    },
    {
      "inputs": [
        {
          "internalType": "uint256",
          "name": "",
          "type": "uint256"
        }
      ],
      "name": "loans",
      "outputs": [
        {
          "internalType": "uint256",
          "name": "loanId",
          "type": "uint256"
        },
        {
          "internalType": "address",
          "name": "borrower",
          "type": "address"
        },
        {
          "internalType": "address",
          "name": "lender",
          "type": "address"
        },
        {
          "internalType": "uint256",
          "name": "amount",
          "type": "uint256"
        },
        {
          "internalType": "uint256",
          "name": "amountPaid",
          "type": "uint256"
        },
        {
          "internalType": "uint256",
          "name": "repaymentPeriod",
          "type": "uint256"
        },
        {
          "internalType": "enum UnifiedLending.LoanStatus",
          "name": "status",
          "type": "uint8"
        },
        {
          "internalType": "uint256",
          "name": "interestRate",
          "type": "uint256"
        }
      ],
      "stateMutability": "view",
      "type": "function"
    },
    {
      "inputs": [],
      "name": "nextLoanId",
      "outputs": [
        {
          "internalType": "uint256",
          "name": "",
          "type": "uint256"
        }
      ],
      "stateMutability": "view",
      "type": "function"
    },
    {
      "inputs": [
        {
          "internalType": "uint256",
          "name": "_loanId",
          "type": "uint256"
        },
        {
          "internalType": "uint256",
          "name": "_amount",
          "type": "uint256"
        }
      ],
      "name": "recordPayment",
      "outputs": [],
      "stateMutability": "nonpayable",
      "type": "function"
    },
    {
      "inputs": [
        {
          "internalType": "string",
          "name": "_name",
          "type": "string"
        },
        {
          "internalType": "string",
          "name": "_phone",
          "type": "string"
        },
        {
          "internalType": "string",
          "name": "_email",
          "type": "string"
        },
        {
          "internalType": "string",
          "name": "_addressDetails",
          "type": "string"
        }
      ],
      "name": "registerBorrower",
      "outputs": [],
      "stateMutability": "nonpayable",
      "type": "function"
    },
    {
      "inputs": [
        {
          "internalType": "string",
          "name": "_name",
          "type": "string"
        },
        {
          "internalType": "string",
          "name": "_phone",
          "type": "string"
        },
        {
          "internalType": "string",
          "name": "_email",
          "type": "string"
        },
        {
          "internalType": "uint256",
          "name": "_interestRate",
          "type": "uint256"
        },
        {
          "internalType": "uint256",
          "name": "_monthlyIncome",
          "type": "uint256"
        }
      ],
      "name": "registerLender",
      "outputs": [],
      "stateMutability": "nonpayable",
      "type": "function"
    },
    {
      "inputs": [
        {
          "internalType": "uint256",
          "name": "_amount",
          "type": "uint256"
        },
        {
          "internalType": "uint256",
          "name": "_repaymentPeriod",
          "type": "uint256"
        },
        {
          "internalType": "address",
          "name": "_lender",
          "type": "address"
        }
      ],
      "name": "requestLoan",
      "outputs": [],
      "stateMutability": "nonpayable",
      "type": "function"
    }
  ],
  "bytecode": "0x6080604052600160045534801561001557600080fd5b506129bd806100256000396000f3fe608060405234801561001057600080fd5b50600436106100a95760003560e01c80635742177c116100715780635742177c1461016c57806387c514591461019c57806389e5a599146101ba578063aadc1ac1146101d6578063bf5d50c4146101f2578063e1ec3c6814610229576100a9565b80630b879bc2146100ae57806318ae50fd146100ca5780631de96234146100fe57806322385ed41461011a57806328fd10d714610136575b600080fd5b6100c860048036038101906100c391906118d7565b610260565b005b6100e460048036038101906100df91906118d7565b610641565b6040516100f5959493929190611967565b60405180910390f35b61011860048036038101906101139190611b00565b6106d4565b005b610134600480360381019061012f9190611c03565b6109b0565b005b610150600480360381019061014b9190611c56565b610d18565b6040516101639796959493929190611d1d565b60405180910390f35b61018660048036038101906101819190611da1565b610f1f565b6040516101939190611f03565b60405180910390f35b6101a461105b565b6040516101b19190611f25565b60405180910390f35b6101d460048036038101906101cf9190611f40565b611061565b005b6101f060048036038101906101eb9190611da1565b611320565b005b61020c60048036038101906102079190611c56565b611563565b60405161022098979695949392919061200f565b60405180910390f35b610243600480360381019061023e9190611da1565b6117f8565b604051610257989796959493929190612120565b60405180910390f35b60016003811115610274576102736120a9565b5b6002600084815260200190815260200160002060060160009054906101000a900460ff1660038111156102aa576102a96120a9565b5b146102ea576040517f08c379a00000000000000000000000000000000000000000000000000000000081526004016102e1906121ea565b60405180910390fd5b6002600083815260200190815260200160002060010160009054906101000a900473ffffffffffffffffffffffffffffffffffffffff1673ffffffffffffffffffffffffffffffffffffffff163373ffffffffffffffffffffffffffffffffffffffff161461038e576040517f08c379a000000000000000000000000000000000000000000000000000000000815260040161038590612256565b60405180910390fd5b806002600084815260200190815260200160002060040160008282546103b491906122a5565b92505081905550600360008381526020019081526020016000206040518060a001604052808481526020013373ffffffffffffffffffffffffffffffffffffffff1681526020016002600086815260200190815260200160002060020160009054906101000a900473ffffffffffffffffffffffffffffffffffffffff1673ffffffffffffffffffffffffffffffffffffffff1681526020018381526020014281525090806001815401808255809150506001900390600052602060002090600502016000909190919091506000820151816000015560208201518160010160006101000a81548173ffffffffffffffffffffffffffffffffffffffff021916908373ffffffffffffffffffffffffffffffffffffffff16021790555060408201518160020160006101000a81548173ffffffffffffffffffffffffffffffffffffffff021916908373ffffffffffffffffffffffffffffffffffffffff1602179055506060820151816003015560808201518160040155505060026000838152602001908152602001600020600301546002600084815260200190815260200160002060040154106105a15760036002600084815260200190815260200160002060060160006101000a81548160ff0219169083600381111561059b5761059a6120a9565b5b02179055505b6002600083815260200190815260200160002060020160009054906101000a900473ffffffffffffffffffffffffffffffffffffffff1673ffffffffffffffffffffffffffffffffffffffff163373ffffffffffffffffffffffffffffffffffffffff16837fd51bb0381ff8d9476c9493a30eafdb1966dca4b0c0db1a2d4e244a3a8b16ffb8846040516106359190611f25565b60405180910390a45050565b6003602052816000526040600020818154811061065d57600080fd5b9060005260206000209060050201600091509150508060000154908060010160009054906101000a900473ffffffffffffffffffffffffffffffffffffffff16908060020160009054906101000a900473ffffffffffffffffffffffffffffffffffffffff16908060030154908060040154905085565b6000803373ffffffffffffffffffffffffffffffffffffffff1673ffffffffffffffffffffffffffffffffffffffff16815260200190815260200160002060070160009054906101000a900460ff1615610763576040517f08c379a000000000000000000000000000000000000000000000000000000000815260040161075a90612325565b60405180910390fd5b600160003373ffffffffffffffffffffffffffffffffffffffff1673ffffffffffffffffffffffffffffffffffffffff16815260200190815260200160002060060160009054906101000a900460ff16156107f3576040517f08c379a00000000000000000000000000000000000000000000000000000000081526004016107ea90612391565b60405180910390fd5b6040518061010001604052803373ffffffffffffffffffffffffffffffffffffffff1681526020018581526020018481526020018381526020018281526020016000815260200160008152602001600115158152506000803373ffffffffffffffffffffffffffffffffffffffff1673ffffffffffffffffffffffffffffffffffffffff16815260200190815260200160002060008201518160000160006101000a81548173ffffffffffffffffffffffffffffffffffffffff021916908373ffffffffffffffffffffffffffffffffffffffff16021790555060208201518160010190816108e291906125bd565b5060408201518160020190816108f891906125bd565b50606082015181600301908161090e91906125bd565b50608082015181600401908161092491906125bd565b5060a0820151816005015560c0820151816006015560e08201518160070160006101000a81548160ff0219169083151502179055509050503373ffffffffffffffffffffffffffffffffffffffff167fad7643ffda2662b73e08209d1aad3fd64491a9e3818d06f4e7d24d0df9759778856040516109a2919061268f565b60405180910390a250505050565b6000803373ffffffffffffffffffffffffffffffffffffffff1673ffffffffffffffffffffffffffffffffffffffff16815260200190815260200160002060070160009054906101000a900460ff16610a3e576040517f08c379a0000000000000000000000000000000000000000000000000000000008152600401610a3590612723565b60405180910390fd5b600160008273ffffffffffffffffffffffffffffffffffffffff1673ffffffffffffffffffffffffffffffffffffffff16815260200190815260200160002060060160009054906101000a900460ff16610acd576040517f08c379a0000000000000000000000000000000000000000000000000000000008152600401610ac49061278f565b60405180910390fd5b60405180610100016040528060045481526020013373ffffffffffffffffffffffffffffffffffffffff1681526020018273ffffffffffffffffffffffffffffffffffffffff1681526020018481526020016000815260200183815260200160006003811115610b4057610b3f6120a9565b5b8152602001600160008473ffffffffffffffffffffffffffffffffffffffff1673ffffffffffffffffffffffffffffffffffffffff168152602001908152602001600020600401548152506002600060045481526020019081526020016000206000820151816000015560208201518160010160006101000a81548173ffffffffffffffffffffffffffffffffffffffff021916908373ffffffffffffffffffffffffffffffffffffffff16021790555060408201518160020160006101000a81548173ffffffffffffffffffffffffffffffffffffffff021916908373ffffffffffffffffffffffffffffffffffffffff160217905550606082015181600301556080820151816004015560a0820151816005015560c08201518160060160006101000a81548160ff02191690836003811115610c8157610c806120a9565b5b021790555060e082015181600701559050508073ffffffffffffffffffffffffffffffffffffffff163373ffffffffffffffffffffffffffffffffffffffff166004547fdc60aa6fe6ea1316bf5acc811851e823e68d2aa48e0b9e4ecc3650b38b9303f686604051610cf39190611f25565b60405180910390a460046000815480929190610d0e906127af565b9190505550505050565b60016020528060005260406000206000915090508060000160009054906101000a900473ffffffffffffffffffffffffffffffffffffffff1690806001018054610d61906123e0565b80601f0160208091040260200160405190810160405280929190818152602001828054610d8d906123e0565b8015610dda5780601f10610daf57610100808354040283529160200191610dda565b820191906000526020600020905b815481529060010190602001808311610dbd57829003601f168201915b505050505090806002018054610def906123e0565b80601f0160208091040260200160405190810160405280929190818152602001828054610e1b906123e0565b8015610e685780601f10610e3d57610100808354040283529160200191610e68565b820191906000526020600020905b815481529060010190602001808311610e4b57829003601f168201915b505050505090806003018054610e7d906123e0565b80601f0160208091040260200160405190810160405280929190818152602001828054610ea9906123e0565b8015610ef65780601f10610ecb57610100808354040283529160200191610ef6565b820191906000526020600020905b815481529060010190602001808311610ed957829003601f168201915b5050505050908060040154908060050154908060060160009054906101000a900460ff16905087565b606060036000838152602001908152602001600020805480602002602001604051908101604052809291908181526020016000905b8282101561105057838290600052602060002090600502016040518060a0016040529081600082015481526020016001820160009054906101000a900473ffffffffffffffffffffffffffffffffffffffff1673ffffffffffffffffffffffffffffffffffffffff1673ffffffffffffffffffffffffffffffffffffffff1681526020016002820160009054906101000a900473ffffffffffffffffffffffffffffffffffffffff1673ffffffffffffffffffffffffffffffffffffffff1673ffffffffffffffffffffffffffffffffffffffff1681526020016003820154815260200160048201548152505081526020019060010190610f54565b505050509050919050565b60045481565b600160003373ffffffffffffffffffffffffffffffffffffffff1673ffffffffffffffffffffffffffffffffffffffff16815260200190815260200160002060060160009054906101000a900460ff16156110f1576040517f08c379a00000000000000000000000000000000000000000000000000000000081526004016110e890612391565b60405180910390fd5b6000803373ffffffffffffffffffffffffffffffffffffffff1673ffffffffffffffffffffffffffffffffffffffff16815260200190815260200160002060070160009054906101000a900460ff1615611180576040517f08c379a000000000000000000000000000000000000000000000000000000000815260040161117790612325565b60405180910390fd5b6040518060e001604052803373ffffffffffffffffffffffffffffffffffffffff16815260200186815260200185815260200184815260200183815260200182815260200160011515815250600160003373ffffffffffffffffffffffffffffffffffffffff1673ffffffffffffffffffffffffffffffffffffffff16815260200190815260200160002060008201518160000160006101000a81548173ffffffffffffffffffffffffffffffffffffffff021916908373ffffffffffffffffffffffffffffffffffffffff160217905550602082015181600101908161126791906125bd565b50604082015181600201908161127d91906125bd565b50606082015181600301908161129391906125bd565b506080820151816004015560a0820151816005015560c08201518160060160006101000a81548160ff0219169083151502179055509050503373ffffffffffffffffffffffffffffffffffffffff167fc3f44b19b0cf208e98a093111600b89bc42261326cf162a821382b148b093f8c86604051611311919061268f565b60405180910390a25050505050565b600160003373ffffffffffffffffffffffffffffffffffffffff1673ffffffffffffffffffffffffffffffffffffffff16815260200190815260200160002060060160009054906101000a900460ff166113af576040517f08c379a00000000000000000000000000000000000000000000000000000000081526004016113a690612869565b60405180910390fd5b3373ffffffffffffffffffffffffffffffffffffffff166002600083815260200190815260200160002060020160009054906101000a900473ffffffffffffffffffffffffffffffffffffffff1673ffffffffffffffffffffffffffffffffffffffff1614611453576040517f08c379a000000000000000000000000000000000000000000000000000000000815260040161144a906128fb565b60405180910390fd5b60006003811115611467576114666120a9565b5b6002600083815260200190815260200160002060060160009054906101000a900460ff16600381111561149d5761149c6120a9565b5b146114dd576040517f08c379a00000000000000000000000000000000000000000000000000000000081526004016114d490612967565b60405180910390fd5b60016002600083815260200190815260200160002060060160006101000a81548160ff02191690836003811115611517576115166120a9565b5b02179055503373ffffffffffffffffffffffffffffffffffffffff16817f8b6240997bc3af56f5a9aec0408b8286fb78fb0573f2ba96445be3918511cb9360405160405180910390a350565b60006020528060005260406000206000915090508060000160009054906101000a900473ffffffffffffffffffffffffffffffffffffffff16908060010180546115ac906123e0565b80601f01602080910402602001604051908101604052809291908181526020018280546115d8906123e0565b80156116255780601f106115fa57610100808354040283529160200191611625565b820191906000526020600020905b81548152906001019060200180831161160857829003601f168201915b50505050509080600201805461163a906123e0565b80601f0160208091040260200160405190810160405280929190818152602001828054611666906123e0565b80156116b35780601f10611688576101008083540402835291602001916116b3565b820191906000526020600020905b81548152906001019060200180831161169657829003601f168201915b5050505050908060030180546116c8906123e0565b80601f01602080910402602001604051908101604052809291908181526020018280546116f4906123e0565b80156117415780601f1061171657610100808354040283529160200191611741565b820191906000526020600020905b81548152906001019060200180831161172457829003601f168201915b505050505090806004018054611756906123e0565b80601f0160208091040260200160405190810160405280929190818152602001828054611782906123e0565b80156117cf5780601f106117a4576101008083540402835291602001916117cf565b820191906000526020600020905b8154815290600101906020018083116117b257829003601f168201915b5050505050908060050154908060060154908060070160009054906101000a900460ff16905088565b60026020528060005260406000206000915090508060000154908060010160009054906101000a900473ffffffffffffffffffffffffffffffffffffffff16908060020160009054906101000a900473ffffffffffffffffffffffffffffffffffffffff16908060030154908060040154908060050154908060060160009054906101000a900460ff16908060070154905088565b6000604051905090565b600080fd5b600080fd5b6000819050919050565b6118b4816118a1565b81146118bf57600080fd5b50565b6000813590506118d1816118ab565b92915050565b600080604083850312156118ee576118ed611897565b5b60006118fc858286016118c2565b925050602061190d858286016118c2565b9150509250929050565b611920816118a1565b82525050565b600073ffffffffffffffffffffffffffffffffffffffff82169050919050565b600061195182611926565b9050919050565b61196181611946565b82525050565b600060a08201905061197c6000830188611917565b6119896020830187611958565b6119966040830186611958565b6119a36060830185611917565b6119b06080830184611917565b9695505050505050565b600080fd5b600080fd5b6000601f19601f8301169050919050565b7f4e487b7100000000000000000000000000000000000000000000000000000000600052604160045260246000fd5b611a0d826119c4565b810181811067ffffffffffffffff82111715611a2c57611a2b6119d5565b5b80604052505050565b6000611a3f61188d565b9050611a4b8282611a04565b919050565b600067ffffffffffffffff821115611a6b57611a6a6119d5565b5b611a74826119c4565b9050602081019050919050565b82818337600083830152505050565b6000611aa3611a9e84611a50565b611a35565b905082815260208101848484011115611abf57611abe6119bf565b5b611aca848285611a81565b509392505050565b600082601f830112611ae757611ae66119ba565b5b8135611af7848260208601611a90565b91505092915050565b60008060008060808587031215611b1a57611b19611897565b5b600085013567ffffffffffffffff811115611b3857611b3761189c565b5b611b4487828801611ad2565b945050602085013567ffffffffffffffff811115611b6557611b6461189c565b5b611b7187828801611ad2565b935050604085013567ffffffffffffffff811115611b9257611b9161189c565b5b611b9e87828801611ad2565b925050606085013567ffffffffffffffff811115611bbf57611bbe61189c565b5b611bcb87828801611ad2565b91505092959194509250565b611be081611946565b8114611beb57600080fd5b50565b600081359050611bfd81611bd7565b92915050565b600080600060608486031215611c1c57611c1b611897565b5b6000611c2a868287016118c2565b9350506020611c3b868287016118c2565b9250506040611c4c86828701611bee565b9150509250925092565b600060208284031215611c6c57611c6b611897565b5b6000611c7a84828501611bee565b91505092915050565b600081519050919050565b600082825260208201905092915050565b60005b83811015611cbd578082015181840152602081019050611ca2565b60008484015250505050565b6000611cd482611c83565b611cde8185611c8e565b9350611cee818560208601611c9f565b611cf7816119c4565b840191505092915050565b60008115159050919050565b611d1781611d02565b82525050565b600060e082019050611d32600083018a611958565b8181036020830152611d448189611cc9565b90508181036040830152611d588188611cc9565b90508181036060830152611d6c8187611cc9565b9050611d7b6080830186611917565b611d8860a0830185611917565b611d9560c0830184611d0e565b98975050505050505050565b600060208284031215611db757611db6611897565b5b6000611dc5848285016118c2565b91505092915050565b600081519050919050565b600082825260208201905092915050565b6000819050602082019050919050565b611e03816118a1565b82525050565b611e1281611946565b82525050565b60a082016000820151611e2e6000850182611dfa565b506020820151611e416020850182611e09565b506040820151611e546040850182611e09565b506060820151611e676060850182611dfa565b506080820151611e7a6080850182611dfa565b50505050565b6000611e8c8383611e18565b60a08301905092915050565b6000602082019050919050565b6000611eb082611dce565b611eba8185611dd9565b9350611ec583611dea565b8060005b83811015611ef6578151611edd8882611e80565b9750611ee883611e98565b925050600181019050611ec9565b5085935050505092915050565b60006020820190508181036000830152611f1d8184611ea5565b905092915050565b6000602082019050611f3a6000830184611917565b92915050565b600080600080600060a08688031215611f5c57611f5b611897565b5b600086013567ffffffffffffffff811115611f7a57611f7961189c565b5b611f8688828901611ad2565b955050602086013567ffffffffffffffff811115611fa757611fa661189c565b5b611fb388828901611ad2565b945050604086013567ffffffffffffffff811115611fd457611fd361189c565b5b611fe088828901611ad2565b9350506060611ff1888289016118c2565b9250506080612002888289016118c2565b9150509295509295909350565b600061010082019050612025600083018b611958565b8181036020830152612037818a611cc9565b9050818103604083015261204b8189611cc9565b9050818103606083015261205f8188611cc9565b905081810360808301526120738187611cc9565b905061208260a0830186611917565b61208f60c0830185611917565b61209c60e0830184611d0e565b9998505050505050505050565b7f4e487b7100000000000000000000000000000000000000000000000000000000600052602160045260246000fd5b600481106120e9576120e86120a9565b5b50565b60008190506120fa826120d8565b919050565b600061210a826120ec565b9050919050565b61211a816120ff565b82525050565b600061010082019050612136600083018b611917565b612143602083018a611958565b6121506040830189611958565b61215d6060830188611917565b61216a6080830187611917565b61217760a0830186611917565b61218460c0830185612111565b61219160e0830184611917565b9998505050505050505050565b7f4c6f616e206e6f7420617070726f766564000000000000000000000000000000600082015250565b60006121d4601183611c8e565b91506121df8261219e565b602082019050919050565b60006020820190508181036000830152612203816121c7565b9050919050565b7f4f6e6c7920626f72726f7765722063616e206d616b65207061796d656e747300600082015250565b6000612240601f83611c8e565b915061224b8261220a565b602082019050919050565b6000602082019050818103600083015261226f81612233565b9050919050565b7f4e487b7100000000000000000000000000000000000000000000000000000000600052601160045260246000fd5b60006122b0826118a1565b91506122bb836118a1565b92508282019050808211156122d3576122d2612276565b5b92915050565b7f416c72656164792072656769737465726564206173206120626f72726f776572600082015250565b600061230f602083611c8e565b915061231a826122d9565b602082019050919050565b6000602082019050818103600083015261233e81612302565b9050919050565b7f416c726561647920726567697374657265642061732061206c656e6465720000600082015250565b600061237b601e83611c8e565b915061238682612345565b602082019050919050565b600060208201905081810360008301526123aa8161236e565b9050919050565b7f4e487b7100000000000000000000000000000000000000000000000000000000600052602260045260246000fd5b600060028204905060018216806123f857607f821691505b60208210810361240b5761240a6123b1565b5b50919050565b60008190508160005260206000209050919050565b60006020601f8301049050919050565b600082821b905092915050565b6000600883026124737fffffffffffffffffffffffffffffffffffffffffffffffffffffffffffffffff82612436565b61247d8683612436565b95508019841693508086168417925050509392505050565b6000819050919050565b60006124ba6124b56124b0846118a1565b612495565b6118a1565b9050919050565b6000819050919050565b6124d48361249f565b6124e86124e0826124c1565b848454612443565b825550505050565b600090565b6124fd6124f0565b6125088184846124cb565b505050565b5b8181101561252c576125216000826124f5565b60018101905061250e565b5050565b601f8211156125715761254281612411565b61254b84612426565b8101602085101561255a578190505b61256e61256685612426565b83018261250d565b50505b505050565b600082821c905092915050565b600061259460001984600802612576565b1980831691505092915050565b60006125ad8383612583565b9150826002028217905092915050565b6125c682611c83565b67ffffffffffffffff8111156125df576125de6119d5565b5b6125e982546123e0565b6125f4828285612530565b600060209050601f8311600181146126275760008415612615578287015190505b61261f85826125a1565b865550612687565b601f19841661263586612411565b60005b8281101561265d57848901518255600182019150602085019450602081019050612638565b8683101561267a5784890151612676601f891682612583565b8355505b6001600288020188555050505b505050505050565b600060208201905081810360008301526126a98184611cc9565b905092915050565b7f4f6e6c79207265676973746572656420626f72726f776572732063616e20726560008201527f7175657374206c6f616e73000000000000000000000000000000000000000000602082015250565b600061270d602b83611c8e565b9150612718826126b1565b604082019050919050565b6000602082019050818103600083015261273c81612700565b9050919050565b7f4c656e646572206e6f7420666f756e6400000000000000000000000000000000600082015250565b6000612779601083611c8e565b915061278482612743565b602082019050919050565b600060208201905081810360008301526127a88161276c565b9050919050565b60006127ba826118a1565b91507fffffffffffffffffffffffffffffffffffffffffffffffffffffffffffffffff82036127ec576127eb612276565b5b600182019050919050565b7f4f6e6c792072656769737465726564206c656e646572732063616e206170707260008201527f6f7665206c6f616e730000000000000000000000000000000000000000000000602082015250565b6000612853602983611c8e565b915061285e826127f7565b604082019050919050565b6000602082019050818103600083015261288281612846565b9050919050565b7f4e6f7420617574686f72697a656420746f20617070726f76652074686973206c60008201527f6f616e0000000000000000000000000000000000000000000000000000000000602082015250565b60006128e5602383611c8e565b91506128f082612889565b604082019050919050565b60006020820190508181036000830152612914816128d8565b9050919050565b7f4c6f616e20616c72656164792070726f63657373656400000000000000000000600082015250565b6000612951601683611c8e565b915061295c8261291b565b602082019050919050565b6000602082019050818103600083015261298081612944565b905091905056fea2646970667358221220c77d409f14eb860a7c1ae446228de68174ea7ac0a225b79a1df493c7bba7568064736f6c63430008130033",
  "linkReferences": {},
  "deployedLinkReferences": {}
}