{
  "_format": "hh-sol-artifact-1",
  "contractName": "UnifiedLending",
  "sourceName": "contracts/UnifiedLending.sol",
  "abi": [
    {
      "anonymous": false,
      "inputs": [
        {
          "indexed": true,
          "internalType": "address",
          "name": "borrower",
          "type": "address"
        },
        {
          "indexed": false,
          "internalType": "string",
          "name": "name",
          "type": "string"
        },
        {
          "indexed": false,
          "internalType": "string",
          "name": "email",
          "type": "string"
        }
      ],
      "name": "BorrowerRegistered",
      "type": "event"
    },
    {
      "anonymous": false,
      "inputs": [
        {
          "indexed": true,
          "internalType": "address",
          "name": "borrower",
          "type": "address"
        },
        {
          "indexed": false,
          "internalType": "string",
          "name": "name",
          "type": "string"
        },
        {
          "indexed": false,
          "internalType": "string",
          "name": "email",
          "type": "string"
        }
      ],
      "name": "BorrowerUpdated",
      "type": "event"
    },
    {
      "anonymous": false,
      "inputs": [
        {
          "indexed": true,
          "internalType": "address",
          "name": "lender",
          "type": "address"
        },
        {
          "indexed": false,
          "internalType": "string",
          "name": "name",
          "type": "string"
        },
        {
          "indexed": false,
          "internalType": "string",
          "name": "email",
          "type": "string"
        }
      ],
      "name": "LenderRegistered",
      "type": "event"
    },
    {
      "anonymous": false,
      "inputs": [
        {
          "indexed": true,
          "internalType": "address",
          "name": "lender",
          "type": "address"
        },
        {
          "indexed": false,
          "internalType": "string",
          "name": "name",
          "type": "string"
        },
        {
          "indexed": false,
          "internalType": "string",
          "name": "email",
          "type": "string"
        }
      ],
      "name": "LenderUpdated",
      "type": "event"
    },
    {
      "inputs": [
        {
          "internalType": "uint256",
          "name": "",
          "type": "uint256"
        }
      ],
      "name": "borrowerList",
      "outputs": [
        {
          "internalType": "address",
          "name": "borrowerAddress",
          "type": "address"
        },
        {
          "internalType": "string",
          "name": "name",
          "type": "string"
        },
        {
          "internalType": "string",
          "name": "phone",
          "type": "string"
        },
        {
          "internalType": "string",
          "name": "email",
          "type": "string"
        },
        {
          "internalType": "string",
          "name": "addressDetails",
          "type": "string"
        },
        {
          "internalType": "string",
          "name": "dob",
          "type": "string"
        },
        {
          "internalType": "bool",
          "name": "isRegistered",
          "type": "bool"
        }
      ],
      "stateMutability": "view",
      "type": "function"
    },
    {
      "inputs": [
        {
          "internalType": "address",
          "name": "",
          "type": "address"
        }
      ],
      "name": "borrowers",
      "outputs": [
        {
          "internalType": "address",
          "name": "borrowerAddress",
          "type": "address"
        },
        {
          "internalType": "string",
          "name": "name",
          "type": "string"
        },
        {
          "internalType": "string",
          "name": "phone",
          "type": "string"
        },
        {
          "internalType": "string",
          "name": "email",
          "type": "string"
        },
        {
          "internalType": "string",
          "name": "addressDetails",
          "type": "string"
        },
        {
          "internalType": "string",
          "name": "dob",
          "type": "string"
        },
        {
          "internalType": "bool",
          "name": "isRegistered",
          "type": "bool"
        }
      ],
      "stateMutability": "view",
      "type": "function"
    },
    {
      "inputs": [],
      "name": "getAllBorrowers",
      "outputs": [
        {
          "components": [
            {
              "internalType": "address",
              "name": "borrowerAddress",
              "type": "address"
            },
            {
              "internalType": "string",
              "name": "name",
              "type": "string"
            },
            {
              "internalType": "string",
              "name": "phone",
              "type": "string"
            },
            {
              "internalType": "string",
              "name": "email",
              "type": "string"
            },
            {
              "internalType": "string",
              "name": "addressDetails",
              "type": "string"
            },
            {
              "internalType": "string",
              "name": "dob",
              "type": "string"
            },
            {
              "internalType": "bool",
              "name": "isRegistered",
              "type": "bool"
            }
          ],
          "internalType": "struct UnifiedLending.Borrower[]",
          "name": "",
          "type": "tuple[]"
        }
      ],
      "stateMutability": "view",
      "type": "function"
    },
    {
      "inputs": [],
      "name": "getAllLenders",
      "outputs": [
        {
          "components": [
            {
              "internalType": "address",
              "name": "lenderAddress",
              "type": "address"
            },
            {
              "internalType": "string",
              "name": "name",
              "type": "string"
            },
            {
              "internalType": "string",
              "name": "phone",
              "type": "string"
            },
            {
              "internalType": "string",
              "name": "email",
              "type": "string"
            },
            {
              "internalType": "bool",
              "name": "isRegistered",
              "type": "bool"
            }
          ],
          "internalType": "struct UnifiedLending.Lender[]",
          "name": "",
          "type": "tuple[]"
        }
      ],
      "stateMutability": "view",
      "type": "function"
    },
    {
      "inputs": [
        {
          "internalType": "address",
          "name": "_borrower",
          "type": "address"
        }
      ],
      "name": "getBorrower",
      "outputs": [
        {
          "components": [
            {
              "internalType": "address",
              "name": "borrowerAddress",
              "type": "address"
            },
            {
              "internalType": "string",
              "name": "name",
              "type": "string"
            },
            {
              "internalType": "string",
              "name": "phone",
              "type": "string"
            },
            {
              "internalType": "string",
              "name": "email",
              "type": "string"
            },
            {
              "internalType": "string",
              "name": "addressDetails",
              "type": "string"
            },
            {
              "internalType": "string",
              "name": "dob",
              "type": "string"
            },
            {
              "internalType": "bool",
              "name": "isRegistered",
              "type": "bool"
            }
          ],
          "internalType": "struct UnifiedLending.Borrower",
          "name": "",
          "type": "tuple"
        }
      ],
      "stateMutability": "view",
      "type": "function"
    },
    {
      "inputs": [
        {
          "internalType": "address",
          "name": "_lender",
          "type": "address"
        }
      ],
      "name": "getLender",
      "outputs": [
        {
          "components": [
            {
              "internalType": "address",
              "name": "lenderAddress",
              "type": "address"
            },
            {
              "internalType": "string",
              "name": "name",
              "type": "string"
            },
            {
              "internalType": "string",
              "name": "phone",
              "type": "string"
            },
            {
              "internalType": "string",
              "name": "email",
              "type": "string"
            },
            {
              "internalType": "bool",
              "name": "isRegistered",
              "type": "bool"
            }
          ],
          "internalType": "struct UnifiedLending.Lender",
          "name": "",
          "type": "tuple"
        }
      ],
      "stateMutability": "view",
      "type": "function"
    },
    {
      "inputs": [
        {
          "internalType": "uint256",
          "name": "",
          "type": "uint256"
        }
      ],
      "name": "lenderList",
      "outputs": [
        {
          "internalType": "address",
          "name": "lenderAddress",
          "type": "address"
        },
        {
          "internalType": "string",
          "name": "name",
          "type": "string"
        },
        {
          "internalType": "string",
          "name": "phone",
          "type": "string"
        },
        {
          "internalType": "string",
          "name": "email",
          "type": "string"
        },
        {
          "internalType": "bool",
          "name": "isRegistered",
          "type": "bool"
        }
      ],
      "stateMutability": "view",
      "type": "function"
    },
    {
      "inputs": [
        {
          "internalType": "address",
          "name": "",
          "type": "address"
        }
      ],
      "name": "lenders",
      "outputs": [
        {
          "internalType": "address",
          "name": "lenderAddress",
          "type": "address"
        },
        {
          "internalType": "string",
          "name": "name",
          "type": "string"
        },
        {
          "internalType": "string",
          "name": "phone",
          "type": "string"
        },
        {
          "internalType": "string",
          "name": "email",
          "type": "string"
        },
        {
          "internalType": "bool",
          "name": "isRegistered",
          "type": "bool"
        }
      ],
      "stateMutability": "view",
      "type": "function"
    },
    {
      "inputs": [
        {
          "internalType": "string",
          "name": "_name",
          "type": "string"
        },
        {
          "internalType": "string",
          "name": "_phone",
          "type": "string"
        },
        {
          "internalType": "string",
          "name": "_email",
          "type": "string"
        },
        {
          "internalType": "string",
          "name": "_addressDetails",
          "type": "string"
        },
        {
          "internalType": "string",
          "name": "_dob",
          "type": "string"
        }
      ],
      "name": "registerBorrower",
      "outputs": [],
      "stateMutability": "nonpayable",
      "type": "function"
    },
    {
      "inputs": [
        {
          "internalType": "string",
          "name": "_name",
          "type": "string"
        },
        {
          "internalType": "string",
          "name": "_phone",
          "type": "string"
        },
        {
          "internalType": "string",
          "name": "_email",
          "type": "string"
        }
      ],
      "name": "registerLender",
      "outputs": [],
      "stateMutability": "nonpayable",
      "type": "function"
    },
    {
      "inputs": [
        {
          "internalType": "string",
          "name": "_name",
          "type": "string"
        },
        {
          "internalType": "string",
          "name": "_phone",
          "type": "string"
        },
        {
          "internalType": "string",
          "name": "_email",
          "type": "string"
        },
        {
          "internalType": "string",
          "name": "_addressDetails",
          "type": "string"
        },
        {
          "internalType": "string",
          "name": "_dob",
          "type": "string"
        }
      ],
      "name": "updateBorrower",
      "outputs": [],
      "stateMutability": "nonpayable",
      "type": "function"
    },
    {
      "inputs": [
        {
          "internalType": "string",
          "name": "_name",
          "type": "string"
        },
        {
          "internalType": "string",
          "name": "_phone",
          "type": "string"
        },
        {
          "internalType": "string",
          "name": "_email",
          "type": "string"
        }
      ],
      "name": "updateLender",
      "outputs": [],
      "stateMutability": "nonpayable",
      "type": "function"
    }
  ],
  "bytecode": "0x608060405234801561001057600080fd5b50613c71806100206000396000f3fe608060405234801561001057600080fd5b50600436106100b45760003560e01c80637a8ae3b5116100715780637a8ae3b5146101a7578063a1666b54146101c3578063ad5b3642146101e1578063b08cddda14610211578063b3a665241461022d578063bf5d50c414610263576100b4565b806326b4ec45146100b957806328fd10d7146100d557806332abcdbe14610109578063527d5906146101275780636085c7df146101575780636b006dd31461018b575b600080fd5b6100d360048036038101906100ce9190612bcf565b610299565b005b6100ef60048036038101906100ea9190612d34565b6106e1565b604051610100959493929190612e0a565b60405180910390f35b6101116108dc565b60405161011e9190613054565b60405180910390f35b610141600480360381019061013c9190612d34565b610c86565b60405161014e91906130fa565b60405180910390f35b610171600480360381019061016c9190613152565b610f95565b604051610182959493929190612e0a565b60405180910390f35b6101a560048036038101906101a09190612bcf565b6111a0565b005b6101c160048036038101906101bc919061317f565b611581565b005b6101cb6118fd565b6040516101d8919061336c565b60405180910390f35b6101fb60048036038101906101f69190612d34565b611b83565b6040516102089190613446565b60405180910390f35b61022b6004803603810190610226919061317f565b611fb4565b005b61024760048036038101906102429190613152565b61239b565b60405161025a9796959493929190613468565b60405180910390f35b61027d60048036038101906102789190612d34565b6126c2565b6040516102909796959493929190613468565b60405180910390f35b6000803373ffffffffffffffffffffffffffffffffffffffff1673ffffffffffffffffffffffffffffffffffffffff16815260200190815260200160002060060160009054906101000a900460ff16610327576040517f08c379a000000000000000000000000000000000000000000000000000000000815260040161031e90613546565b60405180910390fd5b6040518060e001604052803373ffffffffffffffffffffffffffffffffffffffff168152602001868152602001858152602001848152602001838152602001828152602001600115158152506000803373ffffffffffffffffffffffffffffffffffffffff1673ffffffffffffffffffffffffffffffffffffffff16815260200190815260200160002060008201518160000160006101000a81548173ffffffffffffffffffffffffffffffffffffffff021916908373ffffffffffffffffffffffffffffffffffffffff160217905550602082015181600101908161040d9190613772565b5060408201518160020190816104239190613772565b5060608201518160030190816104399190613772565b50608082015181600401908161044f9190613772565b5060a08201518160050190816104659190613772565b5060c08201518160060160006101000a81548160ff02191690831515021790555090505060005b600280549050811015610689573373ffffffffffffffffffffffffffffffffffffffff16600282815481106104c4576104c3613844565b5b906000526020600020906007020160000160009054906101000a900473ffffffffffffffffffffffffffffffffffffffff1673ffffffffffffffffffffffffffffffffffffffff1603610676576000803373ffffffffffffffffffffffffffffffffffffffff1673ffffffffffffffffffffffffffffffffffffffff1681526020019081526020016000206002828154811061056357610562613844565b5b90600052602060002090600702016000820160009054906101000a900473ffffffffffffffffffffffffffffffffffffffff168160000160006101000a81548173ffffffffffffffffffffffffffffffffffffffff021916908373ffffffffffffffffffffffffffffffffffffffff160217905550600182018160010190816105ec9190613889565b50600282018160020190816106019190613889565b50600382018160030190816106169190613889565b506004820181600401908161062b9190613889565b50600582018160050190816106409190613889565b506006820160009054906101000a900460ff168160060160006101000a81548160ff021916908315150217905550905050610689565b8080610681906139a0565b91505061048c565b503373ffffffffffffffffffffffffffffffffffffffff167f3fd4e5291615fab3036f7071bfcca36124b6991525996beb74a60baa102cffd686856040516106d29291906139e8565b60405180910390a25050505050565b60016020528060005260406000206000915090508060000160009054906101000a900473ffffffffffffffffffffffffffffffffffffffff169080600101805461072a90613595565b80601f016020809104026020016040519081016040528092919081815260200182805461075690613595565b80156107a35780601f10610778576101008083540402835291602001916107a3565b820191906000526020600020905b81548152906001019060200180831161078657829003601f168201915b5050505050908060020180546107b890613595565b80601f01602080910402602001604051908101604052809291908181526020018280546107e490613595565b80156108315780601f1061080657610100808354040283529160200191610831565b820191906000526020600020905b81548152906001019060200180831161081457829003601f168201915b50505050509080600301805461084690613595565b80601f016020809104026020016040519081016040528092919081815260200182805461087290613595565b80156108bf5780601f10610894576101008083540402835291602001916108bf565b820191906000526020600020905b8154815290600101906020018083116108a257829003601f168201915b5050505050908060040160009054906101000a900460ff16905085565b60606002805480602002602001604051908101604052809291908181526020016000905b82821015610c7d57838290600052602060002090600702016040518060e00160405290816000820160009054906101000a900473ffffffffffffffffffffffffffffffffffffffff1673ffffffffffffffffffffffffffffffffffffffff1673ffffffffffffffffffffffffffffffffffffffff16815260200160018201805461098990613595565b80601f01602080910402602001604051908101604052809291908181526020018280546109b590613595565b8015610a025780601f106109d757610100808354040283529160200191610a02565b820191906000526020600020905b8154815290600101906020018083116109e557829003601f168201915b50505050508152602001600282018054610a1b90613595565b80601f0160208091040260200160405190810160405280929190818152602001828054610a4790613595565b8015610a945780601f10610a6957610100808354040283529160200191610a94565b820191906000526020600020905b815481529060010190602001808311610a7757829003601f168201915b50505050508152602001600382018054610aad90613595565b80601f0160208091040260200160405190810160405280929190818152602001828054610ad990613595565b8015610b265780601f10610afb57610100808354040283529160200191610b26565b820191906000526020600020905b815481529060010190602001808311610b0957829003601f168201915b50505050508152602001600482018054610b3f90613595565b80601f0160208091040260200160405190810160405280929190818152602001828054610b6b90613595565b8015610bb85780601f10610b8d57610100808354040283529160200191610bb8565b820191906000526020600020905b815481529060010190602001808311610b9b57829003601f168201915b50505050508152602001600582018054610bd190613595565b80601f0160208091040260200160405190810160405280929190818152602001828054610bfd90613595565b8015610c4a5780601f10610c1f57610100808354040283529160200191610c4a565b820191906000526020600020905b815481529060010190602001808311610c2d57829003601f168201915b505050505081526020016006820160009054906101000a900460ff16151515158152505081526020019060010190610900565b50505050905090565b610c8e6129d9565b600160008373ffffffffffffffffffffffffffffffffffffffff1673ffffffffffffffffffffffffffffffffffffffff16815260200190815260200160002060040160009054906101000a900460ff16610d1d576040517f08c379a0000000000000000000000000000000000000000000000000000000008152600401610d1490613a6b565b60405180910390fd5b600160008373ffffffffffffffffffffffffffffffffffffffff1673ffffffffffffffffffffffffffffffffffffffff1681526020019081526020016000206040518060a00160405290816000820160009054906101000a900473ffffffffffffffffffffffffffffffffffffffff1673ffffffffffffffffffffffffffffffffffffffff1673ffffffffffffffffffffffffffffffffffffffff168152602001600182018054610dcd90613595565b80601f0160208091040260200160405190810160405280929190818152602001828054610df990613595565b8015610e465780601f10610e1b57610100808354040283529160200191610e46565b820191906000526020600020905b815481529060010190602001808311610e2957829003601f168201915b50505050508152602001600282018054610e5f90613595565b80601f0160208091040260200160405190810160405280929190818152602001828054610e8b90613595565b8015610ed85780601f10610ead57610100808354040283529160200191610ed8565b820191906000526020600020905b815481529060010190602001808311610ebb57829003601f168201915b50505050508152602001600382018054610ef190613595565b80601f0160208091040260200160405190810160405280929190818152602001828054610f1d90613595565b8015610f6a5780601f10610f3f57610100808354040283529160200191610f6a565b820191906000526020600020905b815481529060010190602001808311610f4d57829003601f168201915b505050505081526020016004820160009054906101000a900460ff1615151515815250509050919050565b60038181548110610fa557600080fd5b90600052602060002090600502016000915090508060000160009054906101000a900473ffffffffffffffffffffffffffffffffffffffff1690806001018054610fee90613595565b80601f016020809104026020016040519081016040528092919081815260200182805461101a90613595565b80156110675780601f1061103c57610100808354040283529160200191611067565b820191906000526020600020905b81548152906001019060200180831161104a57829003601f168201915b50505050509080600201805461107c90613595565b80601f01602080910402602001604051908101604052809291908181526020018280546110a890613595565b80156110f55780601f106110ca576101008083540402835291602001916110f5565b820191906000526020600020905b8154815290600101906020018083116110d857829003601f168201915b50505050509080600301805461110a90613595565b80601f016020809104026020016040519081016040528092919081815260200182805461113690613595565b80156111835780601f1061115857610100808354040283529160200191611183565b820191906000526020600020905b81548152906001019060200180831161116657829003601f168201915b5050505050908060040160009054906101000a900460ff16905085565b6000803373ffffffffffffffffffffffffffffffffffffffff1673ffffffffffffffffffffffffffffffffffffffff16815260200190815260200160002060060160009054906101000a900460ff161561122f576040517f08c379a000000000000000000000000000000000000000000000000000000000815260040161122690613ad7565b60405180910390fd5b600160003373ffffffffffffffffffffffffffffffffffffffff1673ffffffffffffffffffffffffffffffffffffffff16815260200190815260200160002060040160009054906101000a900460ff16156112bf576040517f08c379a00000000000000000000000000000000000000000000000000000000081526004016112b690613b43565b60405180910390fd5b60006040518060e001604052803373ffffffffffffffffffffffffffffffffffffffff168152602001878152602001868152602001858152602001848152602001838152602001600115158152509050806000803373ffffffffffffffffffffffffffffffffffffffff1673ffffffffffffffffffffffffffffffffffffffff16815260200190815260200160002060008201518160000160006101000a81548173ffffffffffffffffffffffffffffffffffffffff021916908373ffffffffffffffffffffffffffffffffffffffff16021790555060208201518160010190816113aa9190613772565b5060408201518160020190816113c09190613772565b5060608201518160030190816113d69190613772565b5060808201518160040190816113ec9190613772565b5060a08201518160050190816114029190613772565b5060c08201518160060160006101000a81548160ff021916908315150217905550905050600281908060018154018082558091505060019003906000526020600020906007020160009091909190915060008201518160000160006101000a81548173ffffffffffffffffffffffffffffffffffffffff021916908373ffffffffffffffffffffffffffffffffffffffff16021790555060208201518160010190816114ae9190613772565b5060408201518160020190816114c49190613772565b5060608201518160030190816114da9190613772565b5060808201518160040190816114f09190613772565b5060a08201518160050190816115069190613772565b5060c08201518160060160006101000a81548160ff02191690831515021790555050503373ffffffffffffffffffffffffffffffffffffffff167f7cf2f3f1c1c2f45618f676d3c8b91173c7242c7651c3084a5d145e01d454e00287866040516115719291906139e8565b60405180910390a2505050505050565b600160003373ffffffffffffffffffffffffffffffffffffffff1673ffffffffffffffffffffffffffffffffffffffff16815260200190815260200160002060040160009054906101000a900460ff1615611611576040517f08c379a000000000000000000000000000000000000000000000000000000000815260040161160890613b43565b60405180910390fd5b6000803373ffffffffffffffffffffffffffffffffffffffff1673ffffffffffffffffffffffffffffffffffffffff16815260200190815260200160002060060160009054906101000a900460ff16156116a0576040517f08c379a000000000000000000000000000000000000000000000000000000000815260040161169790613ad7565b60405180910390fd5b60006040518060a001604052803373ffffffffffffffffffffffffffffffffffffffff16815260200185815260200184815260200183815260200160011515815250905080600160003373ffffffffffffffffffffffffffffffffffffffff1673ffffffffffffffffffffffffffffffffffffffff16815260200190815260200160002060008201518160000160006101000a81548173ffffffffffffffffffffffffffffffffffffffff021916908373ffffffffffffffffffffffffffffffffffffffff16021790555060208201518160010190816117809190613772565b5060408201518160020190816117969190613772565b5060608201518160030190816117ac9190613772565b5060808201518160040160006101000a81548160ff021916908315150217905550905050600381908060018154018082558091505060019003906000526020600020906005020160009091909190915060008201518160000160006101000a81548173ffffffffffffffffffffffffffffffffffffffff021916908373ffffffffffffffffffffffffffffffffffffffff16021790555060208201518160010190816118589190613772565b50604082015181600201908161186e9190613772565b5060608201518160030190816118849190613772565b5060808201518160040160006101000a81548160ff02191690831515021790555050503373ffffffffffffffffffffffffffffffffffffffff167f0847d01e2ab83fbefc56df1aaeb75071c766e11d77488f97c76b931e88bebfc985846040516118ef9291906139e8565b60405180910390a250505050565b60606003805480602002602001604051908101604052809291908181526020016000905b82821015611b7a57838290600052602060002090600502016040518060a00160405290816000820160009054906101000a900473ffffffffffffffffffffffffffffffffffffffff1673ffffffffffffffffffffffffffffffffffffffff1673ffffffffffffffffffffffffffffffffffffffff1681526020016001820180546119aa90613595565b80601f01602080910402602001604051908101604052809291908181526020018280546119d690613595565b8015611a235780601f106119f857610100808354040283529160200191611a23565b820191906000526020600020905b815481529060010190602001808311611a0657829003601f168201915b50505050508152602001600282018054611a3c90613595565b80601f0160208091040260200160405190810160405280929190818152602001828054611a6890613595565b8015611ab55780601f10611a8a57610100808354040283529160200191611ab5565b820191906000526020600020905b815481529060010190602001808311611a9857829003601f168201915b50505050508152602001600382018054611ace90613595565b80601f0160208091040260200160405190810160405280929190818152602001828054611afa90613595565b8015611b475780601f10611b1c57610100808354040283529160200191611b47565b820191906000526020600020905b815481529060010190602001808311611b2a57829003601f168201915b505050505081526020016004820160009054906101000a900460ff16151515158152505081526020019060010190611921565b50505050905090565b611b8b612a20565b6000808373ffffffffffffffffffffffffffffffffffffffff1673ffffffffffffffffffffffffffffffffffffffff16815260200190815260200160002060060160009054906101000a900460ff16611c19576040517f08c379a0000000000000000000000000000000000000000000000000000000008152600401611c1090613baf565b60405180910390fd5b6000808373ffffffffffffffffffffffffffffffffffffffff1673ffffffffffffffffffffffffffffffffffffffff1681526020019081526020016000206040518060e00160405290816000820160009054906101000a900473ffffffffffffffffffffffffffffffffffffffff1673ffffffffffffffffffffffffffffffffffffffff1673ffffffffffffffffffffffffffffffffffffffff168152602001600182018054611cc890613595565b80601f0160208091040260200160405190810160405280929190818152602001828054611cf490613595565b8015611d415780601f10611d1657610100808354040283529160200191611d41565b820191906000526020600020905b815481529060010190602001808311611d2457829003601f168201915b50505050508152602001600282018054611d5a90613595565b80601f0160208091040260200160405190810160405280929190818152602001828054611d8690613595565b8015611dd35780601f10611da857610100808354040283529160200191611dd3565b820191906000526020600020905b815481529060010190602001808311611db657829003601f168201915b50505050508152602001600382018054611dec90613595565b80601f0160208091040260200160405190810160405280929190818152602001828054611e1890613595565b8015611e655780601f10611e3a57610100808354040283529160200191611e65565b820191906000526020600020905b815481529060010190602001808311611e4857829003601f168201915b50505050508152602001600482018054611e7e90613595565b80601f0160208091040260200160405190810160405280929190818152602001828054611eaa90613595565b8015611ef75780601f10611ecc57610100808354040283529160200191611ef7565b820191906000526020600020905b815481529060010190602001808311611eda57829003601f168201915b50505050508152602001600582018054611f1090613595565b80601f0160208091040260200160405190810160405280929190818152602001828054611f3c90613595565b8015611f895780601f10611f5e57610100808354040283529160200191611f89565b820191906000526020600020905b815481529060010190602001808311611f6c57829003601f168201915b505050505081526020016006820160009054906101000a900460ff1615151515815250509050919050565b600160003373ffffffffffffffffffffffffffffffffffffffff1673ffffffffffffffffffffffffffffffffffffffff16815260200190815260200160002060040160009054906101000a900460ff16612043576040517f08c379a000000000000000000000000000000000000000000000000000000000815260040161203a90613c1b565b60405180910390fd5b6040518060a001604052803373ffffffffffffffffffffffffffffffffffffffff16815260200184815260200183815260200182815260200160011515815250600160003373ffffffffffffffffffffffffffffffffffffffff1673ffffffffffffffffffffffffffffffffffffffff16815260200190815260200160002060008201518160000160006101000a81548173ffffffffffffffffffffffffffffffffffffffff021916908373ffffffffffffffffffffffffffffffffffffffff160217905550602082015181600101908161211e9190613772565b5060408201518160020190816121349190613772565b50606082015181600301908161214a9190613772565b5060808201518160040160006101000a81548160ff02191690831515021790555090505060005b600380549050811015612345573373ffffffffffffffffffffffffffffffffffffffff16600382815481106121a9576121a8613844565b5b906000526020600020906005020160000160009054906101000a900473ffffffffffffffffffffffffffffffffffffffff1673ffffffffffffffffffffffffffffffffffffffff160361233257600160003373ffffffffffffffffffffffffffffffffffffffff1673ffffffffffffffffffffffffffffffffffffffff1681526020019081526020016000206003828154811061224957612248613844565b5b90600052602060002090600502016000820160009054906101000a900473ffffffffffffffffffffffffffffffffffffffff168160000160006101000a81548173ffffffffffffffffffffffffffffffffffffffff021916908373ffffffffffffffffffffffffffffffffffffffff160217905550600182018160010190816122d29190613889565b50600282018160020190816122e79190613889565b50600382018160030190816122fc9190613889565b506004820160009054906101000a900460ff168160040160006101000a81548160ff021916908315150217905550905050612345565b808061233d906139a0565b915050612171565b503373ffffffffffffffffffffffffffffffffffffffff167f7b1fcc9808f6802b75fcb5c6a46ec906e73e84caa7f7ef97f20838f775045098848360405161238e9291906139e8565b60405180910390a2505050565b600281815481106123ab57600080fd5b90600052602060002090600702016000915090508060000160009054906101000a900473ffffffffffffffffffffffffffffffffffffffff16908060010180546123f490613595565b80601f016020809104026020016040519081016040528092919081815260200182805461242090613595565b801561246d5780601f106124425761010080835404028352916020019161246d565b820191906000526020600020905b81548152906001019060200180831161245057829003601f168201915b50505050509080600201805461248290613595565b80601f01602080910402602001604051908101604052809291908181526020018280546124ae90613595565b80156124fb5780601f106124d0576101008083540402835291602001916124fb565b820191906000526020600020905b8154815290600101906020018083116124de57829003601f168201915b50505050509080600301805461251090613595565b80601f016020809104026020016040519081016040528092919081815260200182805461253c90613595565b80156125895780601f1061255e57610100808354040283529160200191612589565b820191906000526020600020905b81548152906001019060200180831161256c57829003601f168201915b50505050509080600401805461259e90613595565b80601f01602080910402602001604051908101604052809291908181526020018280546125ca90613595565b80156126175780601f106125ec57610100808354040283529160200191612617565b820191906000526020600020905b8154815290600101906020018083116125fa57829003601f168201915b50505050509080600501805461262c90613595565b80601f016020809104026020016040519081016040528092919081815260200182805461265890613595565b80156126a55780601f1061267a576101008083540402835291602001916126a5565b820191906000526020600020905b81548152906001019060200180831161268857829003601f168201915b5050505050908060060160009054906101000a900460ff16905087565b60006020528060005260406000206000915090508060000160009054906101000a900473ffffffffffffffffffffffffffffffffffffffff169080600101805461270b90613595565b80601f016020809104026020016040519081016040528092919081815260200182805461273790613595565b80156127845780601f1061275957610100808354040283529160200191612784565b820191906000526020600020905b81548152906001019060200180831161276757829003601f168201915b50505050509080600201805461279990613595565b80601f01602080910402602001604051908101604052809291908181526020018280546127c590613595565b80156128125780601f106127e757610100808354040283529160200191612812565b820191906000526020600020905b8154815290600101906020018083116127f557829003601f168201915b50505050509080600301805461282790613595565b80601f016020809104026020016040519081016040528092919081815260200182805461285390613595565b80156128a05780601f10612875576101008083540402835291602001916128a0565b820191906000526020600020905b81548152906001019060200180831161288357829003601f168201915b5050505050908060040180546128b590613595565b80601f01602080910402602001604051908101604052809291908181526020018280546128e190613595565b801561292e5780601f106129035761010080835404028352916020019161292e565b820191906000526020600020905b81548152906001019060200180831161291157829003601f168201915b50505050509080600501805461294390613595565b80601f016020809104026020016040519081016040528092919081815260200182805461296f90613595565b80156129bc5780601f10612991576101008083540402835291602001916129bc565b820191906000526020600020905b81548152906001019060200180831161299f57829003601f168201915b5050505050908060060160009054906101000a900460ff16905087565b6040518060a00160405280600073ffffffffffffffffffffffffffffffffffffffff1681526020016060815260200160608152602001606081526020016000151581525090565b6040518060e00160405280600073ffffffffffffffffffffffffffffffffffffffff16815260200160608152602001606081526020016060815260200160608152602001606081526020016000151581525090565b6000604051905090565b600080fd5b600080fd5b600080fd5b600080fd5b6000601f19601f8301169050919050565b7f4e487b7100000000000000000000000000000000000000000000000000000000600052604160045260246000fd5b612adc82612a93565b810181811067ffffffffffffffff82111715612afb57612afa612aa4565b5b80604052505050565b6000612b0e612a75565b9050612b1a8282612ad3565b919050565b600067ffffffffffffffff821115612b3a57612b39612aa4565b5b612b4382612a93565b9050602081019050919050565b82818337600083830152505050565b6000612b72612b6d84612b1f565b612b04565b905082815260208101848484011115612b8e57612b8d612a8e565b5b612b99848285612b50565b509392505050565b600082601f830112612bb657612bb5612a89565b5b8135612bc6848260208601612b5f565b91505092915050565b600080600080600060a08688031215612beb57612bea612a7f565b5b600086013567ffffffffffffffff811115612c0957612c08612a84565b5b612c1588828901612ba1565b955050602086013567ffffffffffffffff811115612c3657612c35612a84565b5b612c4288828901612ba1565b945050604086013567ffffffffffffffff811115612c6357612c62612a84565b5b612c6f88828901612ba1565b935050606086013567ffffffffffffffff811115612c9057612c8f612a84565b5b612c9c88828901612ba1565b925050608086013567ffffffffffffffff811115612cbd57612cbc612a84565b5b612cc988828901612ba1565b9150509295509295909350565b600073ffffffffffffffffffffffffffffffffffffffff82169050919050565b6000612d0182612cd6565b9050919050565b612d1181612cf6565b8114612d1c57600080fd5b50565b600081359050612d2e81612d08565b92915050565b600060208284031215612d4a57612d49612a7f565b5b6000612d5884828501612d1f565b91505092915050565b612d6a81612cf6565b82525050565b600081519050919050565b600082825260208201905092915050565b60005b83811015612daa578082015181840152602081019050612d8f565b60008484015250505050565b6000612dc182612d70565b612dcb8185612d7b565b9350612ddb818560208601612d8c565b612de481612a93565b840191505092915050565b60008115159050919050565b612e0481612def565b82525050565b600060a082019050612e1f6000830188612d61565b8181036020830152612e318187612db6565b90508181036040830152612e458186612db6565b90508181036060830152612e598185612db6565b9050612e686080830184612dfb565b9695505050505050565b600081519050919050565b600082825260208201905092915050565b6000819050602082019050919050565b612ea781612cf6565b82525050565b600082825260208201905092915050565b6000612ec982612d70565b612ed38185612ead565b9350612ee3818560208601612d8c565b612eec81612a93565b840191505092915050565b612f0081612def565b82525050565b600060e083016000830151612f1e6000860182612e9e565b5060208301518482036020860152612f368282612ebe565b91505060408301518482036040860152612f508282612ebe565b91505060608301518482036060860152612f6a8282612ebe565b91505060808301518482036080860152612f848282612ebe565b91505060a083015184820360a0860152612f9e8282612ebe565b91505060c0830151612fb360c0860182612ef7565b508091505092915050565b6000612fca8383612f06565b905092915050565b6000602082019050919050565b6000612fea82612e72565b612ff48185612e7d565b93508360208202850161300685612e8e565b8060005b8581101561304257848403895281516130238582612fbe565b945061302e83612fd2565b925060208a0199505060018101905061300a565b50829750879550505050505092915050565b6000602082019050818103600083015261306e8184612fdf565b905092915050565b600060a08301600083015161308e6000860182612e9e565b50602083015184820360208601526130a68282612ebe565b915050604083015184820360408601526130c08282612ebe565b915050606083015184820360608601526130da8282612ebe565b91505060808301516130ef6080860182612ef7565b508091505092915050565b600060208201905081810360008301526131148184613076565b905092915050565b6000819050919050565b61312f8161311c565b811461313a57600080fd5b50565b60008135905061314c81613126565b92915050565b60006020828403121561316857613167612a7f565b5b60006131768482850161313d565b91505092915050565b60008060006060848603121561319857613197612a7f565b5b600084013567ffffffffffffffff8111156131b6576131b5612a84565b5b6131c286828701612ba1565b935050602084013567ffffffffffffffff8111156131e3576131e2612a84565b5b6131ef86828701612ba1565b925050604084013567ffffffffffffffff8111156132105761320f612a84565b5b61321c86828701612ba1565b9150509250925092565b600081519050919050565b600082825260208201905092915050565b6000819050602082019050919050565b600060a08301600083015161326a6000860182612e9e565b50602083015184820360208601526132828282612ebe565b9150506040830151848203604086015261329c8282612ebe565b915050606083015184820360608601526132b68282612ebe565b91505060808301516132cb6080860182612ef7565b508091505092915050565b60006132e28383613252565b905092915050565b6000602082019050919050565b600061330282613226565b61330c8185613231565b93508360208202850161331e85613242565b8060005b8581101561335a578484038952815161333b85826132d6565b9450613346836132ea565b925060208a01995050600181019050613322565b50829750879550505050505092915050565b6000602082019050818103600083015261338681846132f7565b905092915050565b600060e0830160008301516133a66000860182612e9e565b50602083015184820360208601526133be8282612ebe565b915050604083015184820360408601526133d88282612ebe565b915050606083015184820360608601526133f28282612ebe565b9150506080830151848203608086015261340c8282612ebe565b91505060a083015184820360a08601526134268282612ebe565b91505060c083015161343b60c0860182612ef7565b508091505092915050565b60006020820190508181036000830152613460818461338e565b905092915050565b600060e08201905061347d600083018a612d61565b818103602083015261348f8189612db6565b905081810360408301526134a38188612db6565b905081810360608301526134b78187612db6565b905081810360808301526134cb8186612db6565b905081810360a08301526134df8185612db6565b90506134ee60c0830184612dfb565b98975050505050505050565b7f4e6f74207265676973746572656420617320626f72726f776572000000000000600082015250565b6000613530601a83612d7b565b915061353b826134fa565b602082019050919050565b6000602082019050818103600083015261355f81613523565b9050919050565b7f4e487b7100000000000000000000000000000000000000000000000000000000600052602260045260246000fd5b600060028204905060018216806135ad57607f821691505b6020821081036135c0576135bf613566565b5b50919050565b60008190508160005260206000209050919050565b60006020601f8301049050919050565b600082821b905092915050565b6000600883026136287fffffffffffffffffffffffffffffffffffffffffffffffffffffffffffffffff826135eb565b61363286836135eb565b95508019841693508086168417925050509392505050565b6000819050919050565b600061366f61366a6136658461311c565b61364a565b61311c565b9050919050565b6000819050919050565b61368983613654565b61369d61369582613676565b8484546135f8565b825550505050565b600090565b6136b26136a5565b6136bd818484613680565b505050565b5b818110156136e1576136d66000826136aa565b6001810190506136c3565b5050565b601f821115613726576136f7816135c6565b613700846135db565b8101602085101561370f578190505b61372361371b856135db565b8301826136c2565b50505b505050565b600082821c905092915050565b60006137496000198460080261372b565b1980831691505092915050565b60006137628383613738565b9150826002028217905092915050565b61377b82612d70565b67ffffffffffffffff81111561379457613793612aa4565b5b61379e8254613595565b6137a98282856136e5565b600060209050601f8311600181146137dc57600084156137ca578287015190505b6137d48582613756565b86555061383c565b601f1984166137ea866135c6565b60005b82811015613812578489015182556001820191506020850194506020810190506137ed565b8683101561382f578489015161382b601f891682613738565b8355505b6001600288020188555050505b505050505050565b7f4e487b7100000000000000000000000000000000000000000000000000000000600052603260045260246000fd5b60008154905061388281613595565b9050919050565b81810361389757505061396f565b6138a082613873565b67ffffffffffffffff8111156138b9576138b8612aa4565b5b6138c38254613595565b6138ce8282856136e5565b6000601f8311600181146138fd57600084156138eb578287015490505b6138f58582613756565b865550613968565b601f19841661390b876135c6565b9650613916866135c6565b60005b8281101561393e57848901548255600182019150600185019450602081019050613919565b8683101561395b5784890154613957601f891682613738565b8355505b6001600288020188555050505b5050505050505b565b7f4e487b7100000000000000000000000000000000000000000000000000000000600052601160045260246000fd5b60006139ab8261311c565b91507fffffffffffffffffffffffffffffffffffffffffffffffffffffffffffffffff82036139dd576139dc613971565b5b600182019050919050565b60006040820190508181036000830152613a028185612db6565b90508181036020830152613a168184612db6565b90509392505050565b7f4c656e646572206e6f7420666f756e6400000000000000000000000000000000600082015250565b6000613a55601083612d7b565b9150613a6082613a1f565b602082019050919050565b60006020820190508181036000830152613a8481613a48565b9050919050565b7f416c72656164792072656769737465726564206173206120626f72726f776572600082015250565b6000613ac1602083612d7b565b9150613acc82613a8b565b602082019050919050565b60006020820190508181036000830152613af081613ab4565b9050919050565b7f416c726561647920726567697374657265642061732061206c656e6465720000600082015250565b6000613b2d601e83612d7b565b9150613b3882613af7565b602082019050919050565b60006020820190508181036000830152613b5c81613b20565b9050919050565b7f426f72726f776572206e6f7420666f756e640000000000000000000000000000600082015250565b6000613b99601283612d7b565b9150613ba482613b63565b602082019050919050565b60006020820190508181036000830152613bc881613b8c565b9050919050565b7f4e6f742072656769737465726564206173206c656e6465720000000000000000600082015250565b6000613c05601883612d7b565b9150613c1082613bcf565b602082019050919050565b60006020820190508181036000830152613c3481613bf8565b905091905056fea26469706673582212200610787fb167738db46dd9329556d92b7d511e15906901199df6b8e2d8fc2eb164736f6c63430008130033",
  "linkReferences": {},
  "deployedLinkReferences": {}
}