{
  "_format": "hh-sol-artifact-1",
  "contractName": "UnifiedLending",
  "sourceName": "contracts/UnifiedLending.sol",
  "abi": [
    {
      "anonymous": false,
      "inputs": [
        {
          "indexed": true,
          "internalType": "address",
          "name": "borrower",
          "type": "address"
        },
        {
          "indexed": false,
          "internalType": "string",
          "name": "name",
          "type": "string"
        }
      ],
      "name": "BorrowerRegistered",
      "type": "event"
    },
    {
      "anonymous": false,
      "inputs": [
        {
          "indexed": true,
          "internalType": "address",
          "name": "lender",
          "type": "address"
        },
        {
          "indexed": false,
          "internalType": "string",
          "name": "name",
          "type": "string"
        }
      ],
      "name": "LenderRegistered",
      "type": "event"
    },
    {
      "anonymous": false,
      "inputs": [
        {
          "indexed": true,
          "internalType": "uint256",
          "name": "loanId",
          "type": "uint256"
        },
        {
          "indexed": true,
          "internalType": "address",
          "name": "lender",
          "type": "address"
        }
      ],
      "name": "LoanApproved",
      "type": "event"
    },
    {
      "anonymous": false,
      "inputs": [
        {
          "indexed": true,
          "internalType": "uint256",
          "name": "loanId",
          "type": "uint256"
        },
        {
          "indexed": true,
          "internalType": "address",
          "name": "borrower",
          "type": "address"
        },
        {
          "indexed": true,
          "internalType": "address",
          "name": "lender",
          "type": "address"
        },
        {
          "indexed": false,
          "internalType": "uint256",
          "name": "amount",
          "type": "uint256"
        }
      ],
      "name": "LoanRequested",
      "type": "event"
    },
    {
      "anonymous": false,
      "inputs": [
        {
          "indexed": true,
          "internalType": "uint256",
          "name": "loanId",
          "type": "uint256"
        },
        {
          "indexed": true,
          "internalType": "address",
          "name": "from",
          "type": "address"
        },
        {
          "indexed": true,
          "internalType": "address",
          "name": "to",
          "type": "address"
        },
        {
          "indexed": false,
          "internalType": "uint256",
          "name": "amount",
          "type": "uint256"
        }
      ],
      "name": "PaymentMade",
      "type": "event"
    },
    {
      "inputs": [
        {
          "internalType": "uint256",
          "name": "_loanId",
          "type": "uint256"
        }
      ],
      "name": "approveLoan",
      "outputs": [],
      "stateMutability": "nonpayable",
      "type": "function"
    },
    {
      "inputs": [
        {
          "internalType": "uint256",
          "name": "",
          "type": "uint256"
        }
      ],
      "name": "borrowerList",
      "outputs": [
        {
          "internalType": "address",
          "name": "",
          "type": "address"
        }
      ],
      "stateMutability": "view",
      "type": "function"
    },
    {
      "inputs": [
        {
          "internalType": "address",
          "name": "",
          "type": "address"
        }
      ],
      "name": "borrowers",
      "outputs": [
        {
          "internalType": "address",
          "name": "borrowerAddress",
          "type": "address"
        },
        {
          "internalType": "string",
          "name": "username",
          "type": "string"
        },
        {
          "internalType": "string",
          "name": "password",
          "type": "string"
        },
        {
          "internalType": "string",
          "name": "name",
          "type": "string"
        },
        {
          "internalType": "string",
          "name": "phone",
          "type": "string"
        },
        {
          "internalType": "string",
          "name": "email",
          "type": "string"
        },
        {
          "internalType": "string",
          "name": "addressDetails",
          "type": "string"
        },
        {
          "internalType": "uint256",
          "name": "creditScore",
          "type": "uint256"
        },
        {
          "internalType": "uint256",
          "name": "monthlyIncome",
          "type": "uint256"
        },
        {
          "internalType": "bool",
          "name": "isRegistered",
          "type": "bool"
        }
      ],
      "stateMutability": "view",
      "type": "function"
    },
    {
      "inputs": [],
      "name": "getAllBorrowers",
      "outputs": [
        {
          "internalType": "address[]",
          "name": "",
          "type": "address[]"
        }
      ],
      "stateMutability": "view",
      "type": "function"
    },
    {
      "inputs": [],
      "name": "getAllLenders",
      "outputs": [
        {
          "internalType": "address[]",
          "name": "",
          "type": "address[]"
        }
      ],
      "stateMutability": "view",
      "type": "function"
    },
    {
      "inputs": [
        {
          "internalType": "uint256",
          "name": "_loanId",
          "type": "uint256"
        }
      ],
      "name": "getTransactions",
      "outputs": [
        {
          "components": [
            {
              "internalType": "uint256",
              "name": "loanId",
              "type": "uint256"
            },
            {
              "internalType": "address",
              "name": "from",
              "type": "address"
            },
            {
              "internalType": "address",
              "name": "to",
              "type": "address"
            },
            {
              "internalType": "uint256",
              "name": "amount",
              "type": "uint256"
            },
            {
              "internalType": "uint256",
              "name": "timestamp",
              "type": "uint256"
            }
          ],
          "internalType": "struct UnifiedLending.Transaction[]",
          "name": "",
          "type": "tuple[]"
        }
      ],
      "stateMutability": "view",
      "type": "function"
    },
    {
      "inputs": [
        {
          "internalType": "uint256",
          "name": "",
          "type": "uint256"
        }
      ],
      "name": "lenderList",
      "outputs": [
        {
          "internalType": "address",
          "name": "",
          "type": "address"
        }
      ],
      "stateMutability": "view",
      "type": "function"
    },
    {
      "inputs": [
        {
          "internalType": "address",
          "name": "",
          "type": "address"
        }
      ],
      "name": "lenders",
      "outputs": [
        {
          "internalType": "address",
          "name": "lenderAddress",
          "type": "address"
        },
        {
          "internalType": "string",
          "name": "username",
          "type": "string"
        },
        {
          "internalType": "string",
          "name": "password",
          "type": "string"
        },
        {
          "internalType": "string",
          "name": "name",
          "type": "string"
        },
        {
          "internalType": "string",
          "name": "phone",
          "type": "string"
        },
        {
          "internalType": "string",
          "name": "email",
          "type": "string"
        },
        {
          "internalType": "uint256",
          "name": "interestRate",
          "type": "uint256"
        },
        {
          "internalType": "uint256",
          "name": "monthlyIncome",
          "type": "uint256"
        },
        {
          "internalType": "bool",
          "name": "isRegistered",
          "type": "bool"
        }
      ],
      "stateMutability": "view",
      "type": "function"
    },
    {
      "inputs": [
        {
          "internalType": "uint256",
          "name": "",
          "type": "uint256"
        },
        {
          "internalType": "uint256",
          "name": "",
          "type": "uint256"
        }
      ],
      "name": "loanTransactions",
      "outputs": [
        {
          "internalType": "uint256",
          "name": "loanId",
          "type": "uint256"
        },
        {
          "internalType": "address",
          "name": "from",
          "type": "address"
        },
        {
          "internalType": "address",
          "name": "to",
          "type": "address"
        },
        {
          "internalType": "uint256",
          "name": "amount",
          "type": "uint256"
        },
        {
          "internalType": "uint256",
          "name": "timestamp",
          "type": "uint256"
        }
      ],
      "stateMutability": "view",
      "type": "function"
    },
    {
      "inputs": [
        {
          "internalType": "uint256",
          "name": "",
          "type": "uint256"
        }
      ],
      "name": "loans",
      "outputs": [
        {
          "internalType": "uint256",
          "name": "loanId",
          "type": "uint256"
        },
        {
          "internalType": "address",
          "name": "borrower",
          "type": "address"
        },
        {
          "internalType": "address",
          "name": "lender",
          "type": "address"
        },
        {
          "internalType": "uint256",
          "name": "amount",
          "type": "uint256"
        },
        {
          "internalType": "uint256",
          "name": "amountPaid",
          "type": "uint256"
        },
        {
          "internalType": "uint256",
          "name": "repaymentPeriod",
          "type": "uint256"
        },
        {
          "internalType": "enum UnifiedLending.LoanStatus",
          "name": "status",
          "type": "uint8"
        },
        {
          "internalType": "uint256",
          "name": "interestRate",
          "type": "uint256"
        }
      ],
      "stateMutability": "view",
      "type": "function"
    },
    {
      "inputs": [],
      "name": "nextLoanId",
      "outputs": [
        {
          "internalType": "uint256",
          "name": "",
          "type": "uint256"
        }
      ],
      "stateMutability": "view",
      "type": "function"
    },
    {
      "inputs": [
        {
          "internalType": "uint256",
          "name": "_loanId",
          "type": "uint256"
        },
        {
          "internalType": "uint256",
          "name": "_amount",
          "type": "uint256"
        }
      ],
      "name": "recordPayment",
      "outputs": [],
      "stateMutability": "nonpayable",
      "type": "function"
    },
    {
      "inputs": [
        {
          "internalType": "string",
          "name": "_username",
          "type": "string"
        },
        {
          "internalType": "string",
          "name": "_password",
          "type": "string"
        },
        {
          "internalType": "string",
          "name": "_name",
          "type": "string"
        },
        {
          "internalType": "string",
          "name": "_phone",
          "type": "string"
        },
        {
          "internalType": "string",
          "name": "_email",
          "type": "string"
        },
        {
          "internalType": "string",
          "name": "_addressDetails",
          "type": "string"
        }
      ],
      "name": "registerBorrower",
      "outputs": [],
      "stateMutability": "nonpayable",
      "type": "function"
    },
    {
      "inputs": [
        {
          "internalType": "string",
          "name": "_username",
          "type": "string"
        },
        {
          "internalType": "string",
          "name": "_password",
          "type": "string"
        },
        {
          "internalType": "string",
          "name": "_name",
          "type": "string"
        },
        {
          "internalType": "string",
          "name": "_phone",
          "type": "string"
        },
        {
          "internalType": "string",
          "name": "_email",
          "type": "string"
        },
        {
          "internalType": "uint256",
          "name": "_interestRate",
          "type": "uint256"
        },
        {
          "internalType": "uint256",
          "name": "_monthlyIncome",
          "type": "uint256"
        }
      ],
      "name": "registerLender",
      "outputs": [],
      "stateMutability": "nonpayable",
      "type": "function"
    },
    {
      "inputs": [
        {
          "internalType": "uint256",
          "name": "_amount",
          "type": "uint256"
        },
        {
          "internalType": "uint256",
          "name": "_repaymentPeriod",
          "type": "uint256"
        },
        {
          "internalType": "address",
          "name": "_lender",
          "type": "address"
        }
      ],
      "name": "requestLoan",
      "outputs": [],
      "stateMutability": "nonpayable",
      "type": "function"
    }
  ],
  "bytecode": "0x6080604052600160065534801561001557600080fd5b506131ba806100256000396000f3fe608060405234801561001057600080fd5b50600436106100f55760003560e01c80635742177c11610097578063aadc1ac111610066578063aadc1ac114610290578063b3a66524146102ac578063bf5d50c4146102dc578063e1ec3c6814610315576100f5565b80635742177c146101f45780636085c7df1461022457806387c5145914610254578063a1666b5414610272576100f5565b806322385ed4116100d357806322385ed41461016657806328fd10d71461018257806332abcdbe146101ba57806339028b27146101d8576100f5565b80630b879bc2146100fa57806318ae50fd146101165780631fe051f31461014a575b600080fd5b610114600480360381019061010f9190611ed3565b61034c565b005b610130600480360381019061012b9190611ed3565b61072d565b604051610141959493929190611f63565b60405180910390f35b610164600480360381019061015f91906120fc565b6107c0565b005b610180600480360381019061017b9190612256565b610b1e565b005b61019c600480360381019061019791906122a9565b610e86565b6040516101b199989796959493929190612370565b60405180910390f35b6101c26111a9565b6040516101cf91906124de565b60405180910390f35b6101f260048036038101906101ed9190612500565b611237565b005b61020e60048036038101906102099190612635565b6115b2565b60405161021b9190612788565b60405180910390f35b61023e60048036038101906102399190612635565b6116ee565b60405161024b91906127aa565b60405180910390f35b61025c61172d565b60405161026991906127c5565b60405180910390f35b61027a611733565b60405161028791906124de565b60405180910390f35b6102aa60048036038101906102a59190612635565b6117c1565b005b6102c660048036038101906102c19190612635565b611a04565b6040516102d391906127aa565b60405180910390f35b6102f660048036038101906102f191906122a9565b611a43565b60405161030c9a999897969594939291906127e0565b60405180910390f35b61032f600480360381019061032a9190612635565b611df4565b60405161034398979695949392919061291d565b60405180910390f35b600160038111156103605761035f6128a6565b5b6002600084815260200190815260200160002060060160009054906101000a900460ff166003811115610396576103956128a6565b5b146103d6576040517f08c379a00000000000000000000000000000000000000000000000000000000081526004016103cd906129e7565b60405180910390fd5b6002600083815260200190815260200160002060010160009054906101000a900473ffffffffffffffffffffffffffffffffffffffff1673ffffffffffffffffffffffffffffffffffffffff163373ffffffffffffffffffffffffffffffffffffffff161461047a576040517f08c379a000000000000000000000000000000000000000000000000000000000815260040161047190612a53565b60405180910390fd5b806002600084815260200190815260200160002060040160008282546104a09190612aa2565b92505081905550600360008381526020019081526020016000206040518060a001604052808481526020013373ffffffffffffffffffffffffffffffffffffffff1681526020016002600086815260200190815260200160002060020160009054906101000a900473ffffffffffffffffffffffffffffffffffffffff1673ffffffffffffffffffffffffffffffffffffffff1681526020018381526020014281525090806001815401808255809150506001900390600052602060002090600502016000909190919091506000820151816000015560208201518160010160006101000a81548173ffffffffffffffffffffffffffffffffffffffff021916908373ffffffffffffffffffffffffffffffffffffffff16021790555060408201518160020160006101000a81548173ffffffffffffffffffffffffffffffffffffffff021916908373ffffffffffffffffffffffffffffffffffffffff16021790555060608201518160030155608082015181600401555050600260008381526020019081526020016000206003015460026000848152602001908152602001600020600401541061068d5760036002600084815260200190815260200160002060060160006101000a81548160ff02191690836003811115610687576106866128a6565b5b02179055505b6002600083815260200190815260200160002060020160009054906101000a900473ffffffffffffffffffffffffffffffffffffffff1673ffffffffffffffffffffffffffffffffffffffff163373ffffffffffffffffffffffffffffffffffffffff16837fd51bb0381ff8d9476c9493a30eafdb1966dca4b0c0db1a2d4e244a3a8b16ffb88460405161072191906127c5565b60405180910390a45050565b6003602052816000526040600020818154811061074957600080fd5b9060005260206000209060050201600091509150508060000154908060010160009054906101000a900473ffffffffffffffffffffffffffffffffffffffff16908060020160009054906101000a900473ffffffffffffffffffffffffffffffffffffffff16908060030154908060040154905085565b600160003373ffffffffffffffffffffffffffffffffffffffff1673ffffffffffffffffffffffffffffffffffffffff16815260200190815260200160002060080160009054906101000a900460ff1615610850576040517f08c379a000000000000000000000000000000000000000000000000000000000815260040161084790612b22565b60405180910390fd5b6000803373ffffffffffffffffffffffffffffffffffffffff1673ffffffffffffffffffffffffffffffffffffffff16815260200190815260200160002060090160009054906101000a900460ff16156108df576040517f08c379a00000000000000000000000000000000000000000000000000000000081526004016108d690612b8e565b60405180910390fd5b6040518061012001604052803373ffffffffffffffffffffffffffffffffffffffff16815260200188815260200187815260200186815260200185815260200184815260200183815260200182815260200160011515815250600160003373ffffffffffffffffffffffffffffffffffffffff1673ffffffffffffffffffffffffffffffffffffffff16815260200190815260200160002060008201518160000160006101000a81548173ffffffffffffffffffffffffffffffffffffffff021916908373ffffffffffffffffffffffffffffffffffffffff16021790555060208201518160010190816109d39190612dba565b5060408201518160020190816109e99190612dba565b5060608201518160030190816109ff9190612dba565b506080820151816004019081610a159190612dba565b5060a0820151816005019081610a2b9190612dba565b5060c0820151816006015560e082015181600701556101008201518160080160006101000a81548160ff0219169083151502179055509050506005339080600181540180825580915050600190039060005260206000200160009091909190916101000a81548173ffffffffffffffffffffffffffffffffffffffff021916908373ffffffffffffffffffffffffffffffffffffffff1602179055503373ffffffffffffffffffffffffffffffffffffffff167fc3f44b19b0cf208e98a093111600b89bc42261326cf162a821382b148b093f8c86604051610b0d9190612e8c565b60405180910390a250505050505050565b6000803373ffffffffffffffffffffffffffffffffffffffff1673ffffffffffffffffffffffffffffffffffffffff16815260200190815260200160002060090160009054906101000a900460ff16610bac576040517f08c379a0000000000000000000000000000000000000000000000000000000008152600401610ba390612f20565b60405180910390fd5b600160008273ffffffffffffffffffffffffffffffffffffffff1673ffffffffffffffffffffffffffffffffffffffff16815260200190815260200160002060080160009054906101000a900460ff16610c3b576040517f08c379a0000000000000000000000000000000000000000000000000000000008152600401610c3290612f8c565b60405180910390fd5b60405180610100016040528060065481526020013373ffffffffffffffffffffffffffffffffffffffff1681526020018273ffffffffffffffffffffffffffffffffffffffff1681526020018481526020016000815260200183815260200160006003811115610cae57610cad6128a6565b5b8152602001600160008473ffffffffffffffffffffffffffffffffffffffff1673ffffffffffffffffffffffffffffffffffffffff168152602001908152602001600020600601548152506002600060065481526020019081526020016000206000820151816000015560208201518160010160006101000a81548173ffffffffffffffffffffffffffffffffffffffff021916908373ffffffffffffffffffffffffffffffffffffffff16021790555060408201518160020160006101000a81548173ffffffffffffffffffffffffffffffffffffffff021916908373ffffffffffffffffffffffffffffffffffffffff160217905550606082015181600301556080820151816004015560a0820151816005015560c08201518160060160006101000a81548160ff02191690836003811115610def57610dee6128a6565b5b021790555060e082015181600701559050508073ffffffffffffffffffffffffffffffffffffffff163373ffffffffffffffffffffffffffffffffffffffff166006547fdc60aa6fe6ea1316bf5acc811851e823e68d2aa48e0b9e4ecc3650b38b9303f686604051610e6191906127c5565b60405180910390a460066000815480929190610e7c90612fac565b9190505550505050565b60016020528060005260406000206000915090508060000160009054906101000a900473ffffffffffffffffffffffffffffffffffffffff1690806001018054610ecf90612bdd565b80601f0160208091040260200160405190810160405280929190818152602001828054610efb90612bdd565b8015610f485780601f10610f1d57610100808354040283529160200191610f48565b820191906000526020600020905b815481529060010190602001808311610f2b57829003601f168201915b505050505090806002018054610f5d90612bdd565b80601f0160208091040260200160405190810160405280929190818152602001828054610f8990612bdd565b8015610fd65780601f10610fab57610100808354040283529160200191610fd6565b820191906000526020600020905b815481529060010190602001808311610fb957829003601f168201915b505050505090806003018054610feb90612bdd565b80601f016020809104026020016040519081016040528092919081815260200182805461101790612bdd565b80156110645780601f1061103957610100808354040283529160200191611064565b820191906000526020600020905b81548152906001019060200180831161104757829003601f168201915b50505050509080600401805461107990612bdd565b80601f01602080910402602001604051908101604052809291908181526020018280546110a590612bdd565b80156110f25780601f106110c7576101008083540402835291602001916110f2565b820191906000526020600020905b8154815290600101906020018083116110d557829003601f168201915b50505050509080600501805461110790612bdd565b80601f016020809104026020016040519081016040528092919081815260200182805461113390612bdd565b80156111805780601f1061115557610100808354040283529160200191611180565b820191906000526020600020905b81548152906001019060200180831161116357829003601f168201915b5050505050908060060154908060070154908060080160009054906101000a900460ff16905089565b6060600480548060200260200160405190810160405280929190818152602001828054801561122d57602002820191906000526020600020905b8160009054906101000a900473ffffffffffffffffffffffffffffffffffffffff1673ffffffffffffffffffffffffffffffffffffffff16815260200190600101908083116111e3575b5050505050905090565b6000803373ffffffffffffffffffffffffffffffffffffffff1673ffffffffffffffffffffffffffffffffffffffff16815260200190815260200160002060090160009054906101000a900460ff16156112c6576040517f08c379a00000000000000000000000000000000000000000000000000000000081526004016112bd90612b8e565b60405180910390fd5b600160003373ffffffffffffffffffffffffffffffffffffffff1673ffffffffffffffffffffffffffffffffffffffff16815260200190815260200160002060080160009054906101000a900460ff1615611356576040517f08c379a000000000000000000000000000000000000000000000000000000000815260040161134d90612b22565b60405180910390fd5b6040518061014001604052803373ffffffffffffffffffffffffffffffffffffffff1681526020018781526020018681526020018581526020018481526020018381526020018281526020016000815260200160008152602001600115158152506000803373ffffffffffffffffffffffffffffffffffffffff1673ffffffffffffffffffffffffffffffffffffffff16815260200190815260200160002060008201518160000160006101000a81548173ffffffffffffffffffffffffffffffffffffffff021916908373ffffffffffffffffffffffffffffffffffffffff16021790555060208201518160010190816114519190612dba565b5060408201518160020190816114679190612dba565b50606082015181600301908161147d9190612dba565b5060808201518160040190816114939190612dba565b5060a08201518160050190816114a99190612dba565b5060c08201518160060190816114bf9190612dba565b5060e0820151816007015561010082015181600801556101208201518160090160006101000a81548160ff0219169083151502179055509050506004339080600181540180825580915050600190039060005260206000200160009091909190916101000a81548173ffffffffffffffffffffffffffffffffffffffff021916908373ffffffffffffffffffffffffffffffffffffffff1602179055503373ffffffffffffffffffffffffffffffffffffffff167fad7643ffda2662b73e08209d1aad3fd64491a9e3818d06f4e7d24d0df9759778856040516115a29190612e8c565b60405180910390a2505050505050565b606060036000838152602001908152602001600020805480602002602001604051908101604052809291908181526020016000905b828210156116e357838290600052602060002090600502016040518060a0016040529081600082015481526020016001820160009054906101000a900473ffffffffffffffffffffffffffffffffffffffff1673ffffffffffffffffffffffffffffffffffffffff1673ffffffffffffffffffffffffffffffffffffffff1681526020016002820160009054906101000a900473ffffffffffffffffffffffffffffffffffffffff1673ffffffffffffffffffffffffffffffffffffffff1673ffffffffffffffffffffffffffffffffffffffff16815260200160038201548152602001600482015481525050815260200190600101906115e7565b505050509050919050565b600581815481106116fe57600080fd5b906000526020600020016000915054906101000a900473ffffffffffffffffffffffffffffffffffffffff1681565b60065481565b606060058054806020026020016040519081016040528092919081815260200182805480156117b757602002820191906000526020600020905b8160009054906101000a900473ffffffffffffffffffffffffffffffffffffffff1673ffffffffffffffffffffffffffffffffffffffff168152602001906001019080831161176d575b5050505050905090565b600160003373ffffffffffffffffffffffffffffffffffffffff1673ffffffffffffffffffffffffffffffffffffffff16815260200190815260200160002060080160009054906101000a900460ff16611850576040517f08c379a000000000000000000000000000000000000000000000000000000000815260040161184790613066565b60405180910390fd5b3373ffffffffffffffffffffffffffffffffffffffff166002600083815260200190815260200160002060020160009054906101000a900473ffffffffffffffffffffffffffffffffffffffff1673ffffffffffffffffffffffffffffffffffffffff16146118f4576040517f08c379a00000000000000000000000000000000000000000000000000000000081526004016118eb906130f8565b60405180910390fd5b60006003811115611908576119076128a6565b5b6002600083815260200190815260200160002060060160009054906101000a900460ff16600381111561193e5761193d6128a6565b5b1461197e576040517f08c379a000000000000000000000000000000000000000000000000000000000815260040161197590613164565b60405180910390fd5b60016002600083815260200190815260200160002060060160006101000a81548160ff021916908360038111156119b8576119b76128a6565b5b02179055503373ffffffffffffffffffffffffffffffffffffffff16817f8b6240997bc3af56f5a9aec0408b8286fb78fb0573f2ba96445be3918511cb9360405160405180910390a350565b60048181548110611a1457600080fd5b906000526020600020016000915054906101000a900473ffffffffffffffffffffffffffffffffffffffff1681565b60006020528060005260406000206000915090508060000160009054906101000a900473ffffffffffffffffffffffffffffffffffffffff1690806001018054611a8c90612bdd565b80601f0160208091040260200160405190810160405280929190818152602001828054611ab890612bdd565b8015611b055780601f10611ada57610100808354040283529160200191611b05565b820191906000526020600020905b815481529060010190602001808311611ae857829003601f168201915b505050505090806002018054611b1a90612bdd565b80601f0160208091040260200160405190810160405280929190818152602001828054611b4690612bdd565b8015611b935780601f10611b6857610100808354040283529160200191611b93565b820191906000526020600020905b815481529060010190602001808311611b7657829003601f168201915b505050505090806003018054611ba890612bdd565b80601f0160208091040260200160405190810160405280929190818152602001828054611bd490612bdd565b8015611c215780601f10611bf657610100808354040283529160200191611c21565b820191906000526020600020905b815481529060010190602001808311611c0457829003601f168201915b505050505090806004018054611c3690612bdd565b80601f0160208091040260200160405190810160405280929190818152602001828054611c6290612bdd565b8015611caf5780601f10611c8457610100808354040283529160200191611caf565b820191906000526020600020905b815481529060010190602001808311611c9257829003601f168201915b505050505090806005018054611cc490612bdd565b80601f0160208091040260200160405190810160405280929190818152602001828054611cf090612bdd565b8015611d3d5780601f10611d1257610100808354040283529160200191611d3d565b820191906000526020600020905b815481529060010190602001808311611d2057829003601f168201915b505050505090806006018054611d5290612bdd565b80601f0160208091040260200160405190810160405280929190818152602001828054611d7e90612bdd565b8015611dcb5780601f10611da057610100808354040283529160200191611dcb565b820191906000526020600020905b815481529060010190602001808311611dae57829003601f168201915b5050505050908060070154908060080154908060090160009054906101000a900460ff1690508a565b60026020528060005260406000206000915090508060000154908060010160009054906101000a900473ffffffffffffffffffffffffffffffffffffffff16908060020160009054906101000a900473ffffffffffffffffffffffffffffffffffffffff16908060030154908060040154908060050154908060060160009054906101000a900460ff16908060070154905088565b6000604051905090565b600080fd5b600080fd5b6000819050919050565b611eb081611e9d565b8114611ebb57600080fd5b50565b600081359050611ecd81611ea7565b92915050565b60008060408385031215611eea57611ee9611e93565b5b6000611ef885828601611ebe565b9250506020611f0985828601611ebe565b9150509250929050565b611f1c81611e9d565b82525050565b600073ffffffffffffffffffffffffffffffffffffffff82169050919050565b6000611f4d82611f22565b9050919050565b611f5d81611f42565b82525050565b600060a082019050611f786000830188611f13565b611f856020830187611f54565b611f926040830186611f54565b611f9f6060830185611f13565b611fac6080830184611f13565b9695505050505050565b600080fd5b600080fd5b6000601f19601f8301169050919050565b7f4e487b7100000000000000000000000000000000000000000000000000000000600052604160045260246000fd5b61200982611fc0565b810181811067ffffffffffffffff8211171561202857612027611fd1565b5b80604052505050565b600061203b611e89565b90506120478282612000565b919050565b600067ffffffffffffffff82111561206757612066611fd1565b5b61207082611fc0565b9050602081019050919050565b82818337600083830152505050565b600061209f61209a8461204c565b612031565b9050828152602081018484840111156120bb576120ba611fbb565b5b6120c684828561207d565b509392505050565b600082601f8301126120e3576120e2611fb6565b5b81356120f384826020860161208c565b91505092915050565b600080600080600080600060e0888a03121561211b5761211a611e93565b5b600088013567ffffffffffffffff81111561213957612138611e98565b5b6121458a828b016120ce565b975050602088013567ffffffffffffffff81111561216657612165611e98565b5b6121728a828b016120ce565b965050604088013567ffffffffffffffff81111561219357612192611e98565b5b61219f8a828b016120ce565b955050606088013567ffffffffffffffff8111156121c0576121bf611e98565b5b6121cc8a828b016120ce565b945050608088013567ffffffffffffffff8111156121ed576121ec611e98565b5b6121f98a828b016120ce565b93505060a061220a8a828b01611ebe565b92505060c061221b8a828b01611ebe565b91505092959891949750929550565b61223381611f42565b811461223e57600080fd5b50565b6000813590506122508161222a565b92915050565b60008060006060848603121561226f5761226e611e93565b5b600061227d86828701611ebe565b935050602061228e86828701611ebe565b925050604061229f86828701612241565b9150509250925092565b6000602082840312156122bf576122be611e93565b5b60006122cd84828501612241565b91505092915050565b600081519050919050565b600082825260208201905092915050565b60005b838110156123105780820151818401526020810190506122f5565b60008484015250505050565b6000612327826122d6565b61233181856122e1565b93506123418185602086016122f2565b61234a81611fc0565b840191505092915050565b60008115159050919050565b61236a81612355565b82525050565b600061012082019050612386600083018c611f54565b8181036020830152612398818b61231c565b905081810360408301526123ac818a61231c565b905081810360608301526123c0818961231c565b905081810360808301526123d4818861231c565b905081810360a08301526123e8818761231c565b90506123f760c0830186611f13565b61240460e0830185611f13565b612412610100830184612361565b9a9950505050505050505050565b600081519050919050565b600082825260208201905092915050565b6000819050602082019050919050565b61245581611f42565b82525050565b6000612467838361244c565b60208301905092915050565b6000602082019050919050565b600061248b82612420565b612495818561242b565b93506124a08361243c565b8060005b838110156124d15781516124b8888261245b565b97506124c383612473565b9250506001810190506124a4565b5085935050505092915050565b600060208201905081810360008301526124f88184612480565b905092915050565b60008060008060008060c0878903121561251d5761251c611e93565b5b600087013567ffffffffffffffff81111561253b5761253a611e98565b5b61254789828a016120ce565b965050602087013567ffffffffffffffff81111561256857612567611e98565b5b61257489828a016120ce565b955050604087013567ffffffffffffffff81111561259557612594611e98565b5b6125a189828a016120ce565b945050606087013567ffffffffffffffff8111156125c2576125c1611e98565b5b6125ce89828a016120ce565b935050608087013567ffffffffffffffff8111156125ef576125ee611e98565b5b6125fb89828a016120ce565b92505060a087013567ffffffffffffffff81111561261c5761261b611e98565b5b61262889828a016120ce565b9150509295509295509295565b60006020828403121561264b5761264a611e93565b5b600061265984828501611ebe565b91505092915050565b600081519050919050565b600082825260208201905092915050565b6000819050602082019050919050565b61269781611e9d565b82525050565b60a0820160008201516126b3600085018261268e565b5060208201516126c6602085018261244c565b5060408201516126d9604085018261244c565b5060608201516126ec606085018261268e565b5060808201516126ff608085018261268e565b50505050565b6000612711838361269d565b60a08301905092915050565b6000602082019050919050565b600061273582612662565b61273f818561266d565b935061274a8361267e565b8060005b8381101561277b5781516127628882612705565b975061276d8361271d565b92505060018101905061274e565b5085935050505092915050565b600060208201905081810360008301526127a2818461272a565b905092915050565b60006020820190506127bf6000830184611f54565b92915050565b60006020820190506127da6000830184611f13565b92915050565b6000610140820190506127f6600083018d611f54565b8181036020830152612808818c61231c565b9050818103604083015261281c818b61231c565b90508181036060830152612830818a61231c565b90508181036080830152612844818961231c565b905081810360a0830152612858818861231c565b905081810360c083015261286c818761231c565b905061287b60e0830186611f13565b612889610100830185611f13565b612897610120830184612361565b9b9a5050505050505050505050565b7f4e487b7100000000000000000000000000000000000000000000000000000000600052602160045260246000fd5b600481106128e6576128e56128a6565b5b50565b60008190506128f7826128d5565b919050565b6000612907826128e9565b9050919050565b612917816128fc565b82525050565b600061010082019050612933600083018b611f13565b612940602083018a611f54565b61294d6040830189611f54565b61295a6060830188611f13565b6129676080830187611f13565b61297460a0830186611f13565b61298160c083018561290e565b61298e60e0830184611f13565b9998505050505050505050565b7f4c6f616e206e6f7420617070726f766564000000000000000000000000000000600082015250565b60006129d16011836122e1565b91506129dc8261299b565b602082019050919050565b60006020820190508181036000830152612a00816129c4565b9050919050565b7f4f6e6c7920626f72726f7765722063616e206d616b65207061796d656e747300600082015250565b6000612a3d601f836122e1565b9150612a4882612a07565b602082019050919050565b60006020820190508181036000830152612a6c81612a30565b9050919050565b7f4e487b7100000000000000000000000000000000000000000000000000000000600052601160045260246000fd5b6000612aad82611e9d565b9150612ab883611e9d565b9250828201905080821115612ad057612acf612a73565b5b92915050565b7f416c726561647920726567697374657265642061732061206c656e6465720000600082015250565b6000612b0c601e836122e1565b9150612b1782612ad6565b602082019050919050565b60006020820190508181036000830152612b3b81612aff565b9050919050565b7f416c72656164792072656769737465726564206173206120626f72726f776572600082015250565b6000612b786020836122e1565b9150612b8382612b42565b602082019050919050565b60006020820190508181036000830152612ba781612b6b565b9050919050565b7f4e487b7100000000000000000000000000000000000000000000000000000000600052602260045260246000fd5b60006002820490506001821680612bf557607f821691505b602082108103612c0857612c07612bae565b5b50919050565b60008190508160005260206000209050919050565b60006020601f8301049050919050565b600082821b905092915050565b600060088302612c707fffffffffffffffffffffffffffffffffffffffffffffffffffffffffffffffff82612c33565b612c7a8683612c33565b95508019841693508086168417925050509392505050565b6000819050919050565b6000612cb7612cb2612cad84611e9d565b612c92565b611e9d565b9050919050565b6000819050919050565b612cd183612c9c565b612ce5612cdd82612cbe565b848454612c40565b825550505050565b600090565b612cfa612ced565b612d05818484612cc8565b505050565b5b81811015612d2957612d1e600082612cf2565b600181019050612d0b565b5050565b601f821115612d6e57612d3f81612c0e565b612d4884612c23565b81016020851015612d57578190505b612d6b612d6385612c23565b830182612d0a565b50505b505050565b600082821c905092915050565b6000612d9160001984600802612d73565b1980831691505092915050565b6000612daa8383612d80565b9150826002028217905092915050565b612dc3826122d6565b67ffffffffffffffff811115612ddc57612ddb611fd1565b5b612de68254612bdd565b612df1828285612d2d565b600060209050601f831160018114612e245760008415612e12578287015190505b612e1c8582612d9e565b865550612e84565b601f198416612e3286612c0e565b60005b82811015612e5a57848901518255600182019150602085019450602081019050612e35565b86831015612e775784890151612e73601f891682612d80565b8355505b6001600288020188555050505b505050505050565b60006020820190508181036000830152612ea6818461231c565b905092915050565b7f4f6e6c79207265676973746572656420626f72726f776572732063616e20726560008201527f7175657374206c6f616e73000000000000000000000000000000000000000000602082015250565b6000612f0a602b836122e1565b9150612f1582612eae565b604082019050919050565b60006020820190508181036000830152612f3981612efd565b9050919050565b7f4c656e646572206e6f7420666f756e6400000000000000000000000000000000600082015250565b6000612f766010836122e1565b9150612f8182612f40565b602082019050919050565b60006020820190508181036000830152612fa581612f69565b9050919050565b6000612fb782611e9d565b91507fffffffffffffffffffffffffffffffffffffffffffffffffffffffffffffffff8203612fe957612fe8612a73565b5b600182019050919050565b7f4f6e6c792072656769737465726564206c656e646572732063616e206170707260008201527f6f7665206c6f616e730000000000000000000000000000000000000000000000602082015250565b60006130506029836122e1565b915061305b82612ff4565b604082019050919050565b6000602082019050818103600083015261307f81613043565b9050919050565b7f4e6f7420617574686f72697a656420746f20617070726f76652074686973206c60008201527f6f616e0000000000000000000000000000000000000000000000000000000000602082015250565b60006130e26023836122e1565b91506130ed82613086565b604082019050919050565b60006020820190508181036000830152613111816130d5565b9050919050565b7f4c6f616e20616c72656164792070726f63657373656400000000000000000000600082015250565b600061314e6016836122e1565b915061315982613118565b602082019050919050565b6000602082019050818103600083015261317d81613141565b905091905056fea264697066735822122004d358981550b36d045c4eca61d5d02d8dd6d61f4578e8449fa94160df2d90b064736f6c63430008130033",
  "linkReferences": {},
  "deployedLinkReferences": {}
}