{
  "_format": "hh-sol-artifact-1",
  "contractName": "UnifiedLending",
  "sourceName": "contracts/UnifiedLending.sol",
  "abi": [
    {
      "anonymous": false,
      "inputs": [
        {
          "indexed": true,
          "internalType": "address",
          "name": "borrower",
          "type": "address"
        },
        {
          "indexed": false,
          "internalType": "string",
          "name": "name",
          "type": "string"
        }
      ],
      "name": "BorrowerRegistered",
      "type": "event"
    },
    {
      "anonymous": false,
      "inputs": [
        {
          "indexed": true,
          "internalType": "address",
          "name": "lender",
          "type": "address"
        },
        {
          "indexed": false,
          "internalType": "string",
          "name": "name",
          "type": "string"
        }
      ],
      "name": "LenderRegistered",
      "type": "event"
    },
    {
      "anonymous": false,
      "inputs": [
        {
          "indexed": true,
          "internalType": "uint256",
          "name": "loanId",
          "type": "uint256"
        },
        {
          "indexed": true,
          "internalType": "address",
          "name": "lender",
          "type": "address"
        }
      ],
      "name": "LoanApproved",
      "type": "event"
    },
    {
      "anonymous": false,
      "inputs": [
        {
          "indexed": true,
          "internalType": "uint256",
          "name": "loanId",
          "type": "uint256"
        },
        {
          "indexed": true,
          "internalType": "address",
          "name": "lender",
          "type": "address"
        }
      ],
      "name": "LoanRejected",
      "type": "event"
    },
    {
      "anonymous": false,
      "inputs": [
        {
          "indexed": true,
          "internalType": "uint256",
          "name": "loanId",
          "type": "uint256"
        },
        {
          "indexed": true,
          "internalType": "address",
          "name": "borrower",
          "type": "address"
        },
        {
          "indexed": true,
          "internalType": "address",
          "name": "lender",
          "type": "address"
        },
        {
          "indexed": false,
          "internalType": "uint256",
          "name": "amount",
          "type": "uint256"
        }
      ],
      "name": "LoanRequested",
      "type": "event"
    },
    {
      "anonymous": false,
      "inputs": [
        {
          "indexed": true,
          "internalType": "uint256",
          "name": "loanId",
          "type": "uint256"
        },
        {
          "indexed": true,
          "internalType": "address",
          "name": "from",
          "type": "address"
        },
        {
          "indexed": true,
          "internalType": "address",
          "name": "to",
          "type": "address"
        },
        {
          "indexed": false,
          "internalType": "uint256",
          "name": "amount",
          "type": "uint256"
        }
      ],
      "name": "PaymentMade",
      "type": "event"
    },
    {
      "inputs": [
        {
          "internalType": "uint256",
          "name": "_loanId",
          "type": "uint256"
        }
      ],
      "name": "approveLoan",
      "outputs": [],
      "stateMutability": "nonpayable",
      "type": "function"
    },
    {
      "inputs": [
        {
          "internalType": "uint256",
          "name": "",
          "type": "uint256"
        }
      ],
      "name": "borrowerList",
      "outputs": [
        {
          "internalType": "address",
          "name": "",
          "type": "address"
        }
      ],
      "stateMutability": "view",
      "type": "function"
    },
    {
      "inputs": [
        {
          "internalType": "address",
          "name": "",
          "type": "address"
        }
      ],
      "name": "borrowers",
      "outputs": [
        {
          "internalType": "address",
          "name": "borrowerAddress",
          "type": "address"
        },
        {
          "internalType": "string",
          "name": "name",
          "type": "string"
        },
        {
          "internalType": "string",
          "name": "phone",
          "type": "string"
        },
        {
          "internalType": "string",
          "name": "email",
          "type": "string"
        },
        {
          "internalType": "uint256",
          "name": "creditScore",
          "type": "uint256"
        },
        {
          "internalType": "uint256",
          "name": "monthlyIncome",
          "type": "uint256"
        },
        {
          "internalType": "bool",
          "name": "isRegistered",
          "type": "bool"
        },
        {
          "internalType": "string",
          "name": "govidCID",
          "type": "string"
        },
        {
          "internalType": "string",
          "name": "signatureCID",
          "type": "string"
        }
      ],
      "stateMutability": "view",
      "type": "function"
    },
    {
      "inputs": [],
      "name": "getAllBorrowers",
      "outputs": [
        {
          "internalType": "address[]",
          "name": "",
          "type": "address[]"
        }
      ],
      "stateMutability": "view",
      "type": "function"
    },
    {
      "inputs": [],
      "name": "getAllLenders",
      "outputs": [
        {
          "internalType": "address[]",
          "name": "",
          "type": "address[]"
        }
      ],
      "stateMutability": "view",
      "type": "function"
    },
    {
      "inputs": [
        {
          "internalType": "address",
          "name": "_borrower",
          "type": "address"
        }
      ],
      "name": "getBorrowerProfile",
      "outputs": [
        {
          "components": [
            {
              "internalType": "address",
              "name": "borrowerAddress",
              "type": "address"
            },
            {
              "internalType": "string",
              "name": "name",
              "type": "string"
            },
            {
              "internalType": "string",
              "name": "phone",
              "type": "string"
            },
            {
              "internalType": "string",
              "name": "email",
              "type": "string"
            },
            {
              "internalType": "uint256",
              "name": "creditScore",
              "type": "uint256"
            },
            {
              "internalType": "uint256",
              "name": "monthlyIncome",
              "type": "uint256"
            },
            {
              "internalType": "bool",
              "name": "isRegistered",
              "type": "bool"
            },
            {
              "internalType": "string",
              "name": "govidCID",
              "type": "string"
            },
            {
              "internalType": "string",
              "name": "signatureCID",
              "type": "string"
            }
          ],
          "internalType": "struct UnifiedLending.Borrower",
          "name": "",
          "type": "tuple"
        }
      ],
      "stateMutability": "view",
      "type": "function"
    },
    {
      "inputs": [
        {
          "internalType": "address",
          "name": "_lender",
          "type": "address"
        }
      ],
      "name": "getLenderProfile",
      "outputs": [
        {
          "components": [
            {
              "internalType": "address",
              "name": "lenderAddress",
              "type": "address"
            },
            {
              "internalType": "string",
              "name": "name",
              "type": "string"
            },
            {
              "internalType": "string",
              "name": "phone",
              "type": "string"
            },
            {
              "internalType": "string",
              "name": "email",
              "type": "string"
            },
            {
              "internalType": "uint256",
              "name": "interestRate",
              "type": "uint256"
            },
            {
              "internalType": "uint256",
              "name": "monthlyIncome",
              "type": "uint256"
            },
            {
              "internalType": "uint256",
              "name": "creditScore",
              "type": "uint256"
            },
            {
              "internalType": "bool",
              "name": "isRegistered",
              "type": "bool"
            },
            {
              "internalType": "string",
              "name": "govidCID",
              "type": "string"
            },
            {
              "internalType": "string",
              "name": "signatureCID",
              "type": "string"
            }
          ],
          "internalType": "struct UnifiedLending.Lender",
          "name": "",
          "type": "tuple"
        }
      ],
      "stateMutability": "view",
      "type": "function"
    },
    {
      "inputs": [
        {
          "internalType": "uint256",
          "name": "_loanId",
          "type": "uint256"
        }
      ],
      "name": "getTransactions",
      "outputs": [
        {
          "components": [
            {
              "internalType": "uint256",
              "name": "loanId",
              "type": "uint256"
            },
            {
              "internalType": "address",
              "name": "from",
              "type": "address"
            },
            {
              "internalType": "address",
              "name": "to",
              "type": "address"
            },
            {
              "internalType": "uint256",
              "name": "amount",
              "type": "uint256"
            },
            {
              "internalType": "uint256",
              "name": "timestamp",
              "type": "uint256"
            }
          ],
          "internalType": "struct UnifiedLending.Transaction[]",
          "name": "",
          "type": "tuple[]"
        }
      ],
      "stateMutability": "view",
      "type": "function"
    },
    {
      "inputs": [
        {
          "internalType": "uint256",
          "name": "",
          "type": "uint256"
        }
      ],
      "name": "lenderList",
      "outputs": [
        {
          "internalType": "address",
          "name": "",
          "type": "address"
        }
      ],
      "stateMutability": "view",
      "type": "function"
    },
    {
      "inputs": [
        {
          "internalType": "address",
          "name": "",
          "type": "address"
        }
      ],
      "name": "lenders",
      "outputs": [
        {
          "internalType": "address",
          "name": "lenderAddress",
          "type": "address"
        },
        {
          "internalType": "string",
          "name": "name",
          "type": "string"
        },
        {
          "internalType": "string",
          "name": "phone",
          "type": "string"
        },
        {
          "internalType": "string",
          "name": "email",
          "type": "string"
        },
        {
          "internalType": "uint256",
          "name": "interestRate",
          "type": "uint256"
        },
        {
          "internalType": "uint256",
          "name": "monthlyIncome",
          "type": "uint256"
        },
        {
          "internalType": "uint256",
          "name": "creditScore",
          "type": "uint256"
        },
        {
          "internalType": "bool",
          "name": "isRegistered",
          "type": "bool"
        },
        {
          "internalType": "string",
          "name": "govidCID",
          "type": "string"
        },
        {
          "internalType": "string",
          "name": "signatureCID",
          "type": "string"
        }
      ],
      "stateMutability": "view",
      "type": "function"
    },
    {
      "inputs": [
        {
          "internalType": "uint256",
          "name": "",
          "type": "uint256"
        },
        {
          "internalType": "uint256",
          "name": "",
          "type": "uint256"
        }
      ],
      "name": "loanTransactions",
      "outputs": [
        {
          "internalType": "uint256",
          "name": "loanId",
          "type": "uint256"
        },
        {
          "internalType": "address",
          "name": "from",
          "type": "address"
        },
        {
          "internalType": "address",
          "name": "to",
          "type": "address"
        },
        {
          "internalType": "uint256",
          "name": "amount",
          "type": "uint256"
        },
        {
          "internalType": "uint256",
          "name": "timestamp",
          "type": "uint256"
        }
      ],
      "stateMutability": "view",
      "type": "function"
    },
    {
      "inputs": [
        {
          "internalType": "uint256",
          "name": "",
          "type": "uint256"
        }
      ],
      "name": "loans",
      "outputs": [
        {
          "internalType": "uint256",
          "name": "loanId",
          "type": "uint256"
        },
        {
          "internalType": "address",
          "name": "borrower",
          "type": "address"
        },
        {
          "internalType": "address",
          "name": "lender",
          "type": "address"
        },
        {
          "internalType": "uint256",
          "name": "amount",
          "type": "uint256"
        },
        {
          "internalType": "uint256",
          "name": "amountPaid",
          "type": "uint256"
        },
        {
          "internalType": "uint256",
          "name": "repaymentPeriod",
          "type": "uint256"
        },
        {
          "internalType": "enum UnifiedLending.LoanStatus",
          "name": "status",
          "type": "uint8"
        },
        {
          "internalType": "uint256",
          "name": "interestRate",
          "type": "uint256"
        }
      ],
      "stateMutability": "view",
      "type": "function"
    },
    {
      "inputs": [],
      "name": "nextLoanId",
      "outputs": [
        {
          "internalType": "uint256",
          "name": "",
          "type": "uint256"
        }
      ],
      "stateMutability": "view",
      "type": "function"
    },
    {
      "inputs": [
        {
          "internalType": "uint256",
          "name": "_loanId",
          "type": "uint256"
        },
        {
          "internalType": "uint256",
          "name": "_amount",
          "type": "uint256"
        }
      ],
      "name": "recordPayment",
      "outputs": [],
      "stateMutability": "nonpayable",
      "type": "function"
    },
    {
      "inputs": [
        {
          "internalType": "string",
          "name": "_name",
          "type": "string"
        },
        {
          "internalType": "string",
          "name": "_phone",
          "type": "string"
        },
        {
          "internalType": "string",
          "name": "_email",
          "type": "string"
        }
      ],
      "name": "registerBorrower",
      "outputs": [],
      "stateMutability": "nonpayable",
      "type": "function"
    },
    {
      "inputs": [
        {
          "internalType": "string",
          "name": "_name",
          "type": "string"
        },
        {
          "internalType": "string",
          "name": "_phone",
          "type": "string"
        },
        {
          "internalType": "string",
          "name": "_email",
          "type": "string"
        },
        {
          "internalType": "uint256",
          "name": "_interestRate",
          "type": "uint256"
        },
        {
          "internalType": "uint256",
          "name": "_monthlyIncome",
          "type": "uint256"
        }
      ],
      "name": "registerLender",
      "outputs": [],
      "stateMutability": "nonpayable",
      "type": "function"
    },
    {
      "inputs": [
        {
          "internalType": "uint256",
          "name": "_loanId",
          "type": "uint256"
        }
      ],
      "name": "rejectLoan",
      "outputs": [],
      "stateMutability": "nonpayable",
      "type": "function"
    },
    {
      "inputs": [
        {
          "internalType": "uint256",
          "name": "_amount",
          "type": "uint256"
        },
        {
          "internalType": "uint256",
          "name": "_repaymentPeriod",
          "type": "uint256"
        },
        {
          "internalType": "address",
          "name": "_lender",
          "type": "address"
        }
      ],
      "name": "requestLoan",
      "outputs": [],
      "stateMutability": "nonpayable",
      "type": "function"
    },
    {
      "inputs": [
        {
          "components": [
            {
              "internalType": "string",
              "name": "name",
              "type": "string"
            },
            {
              "internalType": "string",
              "name": "phone",
              "type": "string"
            },
            {
              "internalType": "string",
              "name": "email",
              "type": "string"
            },
            {
              "internalType": "uint256",
              "name": "creditScore",
              "type": "uint256"
            },
            {
              "internalType": "uint256",
              "name": "interestRate",
              "type": "uint256"
            },
            {
              "internalType": "uint256",
              "name": "monthlyIncome",
              "type": "uint256"
            },
            {
              "internalType": "string",
              "name": "govidCID",
              "type": "string"
            },
            {
              "internalType": "string",
              "name": "signatureCID",
              "type": "string"
            }
          ],
          "internalType": "struct UnifiedLending.ProfileData",
          "name": "profileData",
          "type": "tuple"
        }
      ],
      "name": "updateBorrowerProfile",
      "outputs": [],
      "stateMutability": "nonpayable",
      "type": "function"
    },
    {
      "inputs": [
        {
          "components": [
            {
              "internalType": "string",
              "name": "name",
              "type": "string"
            },
            {
              "internalType": "string",
              "name": "phone",
              "type": "string"
            },
            {
              "internalType": "string",
              "name": "email",
              "type": "string"
            },
            {
              "internalType": "uint256",
              "name": "creditScore",
              "type": "uint256"
            },
            {
              "internalType": "uint256",
              "name": "interestRate",
              "type": "uint256"
            },
            {
              "internalType": "uint256",
              "name": "monthlyIncome",
              "type": "uint256"
            },
            {
              "internalType": "string",
              "name": "govidCID",
              "type": "string"
            },
            {
              "internalType": "string",
              "name": "signatureCID",
              "type": "string"
            }
          ],
          "internalType": "struct UnifiedLending.ProfileData",
          "name": "profileData",
          "type": "tuple"
        }
      ],
      "name": "updateLenderProfile",
      "outputs": [],
      "stateMutability": "nonpayable",
      "type": "function"
    }
  ],
  "bytecode": "0x6080604052600160065534801561001557600080fd5b5061458a806100256000396000f3fe608060405234801561001057600080fd5b506004361061012c5760003560e01c806389e5a599116100ad578063b3a6652411610071578063b3a665241461034c578063ba2ef29f1461037c578063bf5d50c414610398578063dfd1b479146103d0578063e1ec3c68146104005761012c565b806389e5a599146102be5780638b0a9b65146102da5780639b1daf4f146102f6578063a1666b5414610312578063aadc1ac1146103305761012c565b80635742177c116100f45780635742177c146101f45780635d29cb98146102245780636085c7df14610240578063873334041461027057806387c51459146102a05761012c565b80630b879bc21461013157806318ae50fd1461014d57806322385ed41461018157806328fd10d71461019d57806332abcdbe146101d6575b600080fd5b61014b60048036038101906101469190612e4a565b610437565b005b61016760048036038101906101629190612e4a565b610818565b604051610178959493929190612eda565b60405180910390f35b61019b60048036038101906101969190612f59565b6108ab565b005b6101b760048036038101906101b29190612fac565b610c13565b6040516101cd9a99989796959493929190613084565b60405180910390f35b6101de610f3c565b6040516101eb9190613201565b60405180910390f35b61020e60048036038101906102099190613223565b610fca565b60405161021b9190613376565b60405180910390f35b61023e60048036038101906102399190613223565b611106565b005b61025a60048036038101906102559190613223565b611348565b6040516102679190613398565b60405180910390f35b61028a60048036038101906102859190612fac565b611387565b60405161029791906134ed565b60405180910390f35b6102a86117cd565b6040516102b5919061350f565b60405180910390f35b6102d860048036038101906102d3919061365f565b6117d3565b005b6102f460048036038101906102ef919061372e565b611b5f565b005b610310600480360381019061030b91906137fa565b611ed8565b005b61031a61207f565b6040516103279190613201565b60405180910390f35b61034a60048036038101906103459190613223565b61210d565b005b61036660048036038101906103619190613223565b612350565b6040516103739190613398565b60405180910390f35b610396600480360381019061039191906137fa565b61238f565b005b6103b260048036038101906103ad9190612fac565b612527565b6040516103c799989796959493929190613843565b60405180910390f35b6103ea60048036038101906103e59190612fac565b61284a565b6040516103f791906139e9565b60405180910390f35b61041a60048036038101906104159190613223565b612c9c565b60405161042e989796959493929190613a82565b60405180910390f35b6001600381111561044b5761044a613a0b565b5b6002600084815260200190815260200160002060060160009054906101000a900460ff16600381111561048157610480613a0b565b5b146104c1576040517f08c379a00000000000000000000000000000000000000000000000000000000081526004016104b890613b4c565b60405180910390fd5b6002600083815260200190815260200160002060010160009054906101000a900473ffffffffffffffffffffffffffffffffffffffff1673ffffffffffffffffffffffffffffffffffffffff163373ffffffffffffffffffffffffffffffffffffffff1614610565576040517f08c379a000000000000000000000000000000000000000000000000000000000815260040161055c90613bb8565b60405180910390fd5b8060026000848152602001908152602001600020600401600082825461058b9190613c07565b92505081905550600360008381526020019081526020016000206040518060a001604052808481526020013373ffffffffffffffffffffffffffffffffffffffff1681526020016002600086815260200190815260200160002060020160009054906101000a900473ffffffffffffffffffffffffffffffffffffffff1673ffffffffffffffffffffffffffffffffffffffff1681526020018381526020014281525090806001815401808255809150506001900390600052602060002090600502016000909190919091506000820151816000015560208201518160010160006101000a81548173ffffffffffffffffffffffffffffffffffffffff021916908373ffffffffffffffffffffffffffffffffffffffff16021790555060408201518160020160006101000a81548173ffffffffffffffffffffffffffffffffffffffff021916908373ffffffffffffffffffffffffffffffffffffffff1602179055506060820151816003015560808201518160040155505060026000838152602001908152602001600020600301546002600084815260200190815260200160002060040154106107785760036002600084815260200190815260200160002060060160006101000a81548160ff0219169083600381111561077257610771613a0b565b5b02179055505b6002600083815260200190815260200160002060020160009054906101000a900473ffffffffffffffffffffffffffffffffffffffff1673ffffffffffffffffffffffffffffffffffffffff163373ffffffffffffffffffffffffffffffffffffffff16837fd51bb0381ff8d9476c9493a30eafdb1966dca4b0c0db1a2d4e244a3a8b16ffb88460405161080c919061350f565b60405180910390a45050565b6003602052816000526040600020818154811061083457600080fd5b9060005260206000209060050201600091509150508060000154908060010160009054906101000a900473ffffffffffffffffffffffffffffffffffffffff16908060020160009054906101000a900473ffffffffffffffffffffffffffffffffffffffff16908060030154908060040154905085565b6000803373ffffffffffffffffffffffffffffffffffffffff1673ffffffffffffffffffffffffffffffffffffffff16815260200190815260200160002060060160009054906101000a900460ff16610939576040517f08c379a000000000000000000000000000000000000000000000000000000000815260040161093090613c87565b60405180910390fd5b600160008273ffffffffffffffffffffffffffffffffffffffff1673ffffffffffffffffffffffffffffffffffffffff16815260200190815260200160002060070160009054906101000a900460ff166109c8576040517f08c379a00000000000000000000000000000000000000000000000000000000081526004016109bf90613cf3565b60405180910390fd5b60405180610100016040528060065481526020013373ffffffffffffffffffffffffffffffffffffffff1681526020018273ffffffffffffffffffffffffffffffffffffffff1681526020018481526020016000815260200183815260200160006003811115610a3b57610a3a613a0b565b5b8152602001600160008473ffffffffffffffffffffffffffffffffffffffff1673ffffffffffffffffffffffffffffffffffffffff168152602001908152602001600020600401548152506002600060065481526020019081526020016000206000820151816000015560208201518160010160006101000a81548173ffffffffffffffffffffffffffffffffffffffff021916908373ffffffffffffffffffffffffffffffffffffffff16021790555060408201518160020160006101000a81548173ffffffffffffffffffffffffffffffffffffffff021916908373ffffffffffffffffffffffffffffffffffffffff160217905550606082015181600301556080820151816004015560a0820151816005015560c08201518160060160006101000a81548160ff02191690836003811115610b7c57610b7b613a0b565b5b021790555060e082015181600701559050508073ffffffffffffffffffffffffffffffffffffffff163373ffffffffffffffffffffffffffffffffffffffff166006547fdc60aa6fe6ea1316bf5acc811851e823e68d2aa48e0b9e4ecc3650b38b9303f686604051610bee919061350f565b60405180910390a460066000815480929190610c0990613d13565b9190505550505050565b60016020528060005260406000206000915090508060000160009054906101000a900473ffffffffffffffffffffffffffffffffffffffff1690806001018054610c5c90613d8a565b80601f0160208091040260200160405190810160405280929190818152602001828054610c8890613d8a565b8015610cd55780601f10610caa57610100808354040283529160200191610cd5565b820191906000526020600020905b815481529060010190602001808311610cb857829003601f168201915b505050505090806002018054610cea90613d8a565b80601f0160208091040260200160405190810160405280929190818152602001828054610d1690613d8a565b8015610d635780601f10610d3857610100808354040283529160200191610d63565b820191906000526020600020905b815481529060010190602001808311610d4657829003601f168201915b505050505090806003018054610d7890613d8a565b80601f0160208091040260200160405190810160405280929190818152602001828054610da490613d8a565b8015610df15780601f10610dc657610100808354040283529160200191610df1565b820191906000526020600020905b815481529060010190602001808311610dd457829003601f168201915b5050505050908060040154908060050154908060060154908060070160009054906101000a900460ff1690806008018054610e2b90613d8a565b80601f0160208091040260200160405190810160405280929190818152602001828054610e5790613d8a565b8015610ea45780601f10610e7957610100808354040283529160200191610ea4565b820191906000526020600020905b815481529060010190602001808311610e8757829003601f168201915b505050505090806009018054610eb990613d8a565b80601f0160208091040260200160405190810160405280929190818152602001828054610ee590613d8a565b8015610f325780601f10610f0757610100808354040283529160200191610f32565b820191906000526020600020905b815481529060010190602001808311610f1557829003601f168201915b505050505090508a565b60606004805480602002602001604051908101604052809291908181526020018280548015610fc057602002820191906000526020600020905b8160009054906101000a900473ffffffffffffffffffffffffffffffffffffffff1673ffffffffffffffffffffffffffffffffffffffff1681526020019060010190808311610f76575b5050505050905090565b606060036000838152602001908152602001600020805480602002602001604051908101604052809291908181526020016000905b828210156110fb57838290600052602060002090600502016040518060a0016040529081600082015481526020016001820160009054906101000a900473ffffffffffffffffffffffffffffffffffffffff1673ffffffffffffffffffffffffffffffffffffffff1673ffffffffffffffffffffffffffffffffffffffff1681526020016002820160009054906101000a900473ffffffffffffffffffffffffffffffffffffffff1673ffffffffffffffffffffffffffffffffffffffff1673ffffffffffffffffffffffffffffffffffffffff1681526020016003820154815260200160048201548152505081526020019060010190610fff565b505050509050919050565b600160003373ffffffffffffffffffffffffffffffffffffffff1673ffffffffffffffffffffffffffffffffffffffff16815260200190815260200160002060070160009054906101000a900460ff16611195576040517f08c379a000000000000000000000000000000000000000000000000000000000815260040161118c90613e07565b60405180910390fd5b3373ffffffffffffffffffffffffffffffffffffffff166002600083815260200190815260200160002060020160009054906101000a900473ffffffffffffffffffffffffffffffffffffffff1673ffffffffffffffffffffffffffffffffffffffff1614611239576040517f08c379a000000000000000000000000000000000000000000000000000000000815260040161123090613e99565b60405180910390fd5b6000600381111561124d5761124c613a0b565b5b6002600083815260200190815260200160002060060160009054906101000a900460ff16600381111561128357611282613a0b565b5b146112c3576040517f08c379a00000000000000000000000000000000000000000000000000000000081526004016112ba90613f05565b60405180910390fd5b600280600083815260200190815260200160002060060160006101000a81548160ff021916908360038111156112fc576112fb613a0b565b5b02179055503373ffffffffffffffffffffffffffffffffffffffff16817fe7ba502e07e0f90def7143baaace80ef86ce4d26899461424511082ed678499f60405160405180910390a350565b6005818154811061135857600080fd5b906000526020600020016000915054906101000a900473ffffffffffffffffffffffffffffffffffffffff1681565b61138f612d31565b6000808373ffffffffffffffffffffffffffffffffffffffff1673ffffffffffffffffffffffffffffffffffffffff16815260200190815260200160002060060160009054906101000a900460ff1661141d576040517f08c379a000000000000000000000000000000000000000000000000000000000815260040161141490613f71565b60405180910390fd5b6000808373ffffffffffffffffffffffffffffffffffffffff1673ffffffffffffffffffffffffffffffffffffffff168152602001908152602001600020604051806101200160405290816000820160009054906101000a900473ffffffffffffffffffffffffffffffffffffffff1673ffffffffffffffffffffffffffffffffffffffff1673ffffffffffffffffffffffffffffffffffffffff1681526020016001820180546114cd90613d8a565b80601f01602080910402602001604051908101604052809291908181526020018280546114f990613d8a565b80156115465780601f1061151b57610100808354040283529160200191611546565b820191906000526020600020905b81548152906001019060200180831161152957829003601f168201915b5050505050815260200160028201805461155f90613d8a565b80601f016020809104026020016040519081016040528092919081815260200182805461158b90613d8a565b80156115d85780601f106115ad576101008083540402835291602001916115d8565b820191906000526020600020905b8154815290600101906020018083116115bb57829003601f168201915b505050505081526020016003820180546115f190613d8a565b80601f016020809104026020016040519081016040528092919081815260200182805461161d90613d8a565b801561166a5780601f1061163f5761010080835404028352916020019161166a565b820191906000526020600020905b81548152906001019060200180831161164d57829003601f168201915b5050505050815260200160048201548152602001600582015481526020016006820160009054906101000a900460ff161515151581526020016007820180546116b290613d8a565b80601f01602080910402602001604051908101604052809291908181526020018280546116de90613d8a565b801561172b5780601f106117005761010080835404028352916020019161172b565b820191906000526020600020905b81548152906001019060200180831161170e57829003601f168201915b5050505050815260200160088201805461174490613d8a565b80601f016020809104026020016040519081016040528092919081815260200182805461177090613d8a565b80156117bd5780601f10611792576101008083540402835291602001916117bd565b820191906000526020600020905b8154815290600101906020018083116117a057829003601f168201915b5050505050815250509050919050565b60065481565b600160003373ffffffffffffffffffffffffffffffffffffffff1673ffffffffffffffffffffffffffffffffffffffff16815260200190815260200160002060070160009054906101000a900460ff1615611863576040517f08c379a000000000000000000000000000000000000000000000000000000000815260040161185a90613fdd565b60405180910390fd5b6000803373ffffffffffffffffffffffffffffffffffffffff1673ffffffffffffffffffffffffffffffffffffffff16815260200190815260200160002060060160009054906101000a900460ff16156118f2576040517f08c379a00000000000000000000000000000000000000000000000000000000081526004016118e990614049565b60405180910390fd5b6040518061014001604052803373ffffffffffffffffffffffffffffffffffffffff1681526020018681526020018581526020018481526020018381526020018281526020016000815260200160011515815260200160405180602001604052806000815250815260200160405180602001604052806000815250815250600160003373ffffffffffffffffffffffffffffffffffffffff1673ffffffffffffffffffffffffffffffffffffffff16815260200190815260200160002060008201518160000160006101000a81548173ffffffffffffffffffffffffffffffffffffffff021916908373ffffffffffffffffffffffffffffffffffffffff1602179055506020820151816001019081611a0b9190614215565b506040820151816002019081611a219190614215565b506060820151816003019081611a379190614215565b506080820151816004015560a0820151816005015560c0820151816006015560e08201518160070160006101000a81548160ff021916908315150217905550610100820151816008019081611a8c9190614215565b50610120820151816009019081611aa39190614215565b509050506005339080600181540180825580915050600190039060005260206000200160009091909190916101000a81548173ffffffffffffffffffffffffffffffffffffffff021916908373ffffffffffffffffffffffffffffffffffffffff1602179055503373ffffffffffffffffffffffffffffffffffffffff167fc3f44b19b0cf208e98a093111600b89bc42261326cf162a821382b148b093f8c86604051611b5091906142e7565b60405180910390a25050505050565b6000803373ffffffffffffffffffffffffffffffffffffffff1673ffffffffffffffffffffffffffffffffffffffff16815260200190815260200160002060060160009054906101000a900460ff1615611bee576040517f08c379a0000000000000000000000000000000000000000000000000000000008152600401611be590614049565b60405180910390fd5b600160003373ffffffffffffffffffffffffffffffffffffffff1673ffffffffffffffffffffffffffffffffffffffff16815260200190815260200160002060070160009054906101000a900460ff1615611c7e576040517f08c379a0000000000000000000000000000000000000000000000000000000008152600401611c7590613fdd565b60405180910390fd5b6040518061012001604052803373ffffffffffffffffffffffffffffffffffffffff1681526020018481526020018381526020018281526020016000815260200160008152602001600115158152602001604051806020016040528060008152508152602001604051806020016040528060008152508152506000803373ffffffffffffffffffffffffffffffffffffffff1673ffffffffffffffffffffffffffffffffffffffff16815260200190815260200160002060008201518160000160006101000a81548173ffffffffffffffffffffffffffffffffffffffff021916908373ffffffffffffffffffffffffffffffffffffffff1602179055506020820151816001019081611d919190614215565b506040820151816002019081611da79190614215565b506060820151816003019081611dbd9190614215565b506080820151816004015560a0820151816005015560c08201518160060160006101000a81548160ff02191690831515021790555060e0820151816007019081611e079190614215565b50610100820151816008019081611e1e9190614215565b509050506004339080600181540180825580915050600190039060005260206000200160009091909190916101000a81548173ffffffffffffffffffffffffffffffffffffffff021916908373ffffffffffffffffffffffffffffffffffffffff1602179055503373ffffffffffffffffffffffffffffffffffffffff167fad7643ffda2662b73e08209d1aad3fd64491a9e3818d06f4e7d24d0df975977884604051611ecb91906142e7565b60405180910390a2505050565b600160003373ffffffffffffffffffffffffffffffffffffffff1673ffffffffffffffffffffffffffffffffffffffff16815260200190815260200160002060070160009054906101000a900460ff16611f67576040517f08c379a0000000000000000000000000000000000000000000000000000000008152600401611f5e90613e07565b60405180910390fd5b6000600160003373ffffffffffffffffffffffffffffffffffffffff1673ffffffffffffffffffffffffffffffffffffffff1681526020019081526020016000209050818060000190611fba9190614318565b826001019182611fcb929190614386565b50818060200190611fdc9190614318565b826002019182611fed929190614386565b50818060400190611ffe9190614318565b82600301918261200f929190614386565b50816080013581600401819055508160a00135816005018190555081606001358160060181905550818060c001906120479190614318565b826008019182612058929190614386565b50818060e001906120699190614318565b82600901918261207a929190614386565b505050565b6060600580548060200260200160405190810160405280929190818152602001828054801561210357602002820191906000526020600020905b8160009054906101000a900473ffffffffffffffffffffffffffffffffffffffff1673ffffffffffffffffffffffffffffffffffffffff16815260200190600101908083116120b9575b5050505050905090565b600160003373ffffffffffffffffffffffffffffffffffffffff1673ffffffffffffffffffffffffffffffffffffffff16815260200190815260200160002060070160009054906101000a900460ff1661219c576040517f08c379a000000000000000000000000000000000000000000000000000000000815260040161219390613e07565b60405180910390fd5b3373ffffffffffffffffffffffffffffffffffffffff166002600083815260200190815260200160002060020160009054906101000a900473ffffffffffffffffffffffffffffffffffffffff1673ffffffffffffffffffffffffffffffffffffffff1614612240576040517f08c379a0000000000000000000000000000000000000000000000000000000008152600401612237906144c8565b60405180910390fd5b6000600381111561225457612253613a0b565b5b6002600083815260200190815260200160002060060160009054906101000a900460ff16600381111561228a57612289613a0b565b5b146122ca576040517f08c379a00000000000000000000000000000000000000000000000000000000081526004016122c190613f05565b60405180910390fd5b60016002600083815260200190815260200160002060060160006101000a81548160ff0219169083600381111561230457612303613a0b565b5b02179055503373ffffffffffffffffffffffffffffffffffffffff16817f8b6240997bc3af56f5a9aec0408b8286fb78fb0573f2ba96445be3918511cb9360405160405180910390a350565b6004818154811061236057600080fd5b906000526020600020016000915054906101000a900473ffffffffffffffffffffffffffffffffffffffff1681565b6000803373ffffffffffffffffffffffffffffffffffffffff1673ffffffffffffffffffffffffffffffffffffffff16815260200190815260200160002060060160009054906101000a900460ff1661241d576040517f08c379a000000000000000000000000000000000000000000000000000000000815260040161241490613c87565b60405180910390fd5b60008060003373ffffffffffffffffffffffffffffffffffffffff1673ffffffffffffffffffffffffffffffffffffffff168152602001908152602001600020905081806000019061246f9190614318565b826001019182612480929190614386565b508180602001906124919190614318565b8260020191826124a2929190614386565b508180604001906124b39190614318565b8260030191826124c4929190614386565b50816060013581600401819055508160a001358160050181905550818060c001906124ef9190614318565b826007019182612500929190614386565b50818060e001906125119190614318565b826008019182612522929190614386565b505050565b60006020528060005260406000206000915090508060000160009054906101000a900473ffffffffffffffffffffffffffffffffffffffff169080600101805461257090613d8a565b80601f016020809104026020016040519081016040528092919081815260200182805461259c90613d8a565b80156125e95780601f106125be576101008083540402835291602001916125e9565b820191906000526020600020905b8154815290600101906020018083116125cc57829003601f168201915b5050505050908060020180546125fe90613d8a565b80601f016020809104026020016040519081016040528092919081815260200182805461262a90613d8a565b80156126775780601f1061264c57610100808354040283529160200191612677565b820191906000526020600020905b81548152906001019060200180831161265a57829003601f168201915b50505050509080600301805461268c90613d8a565b80601f01602080910402602001604051908101604052809291908181526020018280546126b890613d8a565b80156127055780601f106126da57610100808354040283529160200191612705565b820191906000526020600020905b8154815290600101906020018083116126e857829003601f168201915b5050505050908060040154908060050154908060060160009054906101000a900460ff169080600701805461273990613d8a565b80601f016020809104026020016040519081016040528092919081815260200182805461276590613d8a565b80156127b25780601f10612787576101008083540402835291602001916127b2565b820191906000526020600020905b81548152906001019060200180831161279557829003601f168201915b5050505050908060080180546127c790613d8a565b80601f01602080910402602001604051908101604052809291908181526020018280546127f390613d8a565b80156128405780601f1061281557610100808354040283529160200191612840565b820191906000526020600020905b81548152906001019060200180831161282357829003601f168201915b5050505050905089565b612852612d95565b600160008373ffffffffffffffffffffffffffffffffffffffff1673ffffffffffffffffffffffffffffffffffffffff16815260200190815260200160002060070160009054906101000a900460ff166128e1576040517f08c379a00000000000000000000000000000000000000000000000000000000081526004016128d890614534565b60405180910390fd5b600160008373ffffffffffffffffffffffffffffffffffffffff1673ffffffffffffffffffffffffffffffffffffffff168152602001908152602001600020604051806101400160405290816000820160009054906101000a900473ffffffffffffffffffffffffffffffffffffffff1673ffffffffffffffffffffffffffffffffffffffff1673ffffffffffffffffffffffffffffffffffffffff16815260200160018201805461299290613d8a565b80601f01602080910402602001604051908101604052809291908181526020018280546129be90613d8a565b8015612a0b5780601f106129e057610100808354040283529160200191612a0b565b820191906000526020600020905b8154815290600101906020018083116129ee57829003601f168201915b50505050508152602001600282018054612a2490613d8a565b80601f0160208091040260200160405190810160405280929190818152602001828054612a5090613d8a565b8015612a9d5780601f10612a7257610100808354040283529160200191612a9d565b820191906000526020600020905b815481529060010190602001808311612a8057829003601f168201915b50505050508152602001600382018054612ab690613d8a565b80601f0160208091040260200160405190810160405280929190818152602001828054612ae290613d8a565b8015612b2f5780601f10612b0457610100808354040283529160200191612b2f565b820191906000526020600020905b815481529060010190602001808311612b1257829003601f168201915b505050505081526020016004820154815260200160058201548152602001600682015481526020016007820160009054906101000a900460ff16151515158152602001600882018054612b8190613d8a565b80601f0160208091040260200160405190810160405280929190818152602001828054612bad90613d8a565b8015612bfa5780601f10612bcf57610100808354040283529160200191612bfa565b820191906000526020600020905b815481529060010190602001808311612bdd57829003601f168201915b50505050508152602001600982018054612c1390613d8a565b80601f0160208091040260200160405190810160405280929190818152602001828054612c3f90613d8a565b8015612c8c5780601f10612c6157610100808354040283529160200191612c8c565b820191906000526020600020905b815481529060010190602001808311612c6f57829003601f168201915b5050505050815250509050919050565b60026020528060005260406000206000915090508060000154908060010160009054906101000a900473ffffffffffffffffffffffffffffffffffffffff16908060020160009054906101000a900473ffffffffffffffffffffffffffffffffffffffff16908060030154908060040154908060050154908060060160009054906101000a900460ff16908060070154905088565b604051806101200160405280600073ffffffffffffffffffffffffffffffffffffffff168152602001606081526020016060815260200160608152602001600081526020016000815260200160001515815260200160608152602001606081525090565b604051806101400160405280600073ffffffffffffffffffffffffffffffffffffffff16815260200160608152602001606081526020016060815260200160008152602001600081526020016000815260200160001515815260200160608152602001606081525090565b6000604051905090565b600080fd5b600080fd5b6000819050919050565b612e2781612e14565b8114612e3257600080fd5b50565b600081359050612e4481612e1e565b92915050565b60008060408385031215612e6157612e60612e0a565b5b6000612e6f85828601612e35565b9250506020612e8085828601612e35565b9150509250929050565b612e9381612e14565b82525050565b600073ffffffffffffffffffffffffffffffffffffffff82169050919050565b6000612ec482612e99565b9050919050565b612ed481612eb9565b82525050565b600060a082019050612eef6000830188612e8a565b612efc6020830187612ecb565b612f096040830186612ecb565b612f166060830185612e8a565b612f236080830184612e8a565b9695505050505050565b612f3681612eb9565b8114612f4157600080fd5b50565b600081359050612f5381612f2d565b92915050565b600080600060608486031215612f7257612f71612e0a565b5b6000612f8086828701612e35565b9350506020612f9186828701612e35565b9250506040612fa286828701612f44565b9150509250925092565b600060208284031215612fc257612fc1612e0a565b5b6000612fd084828501612f44565b91505092915050565b600081519050919050565b600082825260208201905092915050565b60005b83811015613013578082015181840152602081019050612ff8565b60008484015250505050565b6000601f19601f8301169050919050565b600061303b82612fd9565b6130458185612fe4565b9350613055818560208601612ff5565b61305e8161301f565b840191505092915050565b60008115159050919050565b61307e81613069565b82525050565b60006101408201905061309a600083018d612ecb565b81810360208301526130ac818c613030565b905081810360408301526130c0818b613030565b905081810360608301526130d4818a613030565b90506130e36080830189612e8a565b6130f060a0830188612e8a565b6130fd60c0830187612e8a565b61310a60e0830186613075565b81810361010083015261311d8185613030565b90508181036101208301526131328184613030565b90509b9a5050505050505050505050565b600081519050919050565b600082825260208201905092915050565b6000819050602082019050919050565b61317881612eb9565b82525050565b600061318a838361316f565b60208301905092915050565b6000602082019050919050565b60006131ae82613143565b6131b8818561314e565b93506131c38361315f565b8060005b838110156131f45781516131db888261317e565b97506131e683613196565b9250506001810190506131c7565b5085935050505092915050565b6000602082019050818103600083015261321b81846131a3565b905092915050565b60006020828403121561323957613238612e0a565b5b600061324784828501612e35565b91505092915050565b600081519050919050565b600082825260208201905092915050565b6000819050602082019050919050565b61328581612e14565b82525050565b60a0820160008201516132a1600085018261327c565b5060208201516132b4602085018261316f565b5060408201516132c7604085018261316f565b5060608201516132da606085018261327c565b5060808201516132ed608085018261327c565b50505050565b60006132ff838361328b565b60a08301905092915050565b6000602082019050919050565b600061332382613250565b61332d818561325b565b93506133388361326c565b8060005b8381101561336957815161335088826132f3565b975061335b8361330b565b92505060018101905061333c565b5085935050505092915050565b600060208201905081810360008301526133908184613318565b905092915050565b60006020820190506133ad6000830184612ecb565b92915050565b600082825260208201905092915050565b60006133cf82612fd9565b6133d981856133b3565b93506133e9818560208601612ff5565b6133f28161301f565b840191505092915050565b61340681613069565b82525050565b600061012083016000830151613425600086018261316f565b506020830151848203602086015261343d82826133c4565b9150506040830151848203604086015261345782826133c4565b9150506060830151848203606086015261347182826133c4565b9150506080830151613486608086018261327c565b5060a083015161349960a086018261327c565b5060c08301516134ac60c08601826133fd565b5060e083015184820360e08601526134c482826133c4565b9150506101008301518482036101008601526134e082826133c4565b9150508091505092915050565b60006020820190508181036000830152613507818461340c565b905092915050565b60006020820190506135246000830184612e8a565b92915050565b600080fd5b600080fd5b7f4e487b7100000000000000000000000000000000000000000000000000000000600052604160045260246000fd5b61356c8261301f565b810181811067ffffffffffffffff8211171561358b5761358a613534565b5b80604052505050565b600061359e612e00565b90506135aa8282613563565b919050565b600067ffffffffffffffff8211156135ca576135c9613534565b5b6135d38261301f565b9050602081019050919050565b82818337600083830152505050565b60006136026135fd846135af565b613594565b90508281526020810184848401111561361e5761361d61352f565b5b6136298482856135e0565b509392505050565b600082601f8301126136465761364561352a565b5b81356136568482602086016135ef565b91505092915050565b600080600080600060a0868803121561367b5761367a612e0a565b5b600086013567ffffffffffffffff81111561369957613698612e0f565b5b6136a588828901613631565b955050602086013567ffffffffffffffff8111156136c6576136c5612e0f565b5b6136d288828901613631565b945050604086013567ffffffffffffffff8111156136f3576136f2612e0f565b5b6136ff88828901613631565b935050606061371088828901612e35565b925050608061372188828901612e35565b9150509295509295909350565b60008060006060848603121561374757613746612e0a565b5b600084013567ffffffffffffffff81111561376557613764612e0f565b5b61377186828701613631565b935050602084013567ffffffffffffffff81111561379257613791612e0f565b5b61379e86828701613631565b925050604084013567ffffffffffffffff8111156137bf576137be612e0f565b5b6137cb86828701613631565b9150509250925092565b600080fd5b600061010082840312156137f1576137f06137d5565b5b81905092915050565b6000602082840312156138105761380f612e0a565b5b600082013567ffffffffffffffff81111561382e5761382d612e0f565b5b61383a848285016137da565b91505092915050565b600061012082019050613859600083018c612ecb565b818103602083015261386b818b613030565b9050818103604083015261387f818a613030565b905081810360608301526138938189613030565b90506138a26080830188612e8a565b6138af60a0830187612e8a565b6138bc60c0830186613075565b81810360e08301526138ce8185613030565b90508181036101008301526138e38184613030565b90509a9950505050505050505050565b60006101408301600083015161390c600086018261316f565b506020830151848203602086015261392482826133c4565b9150506040830151848203604086015261393e82826133c4565b9150506060830151848203606086015261395882826133c4565b915050608083015161396d608086018261327c565b5060a083015161398060a086018261327c565b5060c083015161399360c086018261327c565b5060e08301516139a660e08601826133fd565b506101008301518482036101008601526139c082826133c4565b9150506101208301518482036101208601526139dc82826133c4565b9150508091505092915050565b60006020820190508181036000830152613a0381846138f3565b905092915050565b7f4e487b7100000000000000000000000000000000000000000000000000000000600052602160045260246000fd5b60048110613a4b57613a4a613a0b565b5b50565b6000819050613a5c82613a3a565b919050565b6000613a6c82613a4e565b9050919050565b613a7c81613a61565b82525050565b600061010082019050613a98600083018b612e8a565b613aa5602083018a612ecb565b613ab26040830189612ecb565b613abf6060830188612e8a565b613acc6080830187612e8a565b613ad960a0830186612e8a565b613ae660c0830185613a73565b613af360e0830184612e8a565b9998505050505050505050565b7f4c6f616e206e6f7420617070726f766564000000000000000000000000000000600082015250565b6000613b36601183612fe4565b9150613b4182613b00565b602082019050919050565b60006020820190508181036000830152613b6581613b29565b9050919050565b7f4f6e6c7920626f72726f7765722063616e206d616b65207061796d656e747300600082015250565b6000613ba2601f83612fe4565b9150613bad82613b6c565b602082019050919050565b60006020820190508181036000830152613bd181613b95565b9050919050565b7f4e487b7100000000000000000000000000000000000000000000000000000000600052601160045260246000fd5b6000613c1282612e14565b9150613c1d83612e14565b9250828201905080821115613c3557613c34613bd8565b5b92915050565b7f4e6f742072656769737465726564206173206120626f72726f77657200000000600082015250565b6000613c71601c83612fe4565b9150613c7c82613c3b565b602082019050919050565b60006020820190508181036000830152613ca081613c64565b9050919050565b7f4c656e646572206e6f7420666f756e6400000000000000000000000000000000600082015250565b6000613cdd601083612fe4565b9150613ce882613ca7565b602082019050919050565b60006020820190508181036000830152613d0c81613cd0565b9050919050565b6000613d1e82612e14565b91507fffffffffffffffffffffffffffffffffffffffffffffffffffffffffffffffff8203613d5057613d4f613bd8565b5b600182019050919050565b7f4e487b7100000000000000000000000000000000000000000000000000000000600052602260045260246000fd5b60006002820490506001821680613da257607f821691505b602082108103613db557613db4613d5b565b5b50919050565b7f4e6f7420726567697374657265642061732061206c656e646572000000000000600082015250565b6000613df1601a83612fe4565b9150613dfc82613dbb565b602082019050919050565b60006020820190508181036000830152613e2081613de4565b9050919050565b7f4e6f7420617574686f72697a656420746f2072656a6563742074686973206c6f60008201527f616e000000000000000000000000000000000000000000000000000000000000602082015250565b6000613e83602283612fe4565b9150613e8e82613e27565b604082019050919050565b60006020820190508181036000830152613eb281613e76565b9050919050565b7f4c6f616e20616c72656164792070726f63657373656400000000000000000000600082015250565b6000613eef601683612fe4565b9150613efa82613eb9565b602082019050919050565b60006020820190508181036000830152613f1e81613ee2565b9050919050565b7f426f72726f776572206e6f742072656769737465726564000000000000000000600082015250565b6000613f5b601783612fe4565b9150613f6682613f25565b602082019050919050565b60006020820190508181036000830152613f8a81613f4e565b9050919050565b7f416c726561647920726567697374657265642061732061206c656e6465720000600082015250565b6000613fc7601e83612fe4565b9150613fd282613f91565b602082019050919050565b60006020820190508181036000830152613ff681613fba565b9050919050565b7f416c72656164792072656769737465726564206173206120626f72726f776572600082015250565b6000614033602083612fe4565b915061403e82613ffd565b602082019050919050565b6000602082019050818103600083015261406281614026565b9050919050565b60008190508160005260206000209050919050565b60006020601f8301049050919050565b600082821b905092915050565b6000600883026140cb7fffffffffffffffffffffffffffffffffffffffffffffffffffffffffffffffff8261408e565b6140d5868361408e565b95508019841693508086168417925050509392505050565b6000819050919050565b600061411261410d61410884612e14565b6140ed565b612e14565b9050919050565b6000819050919050565b61412c836140f7565b61414061413882614119565b84845461409b565b825550505050565b600090565b614155614148565b614160818484614123565b505050565b5b818110156141845761417960008261414d565b600181019050614166565b5050565b601f8211156141c95761419a81614069565b6141a38461407e565b810160208510156141b2578190505b6141c66141be8561407e565b830182614165565b50505b505050565b600082821c905092915050565b60006141ec600019846008026141ce565b1980831691505092915050565b600061420583836141db565b9150826002028217905092915050565b61421e82612fd9565b67ffffffffffffffff81111561423757614236613534565b5b6142418254613d8a565b61424c828285614188565b600060209050601f83116001811461427f576000841561426d578287015190505b61427785826141f9565b8655506142df565b601f19841661428d86614069565b60005b828110156142b557848901518255600182019150602085019450602081019050614290565b868310156142d257848901516142ce601f8916826141db565b8355505b6001600288020188555050505b505050505050565b600060208201905081810360008301526143018184613030565b905092915050565b600080fd5b600080fd5b600080fd5b6000808335600160200384360303811261433557614334614309565b5b80840192508235915067ffffffffffffffff8211156143575761435661430e565b5b60208301925060018202360383131561437357614372614313565b5b509250929050565b600082905092915050565b614390838361437b565b67ffffffffffffffff8111156143a9576143a8613534565b5b6143b38254613d8a565b6143be828285614188565b6000601f8311600181146143ed57600084156143db578287013590505b6143e585826141f9565b86555061444d565b601f1984166143fb86614069565b60005b82811015614423578489013582556001820191506020850194506020810190506143fe565b86831015614440578489013561443c601f8916826141db565b8355505b6001600288020188555050505b50505050505050565b7f4e6f7420617574686f72697a656420746f20617070726f76652074686973206c60008201527f6f616e0000000000000000000000000000000000000000000000000000000000602082015250565b60006144b2602383612fe4565b91506144bd82614456565b604082019050919050565b600060208201905081810360008301526144e1816144a5565b9050919050565b7f4c656e646572206e6f7420726567697374657265640000000000000000000000600082015250565b600061451e601583612fe4565b9150614529826144e8565b602082019050919050565b6000602082019050818103600083015261454d81614511565b905091905056fea264697066735822122071cd2b18e868bec491310e48d32138de9d659aee3991042207c09c8e125ac63564736f6c63430008130033",
  "linkReferences": {},
  "deployedLinkReferences": {}
}